{
	"playversestaking.sol": {
		"PlayverseStake": {
			"abi": [
				{
					"inputs": [],
					"stateMutability": "nonpayable",
					"type": "constructor"
				},
				{
					"inputs": [
						{
							"internalType": "address",
							"name": "owner",
							"type": "address"
						}
					],
					"name": "OwnableInvalidOwner",
					"type": "error"
				},
				{
					"inputs": [
						{
							"internalType": "address",
							"name": "account",
							"type": "address"
						}
					],
					"name": "OwnableUnauthorizedAccount",
					"type": "error"
				},
				{
					"anonymous": false,
					"inputs": [
						{
							"indexed": false,
							"internalType": "uint256",
							"name": "newFeeBps",
							"type": "uint256"
						}
					],
					"name": "FeeUpdated",
					"type": "event"
				},
				{
					"anonymous": false,
					"inputs": [
						{
							"indexed": true,
							"internalType": "address",
							"name": "to",
							"type": "address"
						},
						{
							"indexed": false,
							"internalType": "uint256",
							"name": "amount",
							"type": "uint256"
						}
					],
					"name": "FeeWithdrawn",
					"type": "event"
				},
				{
					"anonymous": false,
					"inputs": [
						{
							"indexed": true,
							"internalType": "bytes32",
							"name": "gameId",
							"type": "bytes32"
						},
						{
							"indexed": true,
							"internalType": "address",
							"name": "player",
							"type": "address"
						},
						{
							"indexed": false,
							"internalType": "bool",
							"name": "playerWon",
							"type": "bool"
						},
						{
							"indexed": false,
							"internalType": "uint256",
							"name": "payout",
							"type": "uint256"
						},
						{
							"indexed": false,
							"internalType": "uint256",
							"name": "fee",
							"type": "uint256"
						}
					],
					"name": "GameResolved",
					"type": "event"
				},
				{
					"anonymous": false,
					"inputs": [
						{
							"indexed": true,
							"internalType": "address",
							"name": "previousOwner",
							"type": "address"
						},
						{
							"indexed": true,
							"internalType": "address",
							"name": "newOwner",
							"type": "address"
						}
					],
					"name": "OwnershipTransferred",
					"type": "event"
				},
				{
					"anonymous": false,
					"inputs": [
						{
							"indexed": false,
							"internalType": "address",
							"name": "account",
							"type": "address"
						}
					],
					"name": "Paused",
					"type": "event"
				},
				{
					"anonymous": false,
					"inputs": [
						{
							"indexed": true,
							"internalType": "bytes32",
							"name": "gameId",
							"type": "bytes32"
						},
						{
							"indexed": true,
							"internalType": "address",
							"name": "player",
							"type": "address"
						},
						{
							"indexed": false,
							"internalType": "uint256",
							"name": "amount",
							"type": "uint256"
						}
					],
					"name": "Refunded",
					"type": "event"
				},
				{
					"anonymous": false,
					"inputs": [
						{
							"indexed": true,
							"internalType": "bytes32",
							"name": "gameId",
							"type": "bytes32"
						},
						{
							"indexed": true,
							"internalType": "address",
							"name": "player",
							"type": "address"
						},
						{
							"indexed": false,
							"internalType": "uint256",
							"name": "amount",
							"type": "uint256"
						}
					],
					"name": "StakePlaced",
					"type": "event"
				},
				{
					"anonymous": false,
					"inputs": [
						{
							"indexed": false,
							"internalType": "uint256",
							"name": "newTimeout",
							"type": "uint256"
						}
					],
					"name": "TimeoutUpdated",
					"type": "event"
				},
				{
					"anonymous": false,
					"inputs": [
						{
							"indexed": false,
							"internalType": "address",
							"name": "account",
							"type": "address"
						}
					],
					"name": "Unpaused",
					"type": "event"
				},
				{
					"stateMutability": "payable",
					"type": "fallback"
				},
				{
					"inputs": [],
					"name": "BASE_STAKE_WEI",
					"outputs": [
						{
							"internalType": "uint256",
							"name": "",
							"type": "uint256"
						}
					],
					"stateMutability": "view",
					"type": "function"
				},
				{
					"inputs": [],
					"name": "CELO_STAKE_WEI",
					"outputs": [
						{
							"internalType": "uint256",
							"name": "",
							"type": "uint256"
						}
					],
					"stateMutability": "view",
					"type": "function"
				},
				{
					"inputs": [],
					"name": "MAX_BPS",
					"outputs": [
						{
							"internalType": "uint256",
							"name": "",
							"type": "uint256"
						}
					],
					"stateMutability": "view",
					"type": "function"
				},
				{
					"inputs": [],
					"name": "feeBps",
					"outputs": [
						{
							"internalType": "uint256",
							"name": "",
							"type": "uint256"
						}
					],
					"stateMutability": "view",
					"type": "function"
				},
				{
					"inputs": [],
					"name": "owner",
					"outputs": [
						{
							"internalType": "address",
							"name": "",
							"type": "address"
						}
					],
					"stateMutability": "view",
					"type": "function"
				},
				{
					"inputs": [],
					"name": "pause",
					"outputs": [],
					"stateMutability": "nonpayable",
					"type": "function"
				},
				{
					"inputs": [],
					"name": "paused",
					"outputs": [
						{
							"internalType": "bool",
							"name": "",
							"type": "bool"
						}
					],
					"stateMutability": "view",
					"type": "function"
				},
				{
					"inputs": [
						{
							"internalType": "bytes32",
							"name": "gameId",
							"type": "bytes32"
						}
					],
					"name": "placeStake",
					"outputs": [],
					"stateMutability": "payable",
					"type": "function"
				},
				{
					"inputs": [
						{
							"internalType": "bytes32",
							"name": "gameId",
							"type": "bytes32"
						}
					],
					"name": "refundStake",
					"outputs": [],
					"stateMutability": "nonpayable",
					"type": "function"
				},
				{
					"inputs": [],
					"name": "renounceOwnership",
					"outputs": [],
					"stateMutability": "nonpayable",
					"type": "function"
				},
				{
					"inputs": [
						{
							"internalType": "bytes32",
							"name": "gameId",
							"type": "bytes32"
						},
						{
							"internalType": "bool",
							"name": "playerWon",
							"type": "bool"
						}
					],
					"name": "resolveGame",
					"outputs": [],
					"stateMutability": "nonpayable",
					"type": "function"
				},
				{
					"inputs": [
						{
							"internalType": "uint256",
							"name": "_feeBps",
							"type": "uint256"
						}
					],
					"name": "setFeeBps",
					"outputs": [],
					"stateMutability": "nonpayable",
					"type": "function"
				},
				{
					"inputs": [
						{
							"internalType": "uint256",
							"name": "_timeout",
							"type": "uint256"
						}
					],
					"name": "setTimeout",
					"outputs": [],
					"stateMutability": "nonpayable",
					"type": "function"
				},
				{
					"inputs": [
						{
							"internalType": "bytes32",
							"name": "",
							"type": "bytes32"
						}
					],
					"name": "stakes",
					"outputs": [
						{
							"internalType": "address",
							"name": "player",
							"type": "address"
						},
						{
							"internalType": "uint256",
							"name": "amount",
							"type": "uint256"
						},
						{
							"internalType": "uint256",
							"name": "timestamp",
							"type": "uint256"
						},
						{
							"internalType": "bool",
							"name": "claimed",
							"type": "bool"
						}
					],
					"stateMutability": "view",
					"type": "function"
				},
				{
					"inputs": [],
					"name": "timeout",
					"outputs": [
						{
							"internalType": "uint256",
							"name": "",
							"type": "uint256"
						}
					],
					"stateMutability": "view",
					"type": "function"
				},
				{
					"inputs": [
						{
							"internalType": "address",
							"name": "newOwner",
							"type": "address"
						}
					],
					"name": "transferOwnership",
					"outputs": [],
					"stateMutability": "nonpayable",
					"type": "function"
				},
				{
					"inputs": [],
					"name": "unpause",
					"outputs": [],
					"stateMutability": "nonpayable",
					"type": "function"
				},
				{
					"inputs": [
						{
							"internalType": "address payable",
							"name": "to",
							"type": "address"
						}
					],
					"name": "withdrawFees",
					"outputs": [],
					"stateMutability": "nonpayable",
					"type": "function"
				},
				{
					"stateMutability": "payable",
					"type": "receive"
				}
			],
			"devdoc": {
				"errors": {
					"OwnableInvalidOwner(address)": [
						{
							"details": "The owner is not a valid owner account. (eg. `address(0)`)"
						}
					],
					"OwnableUnauthorizedAccount(address)": [
						{
							"details": "The caller account is not authorized to perform an operation."
						}
					]
				},
				"events": {
					"Paused(address)": {
						"details": "Emitted when the pause is triggered by `account`."
					},
					"Unpaused(address)": {
						"details": "Emitted when the pause is lifted by `account`."
					}
				},
				"kind": "dev",
				"methods": {
					"owner()": {
						"details": "Returns the address of the current owner."
					},
					"paused()": {
						"details": "Returns true if the contract is paused, and false otherwise."
					},
					"placeStake(bytes32)": {
						"details": "Only accepts `BASE_STAKE_WEI` or `CELO_STAKE_WEI`.",
						"params": {
							"gameId": "Unique identifier for the game (client-generated)"
						}
					},
					"refundStake(bytes32)": {
						"params": {
							"gameId": "The game ID to refund"
						}
					},
					"renounceOwnership()": {
						"details": "Leaves the contract without owner. It will not be possible to call `onlyOwner` functions. Can only be called by the current owner. NOTE: Renouncing ownership will leave the contract without an owner, thereby disabling any functionality that is only available to the owner."
					},
					"resolveGame(bytes32,bool)": {
						"details": "Transfers payout to player if they won; otherwise, keeps stake as fee.",
						"params": {
							"gameId": "The game ID to resolve",
							"playerWon": "Whether the player won (true) or lost (false)"
						}
					},
					"transferOwnership(address)": {
						"details": "Transfers ownership of the contract to a new account (`newOwner`). Can only be called by the current owner."
					},
					"withdrawFees(address)": {
						"params": {
							"to": "Recipient address for fees"
						}
					}
				},
				"version": 1
			},
			"evm": {
				"assembly": "    /* \"playversestaking.sol\":237:4960  contract PlayverseStake is Ownable, ReentrancyGuard, Pausable {... */\n  mstore(0x40, 0x80)\n    /* \"playversestaking.sol\":468:471  100 */\n  0x64\n    /* \"playversestaking.sol\":444:471  uint256 public feeBps = 100 */\n  0x03\n  sstore\n    /* \"playversestaking.sol\":611:617  1 days */\n  0x015180\n    /* \"playversestaking.sol\":586:617  uint256 public timeout = 1 days */\n  0x04\n  sstore\n    /* \"playversestaking.sol\":1293:1329  constructor() Ownable(msg.sender) {} */\n  callvalue\n  dup1\n  iszero\n  tag_1\n  jumpi\n  0x00\n  dup1\n  revert\ntag_1:\n  pop\n    /* \"playversestaking.sol\":1315:1325  msg.sender */\n  caller\n    /* \"@openzeppelin/contracts/access/Ownable.sol\":1297:1298  0 */\n  0x00\n    /* \"@openzeppelin/contracts/access/Ownable.sol\":1273:1299  initialOwner == address(0) */\n  0xffffffffffffffffffffffffffffffffffffffff\n  and\n    /* \"@openzeppelin/contracts/access/Ownable.sol\":1273:1285  initialOwner */\n  dup2\n    /* \"@openzeppelin/contracts/access/Ownable.sol\":1273:1299  initialOwner == address(0) */\n  0xffffffffffffffffffffffffffffffffffffffff\n  and\n  sub\n    /* \"@openzeppelin/contracts/access/Ownable.sol\":1269:1364  if (initialOwner == address(0)) {... */\n  tag_7\n  jumpi\n    /* \"@openzeppelin/contracts/access/Ownable.sol\":1350:1351  0 */\n  0x00\n    /* \"@openzeppelin/contracts/access/Ownable.sol\":1322:1353  OwnableInvalidOwner(address(0)) */\n  mload(0x40)\n  0x1e4fbdf700000000000000000000000000000000000000000000000000000000\n  dup2\n  mstore\n  0x04\n  add\n  tag_8\n  swap2\n  swap1\n  tag_9\n  jump\t// in\ntag_8:\n  mload(0x40)\n  dup1\n  swap2\n  sub\n  swap1\n  revert\n    /* \"@openzeppelin/contracts/access/Ownable.sol\":1269:1364  if (initialOwner == address(0)) {... */\ntag_7:\n    /* \"@openzeppelin/contracts/access/Ownable.sol\":1373:1405  _transferOwnership(initialOwner) */\n  tag_10\n    /* \"@openzeppelin/contracts/access/Ownable.sol\":1392:1404  initialOwner */\n  dup2\n    /* \"@openzeppelin/contracts/access/Ownable.sol\":1373:1391  _transferOwnership */\n  shl(0x20, tag_11)\n    /* \"@openzeppelin/contracts/access/Ownable.sol\":1373:1405  _transferOwnership(initialOwner) */\n  0x20\n  shr\n  jump\t// in\ntag_10:\n    /* \"@openzeppelin/contracts/access/Ownable.sol\":1225:1412  constructor(address initialOwner) {... */\n  pop\n    /* \"@openzeppelin/contracts/security/ReentrancyGuard.sol\":1716:1717  1 */\n  0x01\n    /* \"@openzeppelin/contracts/security/ReentrancyGuard.sol\":1821:1828  _status */\n  dup1\n    /* \"@openzeppelin/contracts/security/ReentrancyGuard.sol\":1821:1843  _status = _NOT_ENTERED */\n  dup2\n  swap1\n  sstore\n  pop\n    /* \"@openzeppelin/contracts/security/Pausable.sol\":1006:1011  false */\n  0x00\n    /* \"@openzeppelin/contracts/security/Pausable.sol\":996:1003  _paused */\n  0x02\n  0x00\n    /* \"@openzeppelin/contracts/security/Pausable.sol\":996:1011  _paused = false */\n  0x0100\n  exp\n  dup2\n  sload\n  dup2\n  0xff\n  mul\n  not\n  and\n  swap1\n  dup4\n  iszero\n  iszero\n  mul\n  or\n  swap1\n  sstore\n  pop\n    /* \"playversestaking.sol\":237:4960  contract PlayverseStake is Ownable, ReentrancyGuard, Pausable {... */\n  jump(tag_15)\n    /* \"@openzeppelin/contracts/access/Ownable.sol\":2912:3099  function _transferOwnership(address newOwner) internal virtual {... */\ntag_11:\n    /* \"@openzeppelin/contracts/access/Ownable.sol\":2985:3001  address oldOwner */\n  0x00\n    /* \"@openzeppelin/contracts/access/Ownable.sol\":3004:3010  _owner */\n  dup1\n  0x00\n  swap1\n  sload\n  swap1\n  0x0100\n  exp\n  swap1\n  div\n  0xffffffffffffffffffffffffffffffffffffffff\n  and\n    /* \"@openzeppelin/contracts/access/Ownable.sol\":2985:3010  address oldOwner = _owner */\n  swap1\n  pop\n    /* \"@openzeppelin/contracts/access/Ownable.sol\":3029:3037  newOwner */\n  dup2\n    /* \"@openzeppelin/contracts/access/Ownable.sol\":3020:3026  _owner */\n  0x00\n  dup1\n    /* \"@openzeppelin/contracts/access/Ownable.sol\":3020:3037  _owner = newOwner */\n  0x0100\n  exp\n  dup2\n  sload\n  dup2\n  0xffffffffffffffffffffffffffffffffffffffff\n  mul\n  not\n  and\n  swap1\n  dup4\n  0xffffffffffffffffffffffffffffffffffffffff\n  and\n  mul\n  or\n  swap1\n  sstore\n  pop\n    /* \"@openzeppelin/contracts/access/Ownable.sol\":3083:3091  newOwner */\n  dup2\n    /* \"@openzeppelin/contracts/access/Ownable.sol\":3052:3092  OwnershipTransferred(oldOwner, newOwner) */\n  0xffffffffffffffffffffffffffffffffffffffff\n  and\n    /* \"@openzeppelin/contracts/access/Ownable.sol\":3073:3081  oldOwner */\n  dup2\n    /* \"@openzeppelin/contracts/access/Ownable.sol\":3052:3092  OwnershipTransferred(oldOwner, newOwner) */\n  0xffffffffffffffffffffffffffffffffffffffff\n  and\n  0x8be0079c531659141344cd1fd0a4f28419497f9722a3daafe3b4186f6b6457e0\n  mload(0x40)\n  mload(0x40)\n  dup1\n  swap2\n  sub\n  swap1\n  log3\n    /* \"@openzeppelin/contracts/access/Ownable.sol\":2975:3099  {... */\n  pop\n    /* \"@openzeppelin/contracts/access/Ownable.sol\":2912:3099  function _transferOwnership(address newOwner) internal virtual {... */\n  pop\n  jump\t// out\n    /* \"#utility.yul\":7:133   */\ntag_17:\n    /* \"#utility.yul\":44:51   */\n  0x00\n    /* \"#utility.yul\":84:126   */\n  0xffffffffffffffffffffffffffffffffffffffff\n    /* \"#utility.yul\":77:82   */\n  dup3\n    /* \"#utility.yul\":73:127   */\n  and\n    /* \"#utility.yul\":62:127   */\n  swap1\n  pop\n    /* \"#utility.yul\":7:133   */\n  swap2\n  swap1\n  pop\n  jump\t// out\n    /* \"#utility.yul\":139:235   */\ntag_18:\n    /* \"#utility.yul\":176:183   */\n  0x00\n    /* \"#utility.yul\":205:229   */\n  tag_23\n    /* \"#utility.yul\":223:228   */\n  dup3\n    /* \"#utility.yul\":205:229   */\n  tag_17\n  jump\t// in\ntag_23:\n    /* \"#utility.yul\":194:229   */\n  swap1\n  pop\n    /* \"#utility.yul\":139:235   */\n  swap2\n  swap1\n  pop\n  jump\t// out\n    /* \"#utility.yul\":241:359   */\ntag_19:\n    /* \"#utility.yul\":328:352   */\n  tag_25\n    /* \"#utility.yul\":346:351   */\n  dup2\n    /* \"#utility.yul\":328:352   */\n  tag_18\n  jump\t// in\ntag_25:\n    /* \"#utility.yul\":323:326   */\n  dup3\n    /* \"#utility.yul\":316:353   */\n  mstore\n    /* \"#utility.yul\":241:359   */\n  pop\n  pop\n  jump\t// out\n    /* \"#utility.yul\":365:587   */\ntag_9:\n    /* \"#utility.yul\":458:462   */\n  0x00\n    /* \"#utility.yul\":496:498   */\n  0x20\n    /* \"#utility.yul\":485:494   */\n  dup3\n    /* \"#utility.yul\":481:499   */\n  add\n    /* \"#utility.yul\":473:499   */\n  swap1\n  pop\n    /* \"#utility.yul\":509:580   */\n  tag_27\n    /* \"#utility.yul\":577:578   */\n  0x00\n    /* \"#utility.yul\":566:575   */\n  dup4\n    /* \"#utility.yul\":562:579   */\n  add\n    /* \"#utility.yul\":553:559   */\n  dup5\n    /* \"#utility.yul\":509:580   */\n  tag_19\n  jump\t// in\ntag_27:\n    /* \"#utility.yul\":365:587   */\n  swap3\n  swap2\n  pop\n  pop\n  jump\t// out\n    /* \"playversestaking.sol\":237:4960  contract PlayverseStake is Ownable, ReentrancyGuard, Pausable {... */\ntag_15:\n  dataSize(sub_0)\n  dup1\n  dataOffset(sub_0)\n  0x00\n  codecopy\n  0x00\n  return\nstop\n\nsub_0: assembly {\n        /* \"playversestaking.sol\":237:4960  contract PlayverseStake is Ownable, ReentrancyGuard, Pausable {... */\n      mstore(0x40, 0x80)\n      jumpi(tag_1, lt(calldatasize, 0x04))\n      shr(0xe0, calldataload(0x00))\n      dup1\n      0x8da5cb5b\n      gt\n      tag_21\n      jumpi\n      dup1\n      0xd9962069\n      gt\n      tag_22\n      jumpi\n      dup1\n      0xd9962069\n      eq\n      tag_16\n      jumpi\n      dup1\n      0xe3e594ae\n      eq\n      tag_17\n      jumpi\n      dup1\n      0xf2fde38b\n      eq\n      tag_18\n      jumpi\n      dup1\n      0xf55d3d0c\n      eq\n      tag_19\n      jumpi\n      dup1\n      0xfd967f47\n      eq\n      tag_20\n      jumpi\n      jump(tag_2)\n    tag_22:\n      dup1\n      0x8da5cb5b\n      eq\n      tag_12\n      jumpi\n      dup1\n      0x8fee6407\n      eq\n      tag_13\n      jumpi\n      dup1\n      0xabaebbe3\n      eq\n      tag_14\n      jumpi\n      dup1\n      0xc58a34cc\n      eq\n      tag_15\n      jumpi\n      jump(tag_2)\n    tag_21:\n      dup1\n      0x70dea79a\n      gt\n      tag_23\n      jumpi\n      dup1\n      0x70dea79a\n      eq\n      tag_7\n      jumpi\n      dup1\n      0x715018a6\n      eq\n      tag_8\n      jumpi\n      dup1\n      0x72c27b62\n      eq\n      tag_9\n      jumpi\n      dup1\n      0x748926f3\n      eq\n      tag_10\n      jumpi\n      dup1\n      0x8456cb59\n      eq\n      tag_11\n      jumpi\n      jump(tag_2)\n    tag_23:\n      dup1\n      0x164e68de\n      eq\n      tag_3\n      jumpi\n      dup1\n      0x24a9d853\n      eq\n      tag_4\n      jumpi\n      dup1\n      0x3f4ba83a\n      eq\n      tag_5\n      jumpi\n      dup1\n      0x5c975abb\n      eq\n      tag_6\n      jumpi\n      jump(tag_2)\n    tag_1:\n      jumpi(tag_2, calldatasize)\n      stop\n    tag_2:\n      stop\n        /* \"playversestaking.sol\":3942:4275  function withdrawFees(address payable to) external onlyOwner nonReentrant {... */\n    tag_3:\n      callvalue\n      dup1\n      iszero\n      tag_28\n      jumpi\n      0x00\n      dup1\n      revert\n    tag_28:\n      pop\n      tag_29\n      0x04\n      dup1\n      calldatasize\n      sub\n      dup2\n      add\n      swap1\n      tag_30\n      swap2\n      swap1\n      tag_31\n      jump\t// in\n    tag_30:\n      tag_32\n      jump\t// in\n    tag_29:\n      stop\n        /* \"playversestaking.sol\":444:471  uint256 public feeBps = 100 */\n    tag_4:\n      callvalue\n      dup1\n      iszero\n      tag_33\n      jumpi\n      0x00\n      dup1\n      revert\n    tag_33:\n      pop\n      tag_34\n      tag_35\n      jump\t// in\n    tag_34:\n      mload(0x40)\n      tag_36\n      swap2\n      swap1\n      tag_37\n      jump\t// in\n    tag_36:\n      mload(0x40)\n      dup1\n      swap2\n      sub\n      swap1\n      return\n        /* \"playversestaking.sol\":4749:4816  function unpause() external onlyOwner {... */\n    tag_5:\n      callvalue\n      dup1\n      iszero\n      tag_38\n      jumpi\n      0x00\n      dup1\n      revert\n    tag_38:\n      pop\n      tag_39\n      tag_40\n      jump\t// in\n    tag_39:\n      stop\n        /* \"@openzeppelin/contracts/security/Pausable.sol\":1615:1699  function paused() public view virtual returns (bool) {... */\n    tag_6:\n      callvalue\n      dup1\n      iszero\n      tag_41\n      jumpi\n      0x00\n      dup1\n      revert\n    tag_41:\n      pop\n      tag_42\n      tag_43\n      jump\t// in\n    tag_42:\n      mload(0x40)\n      tag_44\n      swap2\n      swap1\n      tag_45\n      jump\t// in\n    tag_44:\n      mload(0x40)\n      dup1\n      swap2\n      sub\n      swap1\n      return\n        /* \"playversestaking.sol\":586:617  uint256 public timeout = 1 days */\n    tag_7:\n      callvalue\n      dup1\n      iszero\n      tag_46\n      jumpi\n      0x00\n      dup1\n      revert\n    tag_46:\n      pop\n      tag_47\n      tag_48\n      jump\t// in\n    tag_47:\n      mload(0x40)\n      tag_49\n      swap2\n      swap1\n      tag_37\n      jump\t// in\n    tag_49:\n      mload(0x40)\n      dup1\n      swap2\n      sub\n      swap1\n      return\n        /* \"@openzeppelin/contracts/access/Ownable.sol\":2293:2394  function renounceOwnership() public virtual onlyOwner {... */\n    tag_8:\n      callvalue\n      dup1\n      iszero\n      tag_50\n      jumpi\n      0x00\n      dup1\n      revert\n    tag_50:\n      pop\n      tag_51\n      tag_52\n      jump\t// in\n    tag_51:\n      stop\n        /* \"playversestaking.sol\":4341:4528  function setFeeBps(uint256 _feeBps) external onlyOwner {... */\n    tag_9:\n      callvalue\n      dup1\n      iszero\n      tag_53\n      jumpi\n      0x00\n      dup1\n      revert\n    tag_53:\n      pop\n      tag_54\n      0x04\n      dup1\n      calldatasize\n      sub\n      dup2\n      add\n      swap1\n      tag_55\n      swap2\n      swap1\n      tag_56\n      jump\t// in\n    tag_55:\n      tag_57\n      jump\t// in\n    tag_54:\n      stop\n        /* \"playversestaking.sol\":3212:3812  function refundStake(bytes32 gameId) external nonReentrant {... */\n    tag_10:\n      callvalue\n      dup1\n      iszero\n      tag_58\n      jumpi\n      0x00\n      dup1\n      revert\n    tag_58:\n      pop\n      tag_59\n      0x04\n      dup1\n      calldatasize\n      sub\n      dup2\n      add\n      swap1\n      tag_60\n      swap2\n      swap1\n      tag_61\n      jump\t// in\n    tag_60:\n      tag_62\n      jump\t// in\n    tag_59:\n      stop\n        /* \"playversestaking.sol\":4678:4741  function pause() external onlyOwner {... */\n    tag_11:\n      callvalue\n      dup1\n      iszero\n      tag_63\n      jumpi\n      0x00\n      dup1\n      revert\n    tag_63:\n      pop\n      tag_64\n      tag_65\n      jump\t// in\n    tag_64:\n      stop\n        /* \"@openzeppelin/contracts/access/Ownable.sol\":1638:1723  function owner() public view virtual returns (address) {... */\n    tag_12:\n      callvalue\n      dup1\n      iszero\n      tag_66\n      jumpi\n      0x00\n      dup1\n      revert\n    tag_66:\n      pop\n      tag_67\n      tag_68\n      jump\t// in\n    tag_67:\n      mload(0x40)\n      tag_69\n      swap2\n      swap1\n      tag_70\n      jump\t// in\n    tag_69:\n      mload(0x40)\n      dup1\n      swap2\n      sub\n      swap1\n      return\n        /* \"playversestaking.sol\":787:826  mapping(bytes32 => Stake) public stakes */\n    tag_13:\n      callvalue\n      dup1\n      iszero\n      tag_71\n      jumpi\n      0x00\n      dup1\n      revert\n    tag_71:\n      pop\n      tag_72\n      0x04\n      dup1\n      calldatasize\n      sub\n      dup2\n      add\n      swap1\n      tag_73\n      swap2\n      swap1\n      tag_61\n      jump\t// in\n    tag_73:\n      tag_74\n      jump\t// in\n    tag_72:\n      mload(0x40)\n      tag_75\n      swap5\n      swap4\n      swap3\n      swap2\n      swap1\n      tag_76\n      jump\t// in\n    tag_75:\n      mload(0x40)\n      dup1\n      swap2\n      sub\n      swap1\n      return\n        /* \"playversestaking.sol\":380:425  uint256 public constant CELO_STAKE_WEI = 1e18 */\n    tag_14:\n      callvalue\n      dup1\n      iszero\n      tag_77\n      jumpi\n      0x00\n      dup1\n      revert\n    tag_77:\n      pop\n      tag_78\n      tag_79\n      jump\t// in\n    tag_78:\n      mload(0x40)\n      tag_80\n      swap2\n      swap1\n      tag_37\n      jump\t// in\n    tag_80:\n      mload(0x40)\n      dup1\n      swap2\n      sub\n      swap1\n      return\n        /* \"playversestaking.sol\":4536:4670  function setTimeout(uint256 _timeout) external onlyOwner {... */\n    tag_15:\n      callvalue\n      dup1\n      iszero\n      tag_81\n      jumpi\n      0x00\n      dup1\n      revert\n    tag_81:\n      pop\n      tag_82\n      0x04\n      dup1\n      calldatasize\n      sub\n      dup2\n      add\n      swap1\n      tag_83\n      swap2\n      swap1\n      tag_56\n      jump\t// in\n    tag_83:\n      tag_84\n      jump\t// in\n    tag_82:\n      stop\n        /* \"playversestaking.sol\":306:360  uint256 public constant BASE_STAKE_WEI = 1_000_000_000 */\n    tag_16:\n      callvalue\n      dup1\n      iszero\n      tag_85\n      jumpi\n      0x00\n      dup1\n      revert\n    tag_85:\n      pop\n      tag_86\n      tag_87\n      jump\t// in\n    tag_86:\n      mload(0x40)\n      tag_88\n      swap2\n      swap1\n      tag_37\n      jump\t// in\n    tag_88:\n      mload(0x40)\n      dup1\n      swap2\n      sub\n      swap1\n      return\n        /* \"playversestaking.sol\":1533:2044  function placeStake(bytes32 gameId) external payable whenNotPaused nonReentrant {... */\n    tag_17:\n      tag_89\n      0x04\n      dup1\n      calldatasize\n      sub\n      dup2\n      add\n      swap1\n      tag_90\n      swap2\n      swap1\n      tag_61\n      jump\t// in\n    tag_90:\n      tag_91\n      jump\t// in\n    tag_89:\n      stop\n        /* \"@openzeppelin/contracts/access/Ownable.sol\":2543:2758  function transferOwnership(address newOwner) public virtual onlyOwner {... */\n    tag_18:\n      callvalue\n      dup1\n      iszero\n      tag_92\n      jumpi\n      0x00\n      dup1\n      revert\n    tag_92:\n      pop\n      tag_93\n      0x04\n      dup1\n      calldatasize\n      sub\n      dup2\n      add\n      swap1\n      tag_94\n      swap2\n      swap1\n      tag_95\n      jump\t// in\n    tag_94:\n      tag_96\n      jump\t// in\n    tag_93:\n      stop\n        /* \"playversestaking.sol\":2319:3068  function resolveGame(bytes32 gameId, bool playerWon) external onlyOwner nonReentrant {... */\n    tag_19:\n      callvalue\n      dup1\n      iszero\n      tag_97\n      jumpi\n      0x00\n      dup1\n      revert\n    tag_97:\n      pop\n      tag_98\n      0x04\n      dup1\n      calldatasize\n      sub\n      dup2\n      add\n      swap1\n      tag_99\n      swap2\n      swap1\n      tag_100\n      jump\t// in\n    tag_99:\n      tag_101\n      jump\t// in\n    tag_98:\n      stop\n        /* \"playversestaking.sol\":513:553  uint256 public constant MAX_BPS = 10_000 */\n    tag_20:\n      callvalue\n      dup1\n      iszero\n      tag_102\n      jumpi\n      0x00\n      dup1\n      revert\n    tag_102:\n      pop\n      tag_103\n      tag_104\n      jump\t// in\n    tag_103:\n      mload(0x40)\n      tag_105\n      swap2\n      swap1\n      tag_37\n      jump\t// in\n    tag_105:\n      mload(0x40)\n      dup1\n      swap2\n      sub\n      swap1\n      return\n        /* \"playversestaking.sol\":3942:4275  function withdrawFees(address payable to) external onlyOwner nonReentrant {... */\n    tag_32:\n        /* \"@openzeppelin/contracts/access/Ownable.sol\":1531:1544  _checkOwner() */\n      tag_107\n        /* \"@openzeppelin/contracts/access/Ownable.sol\":1531:1542  _checkOwner */\n      tag_108\n        /* \"@openzeppelin/contracts/access/Ownable.sol\":1531:1544  _checkOwner() */\n      jump\t// in\n    tag_107:\n        /* \"@openzeppelin/contracts/security/ReentrancyGuard.sol\":2261:2282  _nonReentrantBefore() */\n      tag_110\n        /* \"@openzeppelin/contracts/security/ReentrancyGuard.sol\":2261:2280  _nonReentrantBefore */\n      tag_111\n        /* \"@openzeppelin/contracts/security/ReentrancyGuard.sol\":2261:2282  _nonReentrantBefore() */\n      jump\t// in\n    tag_110:\n        /* \"playversestaking.sol\":4027:4042  uint256 balance */\n      0x00\n        /* \"playversestaking.sol\":4045:4066  address(this).balance */\n      selfbalance\n        /* \"playversestaking.sol\":4027:4066  uint256 balance = address(this).balance */\n      swap1\n      pop\n        /* \"playversestaking.sol\":4095:4096  0 */\n      0x00\n        /* \"playversestaking.sol\":4085:4092  balance */\n      dup2\n        /* \"playversestaking.sol\":4085:4096  balance > 0 */\n      gt\n        /* \"playversestaking.sol\":4077:4123  require(balance > 0, \"No balance to withdraw\") */\n      tag_113\n      jumpi\n      mload(0x40)\n      0x08c379a000000000000000000000000000000000000000000000000000000000\n      dup2\n      mstore\n      0x04\n      add\n      tag_114\n      swap1\n      tag_115\n      jump\t// in\n    tag_114:\n      mload(0x40)\n      dup1\n      swap2\n      sub\n      swap1\n      revert\n    tag_113:\n        /* \"playversestaking.sol\":4137:4146  bool sent */\n      0x00\n        /* \"playversestaking.sol\":4152:4154  to */\n      dup3\n        /* \"playversestaking.sol\":4152:4159  to.call */\n      0xffffffffffffffffffffffffffffffffffffffff\n      and\n        /* \"playversestaking.sol\":4167:4174  balance */\n      dup3\n        /* \"playversestaking.sol\":4152:4179  to.call{value: balance}(\"\") */\n      mload(0x40)\n      tag_116\n      swap1\n      tag_117\n      jump\t// in\n    tag_116:\n      0x00\n      mload(0x40)\n      dup1\n      dup4\n      sub\n      dup2\n      dup6\n      dup8\n      gas\n      call\n      swap3\n      pop\n      pop\n      pop\n      returndatasize\n      dup1\n      0x00\n      dup2\n      eq\n      tag_120\n      jumpi\n      mload(0x40)\n      swap2\n      pop\n      and(add(returndatasize, 0x3f), not(0x1f))\n      dup3\n      add\n      0x40\n      mstore\n      returndatasize\n      dup3\n      mstore\n      returndatasize\n      0x00\n      0x20\n      dup5\n      add\n      returndatacopy\n      jump(tag_119)\n    tag_120:\n      0x60\n      swap2\n      pop\n    tag_119:\n      pop\n        /* \"playversestaking.sol\":4136:4179  (bool sent, ) = to.call{value: balance}(\"\") */\n      pop\n      swap1\n      pop\n        /* \"playversestaking.sol\":4198:4202  sent */\n      dup1\n        /* \"playversestaking.sol\":4190:4224  require(sent, \"Withdrawal failed\") */\n      tag_121\n      jumpi\n      mload(0x40)\n      0x08c379a000000000000000000000000000000000000000000000000000000000\n      dup2\n      mstore\n      0x04\n      add\n      tag_122\n      swap1\n      tag_123\n      jump\t// in\n    tag_122:\n      mload(0x40)\n      dup1\n      swap2\n      sub\n      swap1\n      revert\n    tag_121:\n        /* \"playversestaking.sol\":4255:4257  to */\n      dup3\n        /* \"playversestaking.sol\":4242:4267  FeeWithdrawn(to, balance) */\n      0xffffffffffffffffffffffffffffffffffffffff\n      and\n      0x78473f3f373f7673597f4f0fa5873cb4d375fea6d4339ad6b56dbd411513cb3f\n        /* \"playversestaking.sol\":4259:4266  balance */\n      dup4\n        /* \"playversestaking.sol\":4242:4267  FeeWithdrawn(to, balance) */\n      mload(0x40)\n      tag_124\n      swap2\n      swap1\n      tag_37\n      jump\t// in\n    tag_124:\n      mload(0x40)\n      dup1\n      swap2\n      sub\n      swap1\n      log2\n        /* \"playversestaking.sol\":4016:4275  {... */\n      pop\n      pop\n        /* \"@openzeppelin/contracts/security/ReentrancyGuard.sol\":2303:2323  _nonReentrantAfter() */\n      tag_125\n        /* \"@openzeppelin/contracts/security/ReentrancyGuard.sol\":2303:2321  _nonReentrantAfter */\n      tag_126\n        /* \"@openzeppelin/contracts/security/ReentrancyGuard.sol\":2303:2323  _nonReentrantAfter() */\n      jump\t// in\n    tag_125:\n        /* \"playversestaking.sol\":3942:4275  function withdrawFees(address payable to) external onlyOwner nonReentrant {... */\n      pop\n      jump\t// out\n        /* \"playversestaking.sol\":444:471  uint256 public feeBps = 100 */\n    tag_35:\n      sload(0x03)\n      dup2\n      jump\t// out\n        /* \"playversestaking.sol\":4749:4816  function unpause() external onlyOwner {... */\n    tag_40:\n        /* \"@openzeppelin/contracts/access/Ownable.sol\":1531:1544  _checkOwner() */\n      tag_128\n        /* \"@openzeppelin/contracts/access/Ownable.sol\":1531:1542  _checkOwner */\n      tag_108\n        /* \"@openzeppelin/contracts/access/Ownable.sol\":1531:1544  _checkOwner() */\n      jump\t// in\n    tag_128:\n        /* \"playversestaking.sol\":4798:4808  _unpause() */\n      tag_130\n        /* \"playversestaking.sol\":4798:4806  _unpause */\n      tag_131\n        /* \"playversestaking.sol\":4798:4808  _unpause() */\n      jump\t// in\n    tag_130:\n        /* \"playversestaking.sol\":4749:4816  function unpause() external onlyOwner {... */\n      jump\t// out\n        /* \"@openzeppelin/contracts/security/Pausable.sol\":1615:1699  function paused() public view virtual returns (bool) {... */\n    tag_43:\n        /* \"@openzeppelin/contracts/security/Pausable.sol\":1662:1666  bool */\n      0x00\n        /* \"@openzeppelin/contracts/security/Pausable.sol\":1685:1692  _paused */\n      0x02\n      0x00\n      swap1\n      sload\n      swap1\n      0x0100\n      exp\n      swap1\n      div\n      0xff\n      and\n        /* \"@openzeppelin/contracts/security/Pausable.sol\":1678:1692  return _paused */\n      swap1\n      pop\n        /* \"@openzeppelin/contracts/security/Pausable.sol\":1615:1699  function paused() public view virtual returns (bool) {... */\n      swap1\n      jump\t// out\n        /* \"playversestaking.sol\":586:617  uint256 public timeout = 1 days */\n    tag_48:\n      sload(0x04)\n      dup2\n      jump\t// out\n        /* \"@openzeppelin/contracts/access/Ownable.sol\":2293:2394  function renounceOwnership() public virtual onlyOwner {... */\n    tag_52:\n        /* \"@openzeppelin/contracts/access/Ownable.sol\":1531:1544  _checkOwner() */\n      tag_134\n        /* \"@openzeppelin/contracts/access/Ownable.sol\":1531:1542  _checkOwner */\n      tag_108\n        /* \"@openzeppelin/contracts/access/Ownable.sol\":1531:1544  _checkOwner() */\n      jump\t// in\n    tag_134:\n        /* \"@openzeppelin/contracts/access/Ownable.sol\":2357:2387  _transferOwnership(address(0)) */\n      tag_136\n        /* \"@openzeppelin/contracts/access/Ownable.sol\":2384:2385  0 */\n      0x00\n        /* \"@openzeppelin/contracts/access/Ownable.sol\":2357:2375  _transferOwnership */\n      tag_137\n        /* \"@openzeppelin/contracts/access/Ownable.sol\":2357:2387  _transferOwnership(address(0)) */\n      jump\t// in\n    tag_136:\n        /* \"@openzeppelin/contracts/access/Ownable.sol\":2293:2394  function renounceOwnership() public virtual onlyOwner {... */\n      jump\t// out\n        /* \"playversestaking.sol\":4341:4528  function setFeeBps(uint256 _feeBps) external onlyOwner {... */\n    tag_57:\n        /* \"@openzeppelin/contracts/access/Ownable.sol\":1531:1544  _checkOwner() */\n      tag_139\n        /* \"@openzeppelin/contracts/access/Ownable.sol\":1531:1542  _checkOwner */\n      tag_108\n        /* \"@openzeppelin/contracts/access/Ownable.sol\":1531:1544  _checkOwner() */\n      jump\t// in\n    tag_139:\n        /* \"playversestaking.sol\":4426:4430  1000 */\n      0x03e8\n        /* \"playversestaking.sol\":4415:4422  _feeBps */\n      dup2\n        /* \"playversestaking.sol\":4415:4430  _feeBps <= 1000 */\n      gt\n      iszero\n        /* \"playversestaking.sol\":4407:4458  require(_feeBps <= 1000, \"Fee too large (max 10%)\") */\n      tag_141\n      jumpi\n      mload(0x40)\n      0x08c379a000000000000000000000000000000000000000000000000000000000\n      dup2\n      mstore\n      0x04\n      add\n      tag_142\n      swap1\n      tag_143\n      jump\t// in\n    tag_142:\n      mload(0x40)\n      dup1\n      swap2\n      sub\n      swap1\n      revert\n    tag_141:\n        /* \"playversestaking.sol\":4478:4485  _feeBps */\n      dup1\n        /* \"playversestaking.sol\":4469:4475  feeBps */\n      0x03\n        /* \"playversestaking.sol\":4469:4485  feeBps = _feeBps */\n      dup2\n      swap1\n      sstore\n      pop\n        /* \"playversestaking.sol\":4501:4520  FeeUpdated(_feeBps) */\n      0x8c4d35e54a3f2ef1134138fd8ea3daee6a3c89e10d2665996babdf70261e2c76\n        /* \"playversestaking.sol\":4512:4519  _feeBps */\n      dup2\n        /* \"playversestaking.sol\":4501:4520  FeeUpdated(_feeBps) */\n      mload(0x40)\n      tag_144\n      swap2\n      swap1\n      tag_37\n      jump\t// in\n    tag_144:\n      mload(0x40)\n      dup1\n      swap2\n      sub\n      swap1\n      log1\n        /* \"playversestaking.sol\":4341:4528  function setFeeBps(uint256 _feeBps) external onlyOwner {... */\n      pop\n      jump\t// out\n        /* \"playversestaking.sol\":3212:3812  function refundStake(bytes32 gameId) external nonReentrant {... */\n    tag_62:\n        /* \"@openzeppelin/contracts/security/ReentrancyGuard.sol\":2261:2282  _nonReentrantBefore() */\n      tag_146\n        /* \"@openzeppelin/contracts/security/ReentrancyGuard.sol\":2261:2280  _nonReentrantBefore */\n      tag_111\n        /* \"@openzeppelin/contracts/security/ReentrancyGuard.sol\":2261:2282  _nonReentrantBefore() */\n      jump\t// in\n    tag_146:\n        /* \"playversestaking.sol\":3282:3301  Stake storage stake */\n      0x00\n        /* \"playversestaking.sol\":3304:3310  stakes */\n      0x05\n        /* \"playversestaking.sol\":3304:3318  stakes[gameId] */\n      0x00\n        /* \"playversestaking.sol\":3311:3317  gameId */\n      dup4\n        /* \"playversestaking.sol\":3304:3318  stakes[gameId] */\n      dup2\n      mstore\n      0x20\n      add\n      swap1\n      dup2\n      mstore\n      0x20\n      add\n      0x00\n      keccak256\n        /* \"playversestaking.sol\":3282:3318  Stake storage stake = stakes[gameId] */\n      swap1\n      pop\n        /* \"playversestaking.sol\":3361:3362  0 */\n      0x00\n        /* \"playversestaking.sol\":3337:3363  stake.player != address(0) */\n      0xffffffffffffffffffffffffffffffffffffffff\n      and\n        /* \"playversestaking.sol\":3337:3342  stake */\n      dup2\n        /* \"playversestaking.sol\":3337:3349  stake.player */\n      0x00\n      add\n      0x00\n      swap1\n      sload\n      swap1\n      0x0100\n      exp\n      swap1\n      div\n      0xffffffffffffffffffffffffffffffffffffffff\n      and\n        /* \"playversestaking.sol\":3337:3363  stake.player != address(0) */\n      0xffffffffffffffffffffffffffffffffffffffff\n      and\n      sub\n        /* \"playversestaking.sol\":3329:3383  require(stake.player != address(0), \"No stake exists\") */\n      tag_148\n      jumpi\n      mload(0x40)\n      0x08c379a000000000000000000000000000000000000000000000000000000000\n      dup2\n      mstore\n      0x04\n      add\n      tag_149\n      swap1\n      tag_150\n      jump\t// in\n    tag_149:\n      mload(0x40)\n      dup1\n      swap2\n      sub\n      swap1\n      revert\n    tag_148:\n        /* \"playversestaking.sol\":3403:3408  stake */\n      dup1\n        /* \"playversestaking.sol\":3403:3416  stake.claimed */\n      0x03\n      add\n      0x00\n      swap1\n      sload\n      swap1\n      0x0100\n      exp\n      swap1\n      div\n      0xff\n      and\n        /* \"playversestaking.sol\":3402:3416  !stake.claimed */\n      iszero\n        /* \"playversestaking.sol\":3394:3442  require(!stake.claimed, \"Stake already claimed\") */\n      tag_151\n      jumpi\n      mload(0x40)\n      0x08c379a000000000000000000000000000000000000000000000000000000000\n      dup2\n      mstore\n      0x04\n      add\n      tag_152\n      swap1\n      tag_153\n      jump\t// in\n    tag_152:\n      mload(0x40)\n      dup1\n      swap2\n      sub\n      swap1\n      revert\n    tag_151:\n        /* \"playversestaking.sol\":3475:3480  stake */\n      dup1\n        /* \"playversestaking.sol\":3475:3487  stake.player */\n      0x00\n      add\n      0x00\n      swap1\n      sload\n      swap1\n      0x0100\n      exp\n      swap1\n      div\n      0xffffffffffffffffffffffffffffffffffffffff\n      and\n        /* \"playversestaking.sol\":3461:3487  msg.sender == stake.player */\n      0xffffffffffffffffffffffffffffffffffffffff\n      and\n        /* \"playversestaking.sol\":3461:3471  msg.sender */\n      caller\n        /* \"playversestaking.sol\":3461:3487  msg.sender == stake.player */\n      0xffffffffffffffffffffffffffffffffffffffff\n      and\n      eq\n        /* \"playversestaking.sol\":3453:3506  require(msg.sender == stake.player, \"Not the staker\") */\n      tag_154\n      jumpi\n      mload(0x40)\n      0x08c379a000000000000000000000000000000000000000000000000000000000\n      dup2\n      mstore\n      0x04\n      add\n      tag_155\n      swap1\n      tag_156\n      jump\t// in\n    tag_155:\n      mload(0x40)\n      dup1\n      swap2\n      sub\n      swap1\n      revert\n    tag_154:\n        /* \"playversestaking.sol\":3562:3569  timeout */\n      sload(0x04)\n        /* \"playversestaking.sol\":3544:3549  stake */\n      dup2\n        /* \"playversestaking.sol\":3544:3559  stake.timestamp */\n      0x02\n      add\n      sload\n        /* \"playversestaking.sol\":3544:3569  stake.timestamp + timeout */\n      tag_157\n      swap2\n      swap1\n      tag_158\n      jump\t// in\n    tag_157:\n        /* \"playversestaking.sol\":3525:3540  block.timestamp */\n      timestamp\n        /* \"playversestaking.sol\":3525:3569  block.timestamp >= stake.timestamp + timeout */\n      lt\n      iszero\n        /* \"playversestaking.sol\":3517:3590  require(block.timestamp >= stake.timestamp + timeout, \"Refund too early\") */\n      tag_159\n      jumpi\n      mload(0x40)\n      0x08c379a000000000000000000000000000000000000000000000000000000000\n      dup2\n      mstore\n      0x04\n      add\n      tag_160\n      swap1\n      tag_161\n      jump\t// in\n    tag_160:\n      mload(0x40)\n      dup1\n      swap2\n      sub\n      swap1\n      revert\n    tag_159:\n        /* \"playversestaking.sol\":3619:3623  true */\n      0x01\n        /* \"playversestaking.sol\":3603:3608  stake */\n      dup2\n        /* \"playversestaking.sol\":3603:3616  stake.claimed */\n      0x03\n      add\n      0x00\n        /* \"playversestaking.sol\":3603:3623  stake.claimed = true */\n      0x0100\n      exp\n      dup2\n      sload\n      dup2\n      0xff\n      mul\n      not\n      and\n      swap1\n      dup4\n      iszero\n      iszero\n      mul\n      or\n      swap1\n      sstore\n      pop\n        /* \"playversestaking.sol\":3635:3644  bool sent */\n      0x00\n        /* \"playversestaking.sol\":3650:3655  stake */\n      dup2\n        /* \"playversestaking.sol\":3650:3662  stake.player */\n      0x00\n      add\n      0x00\n      swap1\n      sload\n      swap1\n      0x0100\n      exp\n      swap1\n      div\n      0xffffffffffffffffffffffffffffffffffffffff\n      and\n        /* \"playversestaking.sol\":3650:3667  stake.player.call */\n      0xffffffffffffffffffffffffffffffffffffffff\n      and\n        /* \"playversestaking.sol\":3675:3680  stake */\n      dup3\n        /* \"playversestaking.sol\":3675:3687  stake.amount */\n      0x01\n      add\n      sload\n        /* \"playversestaking.sol\":3650:3692  stake.player.call{value: stake.amount}(\"\") */\n      mload(0x40)\n      tag_162\n      swap1\n      tag_117\n      jump\t// in\n    tag_162:\n      0x00\n      mload(0x40)\n      dup1\n      dup4\n      sub\n      dup2\n      dup6\n      dup8\n      gas\n      call\n      swap3\n      pop\n      pop\n      pop\n      returndatasize\n      dup1\n      0x00\n      dup2\n      eq\n      tag_165\n      jumpi\n      mload(0x40)\n      swap2\n      pop\n      and(add(returndatasize, 0x3f), not(0x1f))\n      dup3\n      add\n      0x40\n      mstore\n      returndatasize\n      dup3\n      mstore\n      returndatasize\n      0x00\n      0x20\n      dup5\n      add\n      returndatacopy\n      jump(tag_164)\n    tag_165:\n      0x60\n      swap2\n      pop\n    tag_164:\n      pop\n        /* \"playversestaking.sol\":3634:3692  (bool sent, ) = stake.player.call{value: stake.amount}(\"\") */\n      pop\n      swap1\n      pop\n        /* \"playversestaking.sol\":3711:3715  sent */\n      dup1\n        /* \"playversestaking.sol\":3703:3742  require(sent, \"Refund transfer failed\") */\n      tag_166\n      jumpi\n      mload(0x40)\n      0x08c379a000000000000000000000000000000000000000000000000000000000\n      dup2\n      mstore\n      0x04\n      add\n      tag_167\n      swap1\n      tag_168\n      jump\t// in\n    tag_167:\n      mload(0x40)\n      dup1\n      swap2\n      sub\n      swap1\n      revert\n    tag_166:\n        /* \"playversestaking.sol\":3777:3782  stake */\n      dup2\n        /* \"playversestaking.sol\":3777:3789  stake.player */\n      0x00\n      add\n      0x00\n      swap1\n      sload\n      swap1\n      0x0100\n      exp\n      swap1\n      div\n      0xffffffffffffffffffffffffffffffffffffffff\n      and\n        /* \"playversestaking.sol\":3760:3804  Refunded(gameId, stake.player, stake.amount) */\n      0xffffffffffffffffffffffffffffffffffffffff\n      and\n        /* \"playversestaking.sol\":3769:3775  gameId */\n      dup4\n        /* \"playversestaking.sol\":3760:3804  Refunded(gameId, stake.player, stake.amount) */\n      0xf552ca82e113ac3c539c3d617f29fcd19c172a0c75dad017555c9e109f7fe183\n        /* \"playversestaking.sol\":3791:3796  stake */\n      dup5\n        /* \"playversestaking.sol\":3791:3803  stake.amount */\n      0x01\n      add\n      sload\n        /* \"playversestaking.sol\":3760:3804  Refunded(gameId, stake.player, stake.amount) */\n      mload(0x40)\n      tag_169\n      swap2\n      swap1\n      tag_37\n      jump\t// in\n    tag_169:\n      mload(0x40)\n      dup1\n      swap2\n      sub\n      swap1\n      log3\n        /* \"playversestaking.sol\":3271:3812  {... */\n      pop\n      pop\n        /* \"@openzeppelin/contracts/security/ReentrancyGuard.sol\":2303:2323  _nonReentrantAfter() */\n      tag_170\n        /* \"@openzeppelin/contracts/security/ReentrancyGuard.sol\":2303:2321  _nonReentrantAfter */\n      tag_126\n        /* \"@openzeppelin/contracts/security/ReentrancyGuard.sol\":2303:2323  _nonReentrantAfter() */\n      jump\t// in\n    tag_170:\n        /* \"playversestaking.sol\":3212:3812  function refundStake(bytes32 gameId) external nonReentrant {... */\n      pop\n      jump\t// out\n        /* \"playversestaking.sol\":4678:4741  function pause() external onlyOwner {... */\n    tag_65:\n        /* \"@openzeppelin/contracts/access/Ownable.sol\":1531:1544  _checkOwner() */\n      tag_172\n        /* \"@openzeppelin/contracts/access/Ownable.sol\":1531:1542  _checkOwner */\n      tag_108\n        /* \"@openzeppelin/contracts/access/Ownable.sol\":1531:1544  _checkOwner() */\n      jump\t// in\n    tag_172:\n        /* \"playversestaking.sol\":4725:4733  _pause() */\n      tag_174\n        /* \"playversestaking.sol\":4725:4731  _pause */\n      tag_175\n        /* \"playversestaking.sol\":4725:4733  _pause() */\n      jump\t// in\n    tag_174:\n        /* \"playversestaking.sol\":4678:4741  function pause() external onlyOwner {... */\n      jump\t// out\n        /* \"@openzeppelin/contracts/access/Ownable.sol\":1638:1723  function owner() public view virtual returns (address) {... */\n    tag_68:\n        /* \"@openzeppelin/contracts/access/Ownable.sol\":1684:1691  address */\n      0x00\n        /* \"@openzeppelin/contracts/access/Ownable.sol\":1710:1716  _owner */\n      dup1\n      0x00\n      swap1\n      sload\n      swap1\n      0x0100\n      exp\n      swap1\n      div\n      0xffffffffffffffffffffffffffffffffffffffff\n      and\n        /* \"@openzeppelin/contracts/access/Ownable.sol\":1703:1716  return _owner */\n      swap1\n      pop\n        /* \"@openzeppelin/contracts/access/Ownable.sol\":1638:1723  function owner() public view virtual returns (address) {... */\n      swap1\n      jump\t// out\n        /* \"playversestaking.sol\":787:826  mapping(bytes32 => Stake) public stakes */\n    tag_74:\n      mstore(0x20, 0x05)\n      dup1\n      0x00\n      mstore\n      keccak256(0x00, 0x40)\n      0x00\n      swap2\n      pop\n      swap1\n      pop\n      dup1\n      0x00\n      add\n      0x00\n      swap1\n      sload\n      swap1\n      0x0100\n      exp\n      swap1\n      div\n      0xffffffffffffffffffffffffffffffffffffffff\n      and\n      swap1\n      dup1\n      0x01\n      add\n      sload\n      swap1\n      dup1\n      0x02\n      add\n      sload\n      swap1\n      dup1\n      0x03\n      add\n      0x00\n      swap1\n      sload\n      swap1\n      0x0100\n      exp\n      swap1\n      div\n      0xff\n      and\n      swap1\n      pop\n      dup5\n      jump\t// out\n        /* \"playversestaking.sol\":380:425  uint256 public constant CELO_STAKE_WEI = 1e18 */\n    tag_79:\n        /* \"playversestaking.sol\":421:425  1e18 */\n      0x0de0b6b3a7640000\n        /* \"playversestaking.sol\":380:425  uint256 public constant CELO_STAKE_WEI = 1e18 */\n      dup2\n      jump\t// out\n        /* \"playversestaking.sol\":4536:4670  function setTimeout(uint256 _timeout) external onlyOwner {... */\n    tag_84:\n        /* \"@openzeppelin/contracts/access/Ownable.sol\":1531:1544  _checkOwner() */\n      tag_178\n        /* \"@openzeppelin/contracts/access/Ownable.sol\":1531:1542  _checkOwner */\n      tag_108\n        /* \"@openzeppelin/contracts/access/Ownable.sol\":1531:1544  _checkOwner() */\n      jump\t// in\n    tag_178:\n        /* \"playversestaking.sol\":4614:4622  _timeout */\n      dup1\n        /* \"playversestaking.sol\":4604:4611  timeout */\n      0x04\n        /* \"playversestaking.sol\":4604:4622  timeout = _timeout */\n      dup2\n      swap1\n      sstore\n      pop\n        /* \"playversestaking.sol\":4638:4662  TimeoutUpdated(_timeout) */\n      0x1a1cd30e223035d872019b55a16a88e0fad18aac07397d463628bf771cc10b94\n        /* \"playversestaking.sol\":4653:4661  _timeout */\n      dup2\n        /* \"playversestaking.sol\":4638:4662  TimeoutUpdated(_timeout) */\n      mload(0x40)\n      tag_180\n      swap2\n      swap1\n      tag_37\n      jump\t// in\n    tag_180:\n      mload(0x40)\n      dup1\n      swap2\n      sub\n      swap1\n      log1\n        /* \"playversestaking.sol\":4536:4670  function setTimeout(uint256 _timeout) external onlyOwner {... */\n      pop\n      jump\t// out\n        /* \"playversestaking.sol\":306:360  uint256 public constant BASE_STAKE_WEI = 1_000_000_000 */\n    tag_87:\n        /* \"playversestaking.sol\":347:360  1_000_000_000 */\n      0x3b9aca00\n        /* \"playversestaking.sol\":306:360  uint256 public constant BASE_STAKE_WEI = 1_000_000_000 */\n      dup2\n      jump\t// out\n        /* \"playversestaking.sol\":1533:2044  function placeStake(bytes32 gameId) external payable whenNotPaused nonReentrant {... */\n    tag_91:\n        /* \"@openzeppelin/contracts/security/Pausable.sol\":1239:1258  _requireNotPaused() */\n      tag_182\n        /* \"@openzeppelin/contracts/security/Pausable.sol\":1239:1256  _requireNotPaused */\n      tag_183\n        /* \"@openzeppelin/contracts/security/Pausable.sol\":1239:1258  _requireNotPaused() */\n      jump\t// in\n    tag_182:\n        /* \"@openzeppelin/contracts/security/ReentrancyGuard.sol\":2261:2282  _nonReentrantBefore() */\n      tag_185\n        /* \"@openzeppelin/contracts/security/ReentrancyGuard.sol\":2261:2280  _nonReentrantBefore */\n      tag_111\n        /* \"@openzeppelin/contracts/security/ReentrancyGuard.sol\":2261:2282  _nonReentrantBefore() */\n      jump\t// in\n    tag_185:\n        /* \"playversestaking.sol\":1665:1666  0 */\n      0x00\n        /* \"playversestaking.sol\":1632:1667  stakes[gameId].player == address(0) */\n      0xffffffffffffffffffffffffffffffffffffffff\n      and\n        /* \"playversestaking.sol\":1632:1638  stakes */\n      0x05\n        /* \"playversestaking.sol\":1632:1646  stakes[gameId] */\n      0x00\n        /* \"playversestaking.sol\":1639:1645  gameId */\n      dup4\n        /* \"playversestaking.sol\":1632:1646  stakes[gameId] */\n      dup2\n      mstore\n      0x20\n      add\n      swap1\n      dup2\n      mstore\n      0x20\n      add\n      0x00\n      keccak256\n        /* \"playversestaking.sol\":1632:1653  stakes[gameId].player */\n      0x00\n      add\n      0x00\n      swap1\n      sload\n      swap1\n      0x0100\n      exp\n      swap1\n      div\n      0xffffffffffffffffffffffffffffffffffffffff\n      and\n        /* \"playversestaking.sol\":1632:1667  stakes[gameId].player == address(0) */\n      0xffffffffffffffffffffffffffffffffffffffff\n      and\n      eq\n        /* \"playversestaking.sol\":1624:1691  require(stakes[gameId].player == address(0), \"Game already staked\") */\n      tag_187\n      jumpi\n      mload(0x40)\n      0x08c379a000000000000000000000000000000000000000000000000000000000\n      dup2\n      mstore\n      0x04\n      add\n      tag_188\n      swap1\n      tag_189\n      jump\t// in\n    tag_188:\n      mload(0x40)\n      dup1\n      swap2\n      sub\n      swap1\n      revert\n    tag_187:\n        /* \"playversestaking.sol\":347:360  1_000_000_000 */\n      0x3b9aca00\n        /* \"playversestaking.sol\":1710:1719  msg.value */\n      callvalue\n        /* \"playversestaking.sol\":1710:1737  msg.value == BASE_STAKE_WEI */\n      eq\n        /* \"playversestaking.sol\":1710:1768  msg.value == BASE_STAKE_WEI || msg.value == CELO_STAKE_WEI */\n      dup1\n      tag_190\n      jumpi\n      pop\n        /* \"playversestaking.sol\":421:425  1e18 */\n      0x0de0b6b3a7640000\n        /* \"playversestaking.sol\":1741:1750  msg.value */\n      callvalue\n        /* \"playversestaking.sol\":1741:1768  msg.value == CELO_STAKE_WEI */\n      eq\n        /* \"playversestaking.sol\":1710:1768  msg.value == BASE_STAKE_WEI || msg.value == CELO_STAKE_WEI */\n    tag_190:\n        /* \"playversestaking.sol\":1702:1793  require(msg.value == BASE_STAKE_WEI || msg.value == CELO_STAKE_WEI, \"Invalid stake amount\") */\n      tag_191\n      jumpi\n      mload(0x40)\n      0x08c379a000000000000000000000000000000000000000000000000000000000\n      dup2\n      mstore\n      0x04\n      add\n      tag_192\n      swap1\n      tag_193\n      jump\t// in\n    tag_192:\n      mload(0x40)\n      dup1\n      swap2\n      sub\n      swap1\n      revert\n    tag_191:\n        /* \"playversestaking.sol\":1823:1976  Stake({... */\n      mload(0x40)\n      dup1\n      0x80\n      add\n      0x40\n      mstore\n      dup1\n        /* \"playversestaking.sol\":1852:1862  msg.sender */\n      caller\n        /* \"playversestaking.sol\":1823:1976  Stake({... */\n      0xffffffffffffffffffffffffffffffffffffffff\n      and\n      dup2\n      mstore\n      0x20\n      add\n        /* \"playversestaking.sol\":1885:1894  msg.value */\n      callvalue\n        /* \"playversestaking.sol\":1823:1976  Stake({... */\n      dup2\n      mstore\n      0x20\n      add\n        /* \"playversestaking.sol\":1920:1935  block.timestamp */\n      timestamp\n        /* \"playversestaking.sol\":1823:1976  Stake({... */\n      dup2\n      mstore\n      0x20\n      add\n        /* \"playversestaking.sol\":1959:1964  false */\n      0x00\n        /* \"playversestaking.sol\":1823:1976  Stake({... */\n      iszero\n      iszero\n      dup2\n      mstore\n      pop\n        /* \"playversestaking.sol\":1806:1812  stakes */\n      0x05\n        /* \"playversestaking.sol\":1806:1820  stakes[gameId] */\n      0x00\n        /* \"playversestaking.sol\":1813:1819  gameId */\n      dup4\n        /* \"playversestaking.sol\":1806:1820  stakes[gameId] */\n      dup2\n      mstore\n      0x20\n      add\n      swap1\n      dup2\n      mstore\n      0x20\n      add\n      0x00\n      keccak256\n        /* \"playversestaking.sol\":1806:1976  stakes[gameId] = Stake({... */\n      0x00\n      dup3\n      add\n      mload\n      dup2\n      0x00\n      add\n      exp(0x0100, 0x00)\n      dup2\n      sload\n      dup2\n      0xffffffffffffffffffffffffffffffffffffffff\n      mul\n      not\n      and\n      swap1\n      dup4\n      0xffffffffffffffffffffffffffffffffffffffff\n      and\n      mul\n      or\n      swap1\n      sstore\n      pop\n      0x20\n      dup3\n      add\n      mload\n      dup2\n      0x01\n      add\n      sstore\n      0x40\n      dup3\n      add\n      mload\n      dup2\n      0x02\n      add\n      sstore\n      0x60\n      dup3\n      add\n      mload\n      dup2\n      0x03\n      add\n      exp(0x0100, 0x00)\n      dup2\n      sload\n      dup2\n      0xff\n      mul\n      not\n      and\n      swap1\n      dup4\n      iszero\n      iszero\n      mul\n      or\n      swap1\n      sstore\n      pop\n      swap1\n      pop\n      pop\n        /* \"playversestaking.sol\":2014:2024  msg.sender */\n      caller\n        /* \"playversestaking.sol\":1994:2036  StakePlaced(gameId, msg.sender, msg.value) */\n      0xffffffffffffffffffffffffffffffffffffffff\n      and\n        /* \"playversestaking.sol\":2006:2012  gameId */\n      dup2\n        /* \"playversestaking.sol\":1994:2036  StakePlaced(gameId, msg.sender, msg.value) */\n      0x4807bf3675dd96fef3e347de4b9e59f83bcd89cfce47c61b4951deb6096e5179\n        /* \"playversestaking.sol\":2026:2035  msg.value */\n      callvalue\n        /* \"playversestaking.sol\":1994:2036  StakePlaced(gameId, msg.sender, msg.value) */\n      mload(0x40)\n      tag_194\n      swap2\n      swap1\n      tag_37\n      jump\t// in\n    tag_194:\n      mload(0x40)\n      dup1\n      swap2\n      sub\n      swap1\n      log3\n        /* \"@openzeppelin/contracts/security/ReentrancyGuard.sol\":2303:2323  _nonReentrantAfter() */\n      tag_195\n        /* \"@openzeppelin/contracts/security/ReentrancyGuard.sol\":2303:2321  _nonReentrantAfter */\n      tag_126\n        /* \"@openzeppelin/contracts/security/ReentrancyGuard.sol\":2303:2323  _nonReentrantAfter() */\n      jump\t// in\n    tag_195:\n        /* \"playversestaking.sol\":1533:2044  function placeStake(bytes32 gameId) external payable whenNotPaused nonReentrant {... */\n      pop\n      jump\t// out\n        /* \"@openzeppelin/contracts/access/Ownable.sol\":2543:2758  function transferOwnership(address newOwner) public virtual onlyOwner {... */\n    tag_96:\n        /* \"@openzeppelin/contracts/access/Ownable.sol\":1531:1544  _checkOwner() */\n      tag_197\n        /* \"@openzeppelin/contracts/access/Ownable.sol\":1531:1542  _checkOwner */\n      tag_108\n        /* \"@openzeppelin/contracts/access/Ownable.sol\":1531:1544  _checkOwner() */\n      jump\t// in\n    tag_197:\n        /* \"@openzeppelin/contracts/access/Ownable.sol\":2647:2648  0 */\n      0x00\n        /* \"@openzeppelin/contracts/access/Ownable.sol\":2627:2649  newOwner == address(0) */\n      0xffffffffffffffffffffffffffffffffffffffff\n      and\n        /* \"@openzeppelin/contracts/access/Ownable.sol\":2627:2635  newOwner */\n      dup2\n        /* \"@openzeppelin/contracts/access/Ownable.sol\":2627:2649  newOwner == address(0) */\n      0xffffffffffffffffffffffffffffffffffffffff\n      and\n      sub\n        /* \"@openzeppelin/contracts/access/Ownable.sol\":2623:2714  if (newOwner == address(0)) {... */\n      tag_199\n      jumpi\n        /* \"@openzeppelin/contracts/access/Ownable.sol\":2700:2701  0 */\n      0x00\n        /* \"@openzeppelin/contracts/access/Ownable.sol\":2672:2703  OwnableInvalidOwner(address(0)) */\n      mload(0x40)\n      0x1e4fbdf700000000000000000000000000000000000000000000000000000000\n      dup2\n      mstore\n      0x04\n      add\n      tag_200\n      swap2\n      swap1\n      tag_70\n      jump\t// in\n    tag_200:\n      mload(0x40)\n      dup1\n      swap2\n      sub\n      swap1\n      revert\n        /* \"@openzeppelin/contracts/access/Ownable.sol\":2623:2714  if (newOwner == address(0)) {... */\n    tag_199:\n        /* \"@openzeppelin/contracts/access/Ownable.sol\":2723:2751  _transferOwnership(newOwner) */\n      tag_201\n        /* \"@openzeppelin/contracts/access/Ownable.sol\":2742:2750  newOwner */\n      dup2\n        /* \"@openzeppelin/contracts/access/Ownable.sol\":2723:2741  _transferOwnership */\n      tag_137\n        /* \"@openzeppelin/contracts/access/Ownable.sol\":2723:2751  _transferOwnership(newOwner) */\n      jump\t// in\n    tag_201:\n        /* \"@openzeppelin/contracts/access/Ownable.sol\":2543:2758  function transferOwnership(address newOwner) public virtual onlyOwner {... */\n      pop\n      jump\t// out\n        /* \"playversestaking.sol\":2319:3068  function resolveGame(bytes32 gameId, bool playerWon) external onlyOwner nonReentrant {... */\n    tag_101:\n        /* \"@openzeppelin/contracts/access/Ownable.sol\":1531:1544  _checkOwner() */\n      tag_203\n        /* \"@openzeppelin/contracts/access/Ownable.sol\":1531:1542  _checkOwner */\n      tag_108\n        /* \"@openzeppelin/contracts/access/Ownable.sol\":1531:1544  _checkOwner() */\n      jump\t// in\n    tag_203:\n        /* \"@openzeppelin/contracts/security/ReentrancyGuard.sol\":2261:2282  _nonReentrantBefore() */\n      tag_205\n        /* \"@openzeppelin/contracts/security/ReentrancyGuard.sol\":2261:2280  _nonReentrantBefore */\n      tag_111\n        /* \"@openzeppelin/contracts/security/ReentrancyGuard.sol\":2261:2282  _nonReentrantBefore() */\n      jump\t// in\n    tag_205:\n        /* \"playversestaking.sol\":2415:2434  Stake storage stake */\n      0x00\n        /* \"playversestaking.sol\":2437:2443  stakes */\n      0x05\n        /* \"playversestaking.sol\":2437:2451  stakes[gameId] */\n      0x00\n        /* \"playversestaking.sol\":2444:2450  gameId */\n      dup5\n        /* \"playversestaking.sol\":2437:2451  stakes[gameId] */\n      dup2\n      mstore\n      0x20\n      add\n      swap1\n      dup2\n      mstore\n      0x20\n      add\n      0x00\n      keccak256\n        /* \"playversestaking.sol\":2415:2451  Stake storage stake = stakes[gameId] */\n      swap1\n      pop\n        /* \"playversestaking.sol\":2494:2495  0 */\n      0x00\n        /* \"playversestaking.sol\":2470:2496  stake.player != address(0) */\n      0xffffffffffffffffffffffffffffffffffffffff\n      and\n        /* \"playversestaking.sol\":2470:2475  stake */\n      dup2\n        /* \"playversestaking.sol\":2470:2482  stake.player */\n      0x00\n      add\n      0x00\n      swap1\n      sload\n      swap1\n      0x0100\n      exp\n      swap1\n      div\n      0xffffffffffffffffffffffffffffffffffffffff\n      and\n        /* \"playversestaking.sol\":2470:2496  stake.player != address(0) */\n      0xffffffffffffffffffffffffffffffffffffffff\n      and\n      sub\n        /* \"playversestaking.sol\":2462:2516  require(stake.player != address(0), \"No stake exists\") */\n      tag_207\n      jumpi\n      mload(0x40)\n      0x08c379a000000000000000000000000000000000000000000000000000000000\n      dup2\n      mstore\n      0x04\n      add\n      tag_208\n      swap1\n      tag_150\n      jump\t// in\n    tag_208:\n      mload(0x40)\n      dup1\n      swap2\n      sub\n      swap1\n      revert\n    tag_207:\n        /* \"playversestaking.sol\":2536:2541  stake */\n      dup1\n        /* \"playversestaking.sol\":2536:2549  stake.claimed */\n      0x03\n      add\n      0x00\n      swap1\n      sload\n      swap1\n      0x0100\n      exp\n      swap1\n      div\n      0xff\n      and\n        /* \"playversestaking.sol\":2535:2549  !stake.claimed */\n      iszero\n        /* \"playversestaking.sol\":2527:2575  require(!stake.claimed, \"Stake already claimed\") */\n      tag_209\n      jumpi\n      mload(0x40)\n      0x08c379a000000000000000000000000000000000000000000000000000000000\n      dup2\n      mstore\n      0x04\n      add\n      tag_210\n      swap1\n      tag_153\n      jump\t// in\n    tag_210:\n      mload(0x40)\n      dup1\n      swap2\n      sub\n      swap1\n      revert\n    tag_209:\n        /* \"playversestaking.sol\":2604:2608  true */\n      0x01\n        /* \"playversestaking.sol\":2588:2593  stake */\n      dup2\n        /* \"playversestaking.sol\":2588:2601  stake.claimed */\n      0x03\n      add\n      0x00\n        /* \"playversestaking.sol\":2588:2608  stake.claimed = true */\n      0x0100\n      exp\n      dup2\n      sload\n      dup2\n      0xff\n      mul\n      not\n      and\n      swap1\n      dup4\n      iszero\n      iszero\n      mul\n      or\n      swap1\n      sstore\n      pop\n        /* \"playversestaking.sol\":2619:2630  uint256 fee */\n      0x00\n        /* \"playversestaking.sol\":547:553  10_000 */\n      0x2710\n        /* \"playversestaking.sol\":2649:2655  feeBps */\n      sload(0x03)\n        /* \"playversestaking.sol\":2634:2639  stake */\n      dup4\n        /* \"playversestaking.sol\":2634:2646  stake.amount */\n      0x01\n      add\n      sload\n        /* \"playversestaking.sol\":2634:2655  stake.amount * feeBps */\n      tag_211\n      swap2\n      swap1\n      tag_212\n      jump\t// in\n    tag_211:\n        /* \"playversestaking.sol\":2633:2666  (stake.amount * feeBps) / MAX_BPS */\n      tag_213\n      swap2\n      swap1\n      tag_214\n      jump\t// in\n    tag_213:\n        /* \"playversestaking.sol\":2619:2666  uint256 fee = (stake.amount * feeBps) / MAX_BPS */\n      swap1\n      pop\n        /* \"playversestaking.sol\":2677:2691  uint256 payout */\n      0x00\n        /* \"playversestaking.sol\":2694:2703  playerWon */\n      dup4\n        /* \"playversestaking.sol\":2694:2730  playerWon ? (stake.amount - fee) : 0 */\n      tag_215\n      jumpi\n        /* \"playversestaking.sol\":2729:2730  0 */\n      0x00\n        /* \"playversestaking.sol\":2694:2730  playerWon ? (stake.amount - fee) : 0 */\n      jump(tag_216)\n    tag_215:\n        /* \"playversestaking.sol\":2722:2725  fee */\n      dup2\n        /* \"playversestaking.sol\":2707:2712  stake */\n      dup4\n        /* \"playversestaking.sol\":2707:2719  stake.amount */\n      0x01\n      add\n      sload\n        /* \"playversestaking.sol\":2707:2725  stake.amount - fee */\n      tag_217\n      swap2\n      swap1\n      tag_218\n      jump\t// in\n    tag_217:\n        /* \"playversestaking.sol\":2694:2730  playerWon ? (stake.amount - fee) : 0 */\n    tag_216:\n        /* \"playversestaking.sol\":2677:2730  uint256 payout = playerWon ? (stake.amount - fee) : 0 */\n      swap1\n      pop\n        /* \"playversestaking.sol\":2747:2756  playerWon */\n      dup4\n        /* \"playversestaking.sol\":2743:2985  if (playerWon) {... */\n      iszero\n      tag_219\n      jumpi\n        /* \"playversestaking.sol\":2774:2783  bool sent */\n      0x00\n        /* \"playversestaking.sol\":2789:2794  stake */\n      dup4\n        /* \"playversestaking.sol\":2789:2801  stake.player */\n      0x00\n      add\n      0x00\n      swap1\n      sload\n      swap1\n      0x0100\n      exp\n      swap1\n      div\n      0xffffffffffffffffffffffffffffffffffffffff\n      and\n        /* \"playversestaking.sol\":2789:2806  stake.player.call */\n      0xffffffffffffffffffffffffffffffffffffffff\n      and\n        /* \"playversestaking.sol\":2814:2820  payout */\n      dup3\n        /* \"playversestaking.sol\":2789:2825  stake.player.call{value: payout}(\"\") */\n      mload(0x40)\n      tag_220\n      swap1\n      tag_117\n      jump\t// in\n    tag_220:\n      0x00\n      mload(0x40)\n      dup1\n      dup4\n      sub\n      dup2\n      dup6\n      dup8\n      gas\n      call\n      swap3\n      pop\n      pop\n      pop\n      returndatasize\n      dup1\n      0x00\n      dup2\n      eq\n      tag_223\n      jumpi\n      mload(0x40)\n      swap2\n      pop\n      and(add(returndatasize, 0x3f), not(0x1f))\n      dup3\n      add\n      0x40\n      mstore\n      returndatasize\n      dup3\n      mstore\n      returndatasize\n      0x00\n      0x20\n      dup5\n      add\n      returndatacopy\n      jump(tag_222)\n    tag_223:\n      0x60\n      swap2\n      pop\n    tag_222:\n      pop\n        /* \"playversestaking.sol\":2773:2825  (bool sent, ) = stake.player.call{value: payout}(\"\") */\n      pop\n      swap1\n      pop\n        /* \"playversestaking.sol\":2848:2852  sent */\n      dup1\n        /* \"playversestaking.sol\":2840:2879  require(sent, \"Payout transfer failed\") */\n      tag_224\n      jumpi\n      mload(0x40)\n      0x08c379a000000000000000000000000000000000000000000000000000000000\n      dup2\n      mstore\n      0x04\n      add\n      tag_225\n      swap1\n      tag_226\n      jump\t// in\n    tag_225:\n      mload(0x40)\n      dup1\n      swap2\n      sub\n      swap1\n      revert\n    tag_224:\n        /* \"playversestaking.sol\":2758:2891  {... */\n      pop\n        /* \"playversestaking.sol\":2743:2985  if (playerWon) {... */\n      jump(tag_227)\n    tag_219:\n        /* \"playversestaking.sol\":2918:2923  stake */\n      dup3\n        /* \"playversestaking.sol\":2918:2930  stake.amount */\n      0x01\n      add\n      sload\n        /* \"playversestaking.sol\":2912:2930  fee = stake.amount */\n      swap2\n      pop\n        /* \"playversestaking.sol\":2743:2985  if (playerWon) {... */\n    tag_227:\n        /* \"playversestaking.sol\":3023:3028  stake */\n      dup3\n        /* \"playversestaking.sol\":3023:3035  stake.player */\n      0x00\n      add\n      0x00\n      swap1\n      sload\n      swap1\n      0x0100\n      exp\n      swap1\n      div\n      0xffffffffffffffffffffffffffffffffffffffff\n      and\n        /* \"playversestaking.sol\":3002:3060  GameResolved(gameId, stake.player, playerWon, payout, fee) */\n      0xffffffffffffffffffffffffffffffffffffffff\n      and\n        /* \"playversestaking.sol\":3015:3021  gameId */\n      dup6\n        /* \"playversestaking.sol\":3002:3060  GameResolved(gameId, stake.player, playerWon, payout, fee) */\n      0xf22284b09ae65daf7c31e5e5c8c54582ac8f0971f7bc3d89c3ed4ad4b89df411\n        /* \"playversestaking.sol\":3037:3046  playerWon */\n      dup7\n        /* \"playversestaking.sol\":3048:3054  payout */\n      dup5\n        /* \"playversestaking.sol\":3056:3059  fee */\n      dup7\n        /* \"playversestaking.sol\":3002:3060  GameResolved(gameId, stake.player, playerWon, payout, fee) */\n      mload(0x40)\n      tag_228\n      swap4\n      swap3\n      swap2\n      swap1\n      tag_229\n      jump\t// in\n    tag_228:\n      mload(0x40)\n      dup1\n      swap2\n      sub\n      swap1\n      log3\n        /* \"playversestaking.sol\":2404:3068  {... */\n      pop\n      pop\n      pop\n        /* \"@openzeppelin/contracts/security/ReentrancyGuard.sol\":2303:2323  _nonReentrantAfter() */\n      tag_230\n        /* \"@openzeppelin/contracts/security/ReentrancyGuard.sol\":2303:2321  _nonReentrantAfter */\n      tag_126\n        /* \"@openzeppelin/contracts/security/ReentrancyGuard.sol\":2303:2323  _nonReentrantAfter() */\n      jump\t// in\n    tag_230:\n        /* \"playversestaking.sol\":2319:3068  function resolveGame(bytes32 gameId, bool playerWon) external onlyOwner nonReentrant {... */\n      pop\n      pop\n      jump\t// out\n        /* \"playversestaking.sol\":513:553  uint256 public constant MAX_BPS = 10_000 */\n    tag_104:\n        /* \"playversestaking.sol\":547:553  10_000 */\n      0x2710\n        /* \"playversestaking.sol\":513:553  uint256 public constant MAX_BPS = 10_000 */\n      dup2\n      jump\t// out\n        /* \"@openzeppelin/contracts/access/Ownable.sol\":1796:1958  function _checkOwner() internal view virtual {... */\n    tag_108:\n        /* \"@openzeppelin/contracts/access/Ownable.sol\":1866:1878  _msgSender() */\n      tag_232\n        /* \"@openzeppelin/contracts/access/Ownable.sol\":1866:1876  _msgSender */\n      tag_233\n        /* \"@openzeppelin/contracts/access/Ownable.sol\":1866:1878  _msgSender() */\n      jump\t// in\n    tag_232:\n        /* \"@openzeppelin/contracts/access/Ownable.sol\":1855:1878  owner() != _msgSender() */\n      0xffffffffffffffffffffffffffffffffffffffff\n      and\n        /* \"@openzeppelin/contracts/access/Ownable.sol\":1855:1862  owner() */\n      tag_234\n        /* \"@openzeppelin/contracts/access/Ownable.sol\":1855:1860  owner */\n      tag_68\n        /* \"@openzeppelin/contracts/access/Ownable.sol\":1855:1862  owner() */\n      jump\t// in\n    tag_234:\n        /* \"@openzeppelin/contracts/access/Ownable.sol\":1855:1878  owner() != _msgSender() */\n      0xffffffffffffffffffffffffffffffffffffffff\n      and\n      eq\n        /* \"@openzeppelin/contracts/access/Ownable.sol\":1851:1952  if (owner() != _msgSender()) {... */\n      tag_235\n      jumpi\n        /* \"@openzeppelin/contracts/access/Ownable.sol\":1928:1940  _msgSender() */\n      tag_236\n        /* \"@openzeppelin/contracts/access/Ownable.sol\":1928:1938  _msgSender */\n      tag_233\n        /* \"@openzeppelin/contracts/access/Ownable.sol\":1928:1940  _msgSender() */\n      jump\t// in\n    tag_236:\n        /* \"@openzeppelin/contracts/access/Ownable.sol\":1901:1941  OwnableUnauthorizedAccount(_msgSender()) */\n      mload(0x40)\n      0x118cdaa700000000000000000000000000000000000000000000000000000000\n      dup2\n      mstore\n      0x04\n      add\n      tag_237\n      swap2\n      swap1\n      tag_70\n      jump\t// in\n    tag_237:\n      mload(0x40)\n      dup1\n      swap2\n      sub\n      swap1\n      revert\n        /* \"@openzeppelin/contracts/access/Ownable.sol\":1851:1952  if (owner() != _msgSender()) {... */\n    tag_235:\n        /* \"@openzeppelin/contracts/access/Ownable.sol\":1796:1958  function _checkOwner() internal view virtual {... */\n      jump\t// out\n        /* \"@openzeppelin/contracts/security/ReentrancyGuard.sol\":2336:2623  function _nonReentrantBefore() private {... */\n    tag_111:\n        /* \"@openzeppelin/contracts/security/ReentrancyGuard.sol\":1759:1760  2 */\n      0x02\n        /* \"@openzeppelin/contracts/security/ReentrancyGuard.sol\":2468:2475  _status */\n      sload(0x01)\n        /* \"@openzeppelin/contracts/security/ReentrancyGuard.sol\":2468:2487  _status != _ENTERED */\n      sub\n        /* \"@openzeppelin/contracts/security/ReentrancyGuard.sol\":2460:2523  require(_status != _ENTERED, \"ReentrancyGuard: reentrant call\") */\n      tag_239\n      jumpi\n      mload(0x40)\n      0x08c379a000000000000000000000000000000000000000000000000000000000\n      dup2\n      mstore\n      0x04\n      add\n      tag_240\n      swap1\n      tag_241\n      jump\t// in\n    tag_240:\n      mload(0x40)\n      dup1\n      swap2\n      sub\n      swap1\n      revert\n    tag_239:\n        /* \"@openzeppelin/contracts/security/ReentrancyGuard.sol\":1759:1760  2 */\n      0x02\n        /* \"@openzeppelin/contracts/security/ReentrancyGuard.sol\":2598:2605  _status */\n      0x01\n        /* \"@openzeppelin/contracts/security/ReentrancyGuard.sol\":2598:2616  _status = _ENTERED */\n      dup2\n      swap1\n      sstore\n      pop\n        /* \"@openzeppelin/contracts/security/ReentrancyGuard.sol\":2336:2623  function _nonReentrantBefore() private {... */\n      jump\t// out\n        /* \"@openzeppelin/contracts/security/ReentrancyGuard.sol\":2629:2838  function _nonReentrantAfter() private {... */\n    tag_126:\n        /* \"@openzeppelin/contracts/security/ReentrancyGuard.sol\":1716:1717  1 */\n      0x01\n        /* \"@openzeppelin/contracts/security/ReentrancyGuard.sol\":2809:2816  _status */\n      dup1\n        /* \"@openzeppelin/contracts/security/ReentrancyGuard.sol\":2809:2831  _status = _NOT_ENTERED */\n      dup2\n      swap1\n      sstore\n      pop\n        /* \"@openzeppelin/contracts/security/ReentrancyGuard.sol\":2629:2838  function _nonReentrantAfter() private {... */\n      jump\t// out\n        /* \"@openzeppelin/contracts/security/Pausable.sol\":2433:2550  function _unpause() internal virtual whenPaused {... */\n    tag_131:\n        /* \"@openzeppelin/contracts/security/Pausable.sol\":1486:1502  _requirePaused() */\n      tag_244\n        /* \"@openzeppelin/contracts/security/Pausable.sol\":1486:1500  _requirePaused */\n      tag_245\n        /* \"@openzeppelin/contracts/security/Pausable.sol\":1486:1502  _requirePaused() */\n      jump\t// in\n    tag_244:\n        /* \"@openzeppelin/contracts/security/Pausable.sol\":2501:2506  false */\n      0x00\n        /* \"@openzeppelin/contracts/security/Pausable.sol\":2491:2498  _paused */\n      0x02\n      0x00\n        /* \"@openzeppelin/contracts/security/Pausable.sol\":2491:2506  _paused = false */\n      0x0100\n      exp\n      dup2\n      sload\n      dup2\n      0xff\n      mul\n      not\n      and\n      swap1\n      dup4\n      iszero\n      iszero\n      mul\n      or\n      swap1\n      sstore\n      pop\n        /* \"@openzeppelin/contracts/security/Pausable.sol\":2521:2543  Unpaused(_msgSender()) */\n      0x5db9ee0a495bf2e6ff9c91a7834c1ba4fdd244a5e8aa4e537bd38aeae4b073aa\n        /* \"@openzeppelin/contracts/security/Pausable.sol\":2530:2542  _msgSender() */\n      tag_247\n        /* \"@openzeppelin/contracts/security/Pausable.sol\":2530:2540  _msgSender */\n      tag_233\n        /* \"@openzeppelin/contracts/security/Pausable.sol\":2530:2542  _msgSender() */\n      jump\t// in\n    tag_247:\n        /* \"@openzeppelin/contracts/security/Pausable.sol\":2521:2543  Unpaused(_msgSender()) */\n      mload(0x40)\n      tag_248\n      swap2\n      swap1\n      tag_70\n      jump\t// in\n    tag_248:\n      mload(0x40)\n      dup1\n      swap2\n      sub\n      swap1\n      log1\n        /* \"@openzeppelin/contracts/security/Pausable.sol\":2433:2550  function _unpause() internal virtual whenPaused {... */\n      jump\t// out\n        /* \"@openzeppelin/contracts/access/Ownable.sol\":2912:3099  function _transferOwnership(address newOwner) internal virtual {... */\n    tag_137:\n        /* \"@openzeppelin/contracts/access/Ownable.sol\":2985:3001  address oldOwner */\n      0x00\n        /* \"@openzeppelin/contracts/access/Ownable.sol\":3004:3010  _owner */\n      dup1\n      0x00\n      swap1\n      sload\n      swap1\n      0x0100\n      exp\n      swap1\n      div\n      0xffffffffffffffffffffffffffffffffffffffff\n      and\n        /* \"@openzeppelin/contracts/access/Ownable.sol\":2985:3010  address oldOwner = _owner */\n      swap1\n      pop\n        /* \"@openzeppelin/contracts/access/Ownable.sol\":3029:3037  newOwner */\n      dup2\n        /* \"@openzeppelin/contracts/access/Ownable.sol\":3020:3026  _owner */\n      0x00\n      dup1\n        /* \"@openzeppelin/contracts/access/Ownable.sol\":3020:3037  _owner = newOwner */\n      0x0100\n      exp\n      dup2\n      sload\n      dup2\n      0xffffffffffffffffffffffffffffffffffffffff\n      mul\n      not\n      and\n      swap1\n      dup4\n      0xffffffffffffffffffffffffffffffffffffffff\n      and\n      mul\n      or\n      swap1\n      sstore\n      pop\n        /* \"@openzeppelin/contracts/access/Ownable.sol\":3083:3091  newOwner */\n      dup2\n        /* \"@openzeppelin/contracts/access/Ownable.sol\":3052:3092  OwnershipTransferred(oldOwner, newOwner) */\n      0xffffffffffffffffffffffffffffffffffffffff\n      and\n        /* \"@openzeppelin/contracts/access/Ownable.sol\":3073:3081  oldOwner */\n      dup2\n        /* \"@openzeppelin/contracts/access/Ownable.sol\":3052:3092  OwnershipTransferred(oldOwner, newOwner) */\n      0xffffffffffffffffffffffffffffffffffffffff\n      and\n      0x8be0079c531659141344cd1fd0a4f28419497f9722a3daafe3b4186f6b6457e0\n      mload(0x40)\n      mload(0x40)\n      dup1\n      swap2\n      sub\n      swap1\n      log3\n        /* \"@openzeppelin/contracts/access/Ownable.sol\":2975:3099  {... */\n      pop\n        /* \"@openzeppelin/contracts/access/Ownable.sol\":2912:3099  function _transferOwnership(address newOwner) internal virtual {... */\n      pop\n      jump\t// out\n        /* \"@openzeppelin/contracts/security/Pausable.sol\":2186:2301  function _pause() internal virtual whenNotPaused {... */\n    tag_175:\n        /* \"@openzeppelin/contracts/security/Pausable.sol\":1239:1258  _requireNotPaused() */\n      tag_251\n        /* \"@openzeppelin/contracts/security/Pausable.sol\":1239:1256  _requireNotPaused */\n      tag_183\n        /* \"@openzeppelin/contracts/security/Pausable.sol\":1239:1258  _requireNotPaused() */\n      jump\t// in\n    tag_251:\n        /* \"@openzeppelin/contracts/security/Pausable.sol\":2255:2259  true */\n      0x01\n        /* \"@openzeppelin/contracts/security/Pausable.sol\":2245:2252  _paused */\n      0x02\n      0x00\n        /* \"@openzeppelin/contracts/security/Pausable.sol\":2245:2259  _paused = true */\n      0x0100\n      exp\n      dup2\n      sload\n      dup2\n      0xff\n      mul\n      not\n      and\n      swap1\n      dup4\n      iszero\n      iszero\n      mul\n      or\n      swap1\n      sstore\n      pop\n        /* \"@openzeppelin/contracts/security/Pausable.sol\":2274:2294  Paused(_msgSender()) */\n      0x62e78cea01bee320cd4e420270b5ea74000d11b0c9f74754ebdbfc544b05a258\n        /* \"@openzeppelin/contracts/security/Pausable.sol\":2281:2293  _msgSender() */\n      tag_253\n        /* \"@openzeppelin/contracts/security/Pausable.sol\":2281:2291  _msgSender */\n      tag_233\n        /* \"@openzeppelin/contracts/security/Pausable.sol\":2281:2293  _msgSender() */\n      jump\t// in\n    tag_253:\n        /* \"@openzeppelin/contracts/security/Pausable.sol\":2274:2294  Paused(_msgSender()) */\n      mload(0x40)\n      tag_254\n      swap2\n      swap1\n      tag_70\n      jump\t// in\n    tag_254:\n      mload(0x40)\n      dup1\n      swap2\n      sub\n      swap1\n      log1\n        /* \"@openzeppelin/contracts/security/Pausable.sol\":2186:2301  function _pause() internal virtual whenNotPaused {... */\n      jump\t// out\n        /* \"@openzeppelin/contracts/security/Pausable.sol\":1767:1873  function _requireNotPaused() internal view virtual {... */\n    tag_183:\n        /* \"@openzeppelin/contracts/security/Pausable.sol\":1837:1845  paused() */\n      tag_256\n        /* \"@openzeppelin/contracts/security/Pausable.sol\":1837:1843  paused */\n      tag_43\n        /* \"@openzeppelin/contracts/security/Pausable.sol\":1837:1845  paused() */\n      jump\t// in\n    tag_256:\n        /* \"@openzeppelin/contracts/security/Pausable.sol\":1836:1845  !paused() */\n      iszero\n        /* \"@openzeppelin/contracts/security/Pausable.sol\":1828:1866  require(!paused(), \"Pausable: paused\") */\n      tag_257\n      jumpi\n      mload(0x40)\n      0x08c379a000000000000000000000000000000000000000000000000000000000\n      dup2\n      mstore\n      0x04\n      add\n      tag_258\n      swap1\n      tag_259\n      jump\t// in\n    tag_258:\n      mload(0x40)\n      dup1\n      swap2\n      sub\n      swap1\n      revert\n    tag_257:\n        /* \"@openzeppelin/contracts/security/Pausable.sol\":1767:1873  function _requireNotPaused() internal view virtual {... */\n      jump\t// out\n        /* \"@openzeppelin/contracts/utils/Context.sol\":656:752  function _msgSender() internal view virtual returns (address) {... */\n    tag_233:\n        /* \"@openzeppelin/contracts/utils/Context.sol\":709:716  address */\n      0x00\n        /* \"@openzeppelin/contracts/utils/Context.sol\":735:745  msg.sender */\n      caller\n        /* \"@openzeppelin/contracts/utils/Context.sol\":728:745  return msg.sender */\n      swap1\n      pop\n        /* \"@openzeppelin/contracts/utils/Context.sol\":656:752  function _msgSender() internal view virtual returns (address) {... */\n      swap1\n      jump\t// out\n        /* \"@openzeppelin/contracts/security/Pausable.sol\":1945:2051  function _requirePaused() internal view virtual {... */\n    tag_245:\n        /* \"@openzeppelin/contracts/security/Pausable.sol\":2011:2019  paused() */\n      tag_262\n        /* \"@openzeppelin/contracts/security/Pausable.sol\":2011:2017  paused */\n      tag_43\n        /* \"@openzeppelin/contracts/security/Pausable.sol\":2011:2019  paused() */\n      jump\t// in\n    tag_262:\n        /* \"@openzeppelin/contracts/security/Pausable.sol\":2003:2044  require(paused(), \"Pausable: not paused\") */\n      tag_263\n      jumpi\n      mload(0x40)\n      0x08c379a000000000000000000000000000000000000000000000000000000000\n      dup2\n      mstore\n      0x04\n      add\n      tag_264\n      swap1\n      tag_265\n      jump\t// in\n    tag_264:\n      mload(0x40)\n      dup1\n      swap2\n      sub\n      swap1\n      revert\n    tag_263:\n        /* \"@openzeppelin/contracts/security/Pausable.sol\":1945:2051  function _requirePaused() internal view virtual {... */\n      jump\t// out\n        /* \"#utility.yul\":88:205   */\n    tag_267:\n        /* \"#utility.yul\":197:198   */\n      0x00\n        /* \"#utility.yul\":194:195   */\n      dup1\n        /* \"#utility.yul\":187:199   */\n      revert\n        /* \"#utility.yul\":334:460   */\n    tag_269:\n        /* \"#utility.yul\":371:378   */\n      0x00\n        /* \"#utility.yul\":411:453   */\n      0xffffffffffffffffffffffffffffffffffffffff\n        /* \"#utility.yul\":404:409   */\n      dup3\n        /* \"#utility.yul\":400:454   */\n      and\n        /* \"#utility.yul\":389:454   */\n      swap1\n      pop\n        /* \"#utility.yul\":334:460   */\n      swap2\n      swap1\n      pop\n      jump\t// out\n        /* \"#utility.yul\":466:570   */\n    tag_270:\n        /* \"#utility.yul\":511:518   */\n      0x00\n        /* \"#utility.yul\":540:564   */\n      tag_328\n        /* \"#utility.yul\":558:563   */\n      dup3\n        /* \"#utility.yul\":540:564   */\n      tag_269\n      jump\t// in\n    tag_328:\n        /* \"#utility.yul\":529:564   */\n      swap1\n      pop\n        /* \"#utility.yul\":466:570   */\n      swap2\n      swap1\n      pop\n      jump\t// out\n        /* \"#utility.yul\":576:714   */\n    tag_271:\n        /* \"#utility.yul\":657:689   */\n      tag_330\n        /* \"#utility.yul\":683:688   */\n      dup2\n        /* \"#utility.yul\":657:689   */\n      tag_270\n      jump\t// in\n    tag_330:\n        /* \"#utility.yul\":650:655   */\n      dup2\n        /* \"#utility.yul\":647:690   */\n      eq\n        /* \"#utility.yul\":637:708   */\n      tag_331\n      jumpi\n        /* \"#utility.yul\":704:705   */\n      0x00\n        /* \"#utility.yul\":701:702   */\n      dup1\n        /* \"#utility.yul\":694:706   */\n      revert\n        /* \"#utility.yul\":637:708   */\n    tag_331:\n        /* \"#utility.yul\":576:714   */\n      pop\n      jump\t// out\n        /* \"#utility.yul\":720:875   */\n    tag_272:\n        /* \"#utility.yul\":774:779   */\n      0x00\n        /* \"#utility.yul\":812:818   */\n      dup2\n        /* \"#utility.yul\":799:819   */\n      calldataload\n        /* \"#utility.yul\":790:819   */\n      swap1\n      pop\n        /* \"#utility.yul\":828:869   */\n      tag_333\n        /* \"#utility.yul\":863:868   */\n      dup2\n        /* \"#utility.yul\":828:869   */\n      tag_271\n      jump\t// in\n    tag_333:\n        /* \"#utility.yul\":720:875   */\n      swap3\n      swap2\n      pop\n      pop\n      jump\t// out\n        /* \"#utility.yul\":881:1226   */\n    tag_31:\n        /* \"#utility.yul\":948:954   */\n      0x00\n        /* \"#utility.yul\":997:999   */\n      0x20\n        /* \"#utility.yul\":985:994   */\n      dup3\n        /* \"#utility.yul\":976:983   */\n      dup5\n        /* \"#utility.yul\":972:995   */\n      sub\n        /* \"#utility.yul\":968:1000   */\n      slt\n        /* \"#utility.yul\":965:1084   */\n      iszero\n      tag_335\n      jumpi\n        /* \"#utility.yul\":1003:1082   */\n      tag_336\n      tag_267\n      jump\t// in\n    tag_336:\n        /* \"#utility.yul\":965:1084   */\n    tag_335:\n        /* \"#utility.yul\":1123:1124   */\n      0x00\n        /* \"#utility.yul\":1148:1209   */\n      tag_337\n        /* \"#utility.yul\":1201:1208   */\n      dup5\n        /* \"#utility.yul\":1192:1198   */\n      dup3\n        /* \"#utility.yul\":1181:1190   */\n      dup6\n        /* \"#utility.yul\":1177:1199   */\n      add\n        /* \"#utility.yul\":1148:1209   */\n      tag_272\n      jump\t// in\n    tag_337:\n        /* \"#utility.yul\":1138:1209   */\n      swap2\n      pop\n        /* \"#utility.yul\":1094:1219   */\n      pop\n        /* \"#utility.yul\":881:1226   */\n      swap3\n      swap2\n      pop\n      pop\n      jump\t// out\n        /* \"#utility.yul\":1232:1309   */\n    tag_273:\n        /* \"#utility.yul\":1269:1276   */\n      0x00\n        /* \"#utility.yul\":1298:1303   */\n      dup2\n        /* \"#utility.yul\":1287:1303   */\n      swap1\n      pop\n        /* \"#utility.yul\":1232:1309   */\n      swap2\n      swap1\n      pop\n      jump\t// out\n        /* \"#utility.yul\":1315:1433   */\n    tag_274:\n        /* \"#utility.yul\":1402:1426   */\n      tag_340\n        /* \"#utility.yul\":1420:1425   */\n      dup2\n        /* \"#utility.yul\":1402:1426   */\n      tag_273\n      jump\t// in\n    tag_340:\n        /* \"#utility.yul\":1397:1400   */\n      dup3\n        /* \"#utility.yul\":1390:1427   */\n      mstore\n        /* \"#utility.yul\":1315:1433   */\n      pop\n      pop\n      jump\t// out\n        /* \"#utility.yul\":1439:1661   */\n    tag_37:\n        /* \"#utility.yul\":1532:1536   */\n      0x00\n        /* \"#utility.yul\":1570:1572   */\n      0x20\n        /* \"#utility.yul\":1559:1568   */\n      dup3\n        /* \"#utility.yul\":1555:1573   */\n      add\n        /* \"#utility.yul\":1547:1573   */\n      swap1\n      pop\n        /* \"#utility.yul\":1583:1654   */\n      tag_342\n        /* \"#utility.yul\":1651:1652   */\n      0x00\n        /* \"#utility.yul\":1640:1649   */\n      dup4\n        /* \"#utility.yul\":1636:1653   */\n      add\n        /* \"#utility.yul\":1627:1633   */\n      dup5\n        /* \"#utility.yul\":1583:1654   */\n      tag_274\n      jump\t// in\n    tag_342:\n        /* \"#utility.yul\":1439:1661   */\n      swap3\n      swap2\n      pop\n      pop\n      jump\t// out\n        /* \"#utility.yul\":1667:1757   */\n    tag_275:\n        /* \"#utility.yul\":1701:1708   */\n      0x00\n        /* \"#utility.yul\":1744:1749   */\n      dup2\n        /* \"#utility.yul\":1737:1750   */\n      iszero\n        /* \"#utility.yul\":1730:1751   */\n      iszero\n        /* \"#utility.yul\":1719:1751   */\n      swap1\n      pop\n        /* \"#utility.yul\":1667:1757   */\n      swap2\n      swap1\n      pop\n      jump\t// out\n        /* \"#utility.yul\":1763:1872   */\n    tag_276:\n        /* \"#utility.yul\":1844:1865   */\n      tag_345\n        /* \"#utility.yul\":1859:1864   */\n      dup2\n        /* \"#utility.yul\":1844:1865   */\n      tag_275\n      jump\t// in\n    tag_345:\n        /* \"#utility.yul\":1839:1842   */\n      dup3\n        /* \"#utility.yul\":1832:1866   */\n      mstore\n        /* \"#utility.yul\":1763:1872   */\n      pop\n      pop\n      jump\t// out\n        /* \"#utility.yul\":1878:2088   */\n    tag_45:\n        /* \"#utility.yul\":1965:1969   */\n      0x00\n        /* \"#utility.yul\":2003:2005   */\n      0x20\n        /* \"#utility.yul\":1992:2001   */\n      dup3\n        /* \"#utility.yul\":1988:2006   */\n      add\n        /* \"#utility.yul\":1980:2006   */\n      swap1\n      pop\n        /* \"#utility.yul\":2016:2081   */\n      tag_347\n        /* \"#utility.yul\":2078:2079   */\n      0x00\n        /* \"#utility.yul\":2067:2076   */\n      dup4\n        /* \"#utility.yul\":2063:2080   */\n      add\n        /* \"#utility.yul\":2054:2060   */\n      dup5\n        /* \"#utility.yul\":2016:2081   */\n      tag_276\n      jump\t// in\n    tag_347:\n        /* \"#utility.yul\":1878:2088   */\n      swap3\n      swap2\n      pop\n      pop\n      jump\t// out\n        /* \"#utility.yul\":2094:2216   */\n    tag_277:\n        /* \"#utility.yul\":2167:2191   */\n      tag_349\n        /* \"#utility.yul\":2185:2190   */\n      dup2\n        /* \"#utility.yul\":2167:2191   */\n      tag_273\n      jump\t// in\n    tag_349:\n        /* \"#utility.yul\":2160:2165   */\n      dup2\n        /* \"#utility.yul\":2157:2192   */\n      eq\n        /* \"#utility.yul\":2147:2210   */\n      tag_350\n      jumpi\n        /* \"#utility.yul\":2206:2207   */\n      0x00\n        /* \"#utility.yul\":2203:2204   */\n      dup1\n        /* \"#utility.yul\":2196:2208   */\n      revert\n        /* \"#utility.yul\":2147:2210   */\n    tag_350:\n        /* \"#utility.yul\":2094:2216   */\n      pop\n      jump\t// out\n        /* \"#utility.yul\":2222:2361   */\n    tag_278:\n        /* \"#utility.yul\":2268:2273   */\n      0x00\n        /* \"#utility.yul\":2306:2312   */\n      dup2\n        /* \"#utility.yul\":2293:2313   */\n      calldataload\n        /* \"#utility.yul\":2284:2313   */\n      swap1\n      pop\n        /* \"#utility.yul\":2322:2355   */\n      tag_352\n        /* \"#utility.yul\":2349:2354   */\n      dup2\n        /* \"#utility.yul\":2322:2355   */\n      tag_277\n      jump\t// in\n    tag_352:\n        /* \"#utility.yul\":2222:2361   */\n      swap3\n      swap2\n      pop\n      pop\n      jump\t// out\n        /* \"#utility.yul\":2367:2696   */\n    tag_56:\n        /* \"#utility.yul\":2426:2432   */\n      0x00\n        /* \"#utility.yul\":2475:2477   */\n      0x20\n        /* \"#utility.yul\":2463:2472   */\n      dup3\n        /* \"#utility.yul\":2454:2461   */\n      dup5\n        /* \"#utility.yul\":2450:2473   */\n      sub\n        /* \"#utility.yul\":2446:2478   */\n      slt\n        /* \"#utility.yul\":2443:2562   */\n      iszero\n      tag_354\n      jumpi\n        /* \"#utility.yul\":2481:2560   */\n      tag_355\n      tag_267\n      jump\t// in\n    tag_355:\n        /* \"#utility.yul\":2443:2562   */\n    tag_354:\n        /* \"#utility.yul\":2601:2602   */\n      0x00\n        /* \"#utility.yul\":2626:2679   */\n      tag_356\n        /* \"#utility.yul\":2671:2678   */\n      dup5\n        /* \"#utility.yul\":2662:2668   */\n      dup3\n        /* \"#utility.yul\":2651:2660   */\n      dup6\n        /* \"#utility.yul\":2647:2669   */\n      add\n        /* \"#utility.yul\":2626:2679   */\n      tag_278\n      jump\t// in\n    tag_356:\n        /* \"#utility.yul\":2616:2679   */\n      swap2\n      pop\n        /* \"#utility.yul\":2572:2689   */\n      pop\n        /* \"#utility.yul\":2367:2696   */\n      swap3\n      swap2\n      pop\n      pop\n      jump\t// out\n        /* \"#utility.yul\":2702:2779   */\n    tag_279:\n        /* \"#utility.yul\":2739:2746   */\n      0x00\n        /* \"#utility.yul\":2768:2773   */\n      dup2\n        /* \"#utility.yul\":2757:2773   */\n      swap1\n      pop\n        /* \"#utility.yul\":2702:2779   */\n      swap2\n      swap1\n      pop\n      jump\t// out\n        /* \"#utility.yul\":2785:2907   */\n    tag_280:\n        /* \"#utility.yul\":2858:2882   */\n      tag_359\n        /* \"#utility.yul\":2876:2881   */\n      dup2\n        /* \"#utility.yul\":2858:2882   */\n      tag_279\n      jump\t// in\n    tag_359:\n        /* \"#utility.yul\":2851:2856   */\n      dup2\n        /* \"#utility.yul\":2848:2883   */\n      eq\n        /* \"#utility.yul\":2838:2901   */\n      tag_360\n      jumpi\n        /* \"#utility.yul\":2897:2898   */\n      0x00\n        /* \"#utility.yul\":2894:2895   */\n      dup1\n        /* \"#utility.yul\":2887:2899   */\n      revert\n        /* \"#utility.yul\":2838:2901   */\n    tag_360:\n        /* \"#utility.yul\":2785:2907   */\n      pop\n      jump\t// out\n        /* \"#utility.yul\":2913:3052   */\n    tag_281:\n        /* \"#utility.yul\":2959:2964   */\n      0x00\n        /* \"#utility.yul\":2997:3003   */\n      dup2\n        /* \"#utility.yul\":2984:3004   */\n      calldataload\n        /* \"#utility.yul\":2975:3004   */\n      swap1\n      pop\n        /* \"#utility.yul\":3013:3046   */\n      tag_362\n        /* \"#utility.yul\":3040:3045   */\n      dup2\n        /* \"#utility.yul\":3013:3046   */\n      tag_280\n      jump\t// in\n    tag_362:\n        /* \"#utility.yul\":2913:3052   */\n      swap3\n      swap2\n      pop\n      pop\n      jump\t// out\n        /* \"#utility.yul\":3058:3387   */\n    tag_61:\n        /* \"#utility.yul\":3117:3123   */\n      0x00\n        /* \"#utility.yul\":3166:3168   */\n      0x20\n        /* \"#utility.yul\":3154:3163   */\n      dup3\n        /* \"#utility.yul\":3145:3152   */\n      dup5\n        /* \"#utility.yul\":3141:3164   */\n      sub\n        /* \"#utility.yul\":3137:3169   */\n      slt\n        /* \"#utility.yul\":3134:3253   */\n      iszero\n      tag_364\n      jumpi\n        /* \"#utility.yul\":3172:3251   */\n      tag_365\n      tag_267\n      jump\t// in\n    tag_365:\n        /* \"#utility.yul\":3134:3253   */\n    tag_364:\n        /* \"#utility.yul\":3292:3293   */\n      0x00\n        /* \"#utility.yul\":3317:3370   */\n      tag_366\n        /* \"#utility.yul\":3362:3369   */\n      dup5\n        /* \"#utility.yul\":3353:3359   */\n      dup3\n        /* \"#utility.yul\":3342:3351   */\n      dup6\n        /* \"#utility.yul\":3338:3360   */\n      add\n        /* \"#utility.yul\":3317:3370   */\n      tag_281\n      jump\t// in\n    tag_366:\n        /* \"#utility.yul\":3307:3370   */\n      swap2\n      pop\n        /* \"#utility.yul\":3263:3380   */\n      pop\n        /* \"#utility.yul\":3058:3387   */\n      swap3\n      swap2\n      pop\n      pop\n      jump\t// out\n        /* \"#utility.yul\":3393:3489   */\n    tag_282:\n        /* \"#utility.yul\":3430:3437   */\n      0x00\n        /* \"#utility.yul\":3459:3483   */\n      tag_368\n        /* \"#utility.yul\":3477:3482   */\n      dup3\n        /* \"#utility.yul\":3459:3483   */\n      tag_269\n      jump\t// in\n    tag_368:\n        /* \"#utility.yul\":3448:3483   */\n      swap1\n      pop\n        /* \"#utility.yul\":3393:3489   */\n      swap2\n      swap1\n      pop\n      jump\t// out\n        /* \"#utility.yul\":3495:3613   */\n    tag_283:\n        /* \"#utility.yul\":3582:3606   */\n      tag_370\n        /* \"#utility.yul\":3600:3605   */\n      dup2\n        /* \"#utility.yul\":3582:3606   */\n      tag_282\n      jump\t// in\n    tag_370:\n        /* \"#utility.yul\":3577:3580   */\n      dup3\n        /* \"#utility.yul\":3570:3607   */\n      mstore\n        /* \"#utility.yul\":3495:3613   */\n      pop\n      pop\n      jump\t// out\n        /* \"#utility.yul\":3619:3841   */\n    tag_70:\n        /* \"#utility.yul\":3712:3716   */\n      0x00\n        /* \"#utility.yul\":3750:3752   */\n      0x20\n        /* \"#utility.yul\":3739:3748   */\n      dup3\n        /* \"#utility.yul\":3735:3753   */\n      add\n        /* \"#utility.yul\":3727:3753   */\n      swap1\n      pop\n        /* \"#utility.yul\":3763:3834   */\n      tag_372\n        /* \"#utility.yul\":3831:3832   */\n      0x00\n        /* \"#utility.yul\":3820:3829   */\n      dup4\n        /* \"#utility.yul\":3816:3833   */\n      add\n        /* \"#utility.yul\":3807:3813   */\n      dup5\n        /* \"#utility.yul\":3763:3834   */\n      tag_283\n      jump\t// in\n    tag_372:\n        /* \"#utility.yul\":3619:3841   */\n      swap3\n      swap2\n      pop\n      pop\n      jump\t// out\n        /* \"#utility.yul\":3847:4388   */\n    tag_76:\n        /* \"#utility.yul\":4018:4022   */\n      0x00\n        /* \"#utility.yul\":4056:4059   */\n      0x80\n        /* \"#utility.yul\":4045:4054   */\n      dup3\n        /* \"#utility.yul\":4041:4060   */\n      add\n        /* \"#utility.yul\":4033:4060   */\n      swap1\n      pop\n        /* \"#utility.yul\":4070:4141   */\n      tag_374\n        /* \"#utility.yul\":4138:4139   */\n      0x00\n        /* \"#utility.yul\":4127:4136   */\n      dup4\n        /* \"#utility.yul\":4123:4140   */\n      add\n        /* \"#utility.yul\":4114:4120   */\n      dup8\n        /* \"#utility.yul\":4070:4141   */\n      tag_283\n      jump\t// in\n    tag_374:\n        /* \"#utility.yul\":4151:4223   */\n      tag_375\n        /* \"#utility.yul\":4219:4221   */\n      0x20\n        /* \"#utility.yul\":4208:4217   */\n      dup4\n        /* \"#utility.yul\":4204:4222   */\n      add\n        /* \"#utility.yul\":4195:4201   */\n      dup7\n        /* \"#utility.yul\":4151:4223   */\n      tag_274\n      jump\t// in\n    tag_375:\n        /* \"#utility.yul\":4233:4305   */\n      tag_376\n        /* \"#utility.yul\":4301:4303   */\n      0x40\n        /* \"#utility.yul\":4290:4299   */\n      dup4\n        /* \"#utility.yul\":4286:4304   */\n      add\n        /* \"#utility.yul\":4277:4283   */\n      dup6\n        /* \"#utility.yul\":4233:4305   */\n      tag_274\n      jump\t// in\n    tag_376:\n        /* \"#utility.yul\":4315:4381   */\n      tag_377\n        /* \"#utility.yul\":4377:4379   */\n      0x60\n        /* \"#utility.yul\":4366:4375   */\n      dup4\n        /* \"#utility.yul\":4362:4380   */\n      add\n        /* \"#utility.yul\":4353:4359   */\n      dup5\n        /* \"#utility.yul\":4315:4381   */\n      tag_276\n      jump\t// in\n    tag_377:\n        /* \"#utility.yul\":3847:4388   */\n      swap6\n      swap5\n      pop\n      pop\n      pop\n      pop\n      pop\n      jump\t// out\n        /* \"#utility.yul\":4394:4516   */\n    tag_284:\n        /* \"#utility.yul\":4467:4491   */\n      tag_379\n        /* \"#utility.yul\":4485:4490   */\n      dup2\n        /* \"#utility.yul\":4467:4491   */\n      tag_282\n      jump\t// in\n    tag_379:\n        /* \"#utility.yul\":4460:4465   */\n      dup2\n        /* \"#utility.yul\":4457:4492   */\n      eq\n        /* \"#utility.yul\":4447:4510   */\n      tag_380\n      jumpi\n        /* \"#utility.yul\":4506:4507   */\n      0x00\n        /* \"#utility.yul\":4503:4504   */\n      dup1\n        /* \"#utility.yul\":4496:4508   */\n      revert\n        /* \"#utility.yul\":4447:4510   */\n    tag_380:\n        /* \"#utility.yul\":4394:4516   */\n      pop\n      jump\t// out\n        /* \"#utility.yul\":4522:4661   */\n    tag_285:\n        /* \"#utility.yul\":4568:4573   */\n      0x00\n        /* \"#utility.yul\":4606:4612   */\n      dup2\n        /* \"#utility.yul\":4593:4613   */\n      calldataload\n        /* \"#utility.yul\":4584:4613   */\n      swap1\n      pop\n        /* \"#utility.yul\":4622:4655   */\n      tag_382\n        /* \"#utility.yul\":4649:4654   */\n      dup2\n        /* \"#utility.yul\":4622:4655   */\n      tag_284\n      jump\t// in\n    tag_382:\n        /* \"#utility.yul\":4522:4661   */\n      swap3\n      swap2\n      pop\n      pop\n      jump\t// out\n        /* \"#utility.yul\":4667:4996   */\n    tag_95:\n        /* \"#utility.yul\":4726:4732   */\n      0x00\n        /* \"#utility.yul\":4775:4777   */\n      0x20\n        /* \"#utility.yul\":4763:4772   */\n      dup3\n        /* \"#utility.yul\":4754:4761   */\n      dup5\n        /* \"#utility.yul\":4750:4773   */\n      sub\n        /* \"#utility.yul\":4746:4778   */\n      slt\n        /* \"#utility.yul\":4743:4862   */\n      iszero\n      tag_384\n      jumpi\n        /* \"#utility.yul\":4781:4860   */\n      tag_385\n      tag_267\n      jump\t// in\n    tag_385:\n        /* \"#utility.yul\":4743:4862   */\n    tag_384:\n        /* \"#utility.yul\":4901:4902   */\n      0x00\n        /* \"#utility.yul\":4926:4979   */\n      tag_386\n        /* \"#utility.yul\":4971:4978   */\n      dup5\n        /* \"#utility.yul\":4962:4968   */\n      dup3\n        /* \"#utility.yul\":4951:4960   */\n      dup6\n        /* \"#utility.yul\":4947:4969   */\n      add\n        /* \"#utility.yul\":4926:4979   */\n      tag_285\n      jump\t// in\n    tag_386:\n        /* \"#utility.yul\":4916:4979   */\n      swap2\n      pop\n        /* \"#utility.yul\":4872:4989   */\n      pop\n        /* \"#utility.yul\":4667:4996   */\n      swap3\n      swap2\n      pop\n      pop\n      jump\t// out\n        /* \"#utility.yul\":5002:5118   */\n    tag_286:\n        /* \"#utility.yul\":5072:5093   */\n      tag_388\n        /* \"#utility.yul\":5087:5092   */\n      dup2\n        /* \"#utility.yul\":5072:5093   */\n      tag_275\n      jump\t// in\n    tag_388:\n        /* \"#utility.yul\":5065:5070   */\n      dup2\n        /* \"#utility.yul\":5062:5094   */\n      eq\n        /* \"#utility.yul\":5052:5112   */\n      tag_389\n      jumpi\n        /* \"#utility.yul\":5108:5109   */\n      0x00\n        /* \"#utility.yul\":5105:5106   */\n      dup1\n        /* \"#utility.yul\":5098:5110   */\n      revert\n        /* \"#utility.yul\":5052:5112   */\n    tag_389:\n        /* \"#utility.yul\":5002:5118   */\n      pop\n      jump\t// out\n        /* \"#utility.yul\":5124:5257   */\n    tag_287:\n        /* \"#utility.yul\":5167:5172   */\n      0x00\n        /* \"#utility.yul\":5205:5211   */\n      dup2\n        /* \"#utility.yul\":5192:5212   */\n      calldataload\n        /* \"#utility.yul\":5183:5212   */\n      swap1\n      pop\n        /* \"#utility.yul\":5221:5251   */\n      tag_391\n        /* \"#utility.yul\":5245:5250   */\n      dup2\n        /* \"#utility.yul\":5221:5251   */\n      tag_286\n      jump\t// in\n    tag_391:\n        /* \"#utility.yul\":5124:5257   */\n      swap3\n      swap2\n      pop\n      pop\n      jump\t// out\n        /* \"#utility.yul\":5263:5731   */\n    tag_100:\n        /* \"#utility.yul\":5328:5334   */\n      0x00\n        /* \"#utility.yul\":5336:5342   */\n      dup1\n        /* \"#utility.yul\":5385:5387   */\n      0x40\n        /* \"#utility.yul\":5373:5382   */\n      dup4\n        /* \"#utility.yul\":5364:5371   */\n      dup6\n        /* \"#utility.yul\":5360:5383   */\n      sub\n        /* \"#utility.yul\":5356:5388   */\n      slt\n        /* \"#utility.yul\":5353:5472   */\n      iszero\n      tag_393\n      jumpi\n        /* \"#utility.yul\":5391:5470   */\n      tag_394\n      tag_267\n      jump\t// in\n    tag_394:\n        /* \"#utility.yul\":5353:5472   */\n    tag_393:\n        /* \"#utility.yul\":5511:5512   */\n      0x00\n        /* \"#utility.yul\":5536:5589   */\n      tag_395\n        /* \"#utility.yul\":5581:5588   */\n      dup6\n        /* \"#utility.yul\":5572:5578   */\n      dup3\n        /* \"#utility.yul\":5561:5570   */\n      dup7\n        /* \"#utility.yul\":5557:5579   */\n      add\n        /* \"#utility.yul\":5536:5589   */\n      tag_281\n      jump\t// in\n    tag_395:\n        /* \"#utility.yul\":5526:5589   */\n      swap3\n      pop\n        /* \"#utility.yul\":5482:5599   */\n      pop\n        /* \"#utility.yul\":5638:5640   */\n      0x20\n        /* \"#utility.yul\":5664:5714   */\n      tag_396\n        /* \"#utility.yul\":5706:5713   */\n      dup6\n        /* \"#utility.yul\":5697:5703   */\n      dup3\n        /* \"#utility.yul\":5686:5695   */\n      dup7\n        /* \"#utility.yul\":5682:5704   */\n      add\n        /* \"#utility.yul\":5664:5714   */\n      tag_287\n      jump\t// in\n    tag_396:\n        /* \"#utility.yul\":5654:5714   */\n      swap2\n      pop\n        /* \"#utility.yul\":5609:5724   */\n      pop\n        /* \"#utility.yul\":5263:5731   */\n      swap3\n      pop\n      swap3\n      swap1\n      pop\n      jump\t// out\n        /* \"#utility.yul\":5737:5906   */\n    tag_288:\n        /* \"#utility.yul\":5821:5832   */\n      0x00\n        /* \"#utility.yul\":5855:5861   */\n      dup3\n        /* \"#utility.yul\":5850:5853   */\n      dup3\n        /* \"#utility.yul\":5843:5862   */\n      mstore\n        /* \"#utility.yul\":5895:5899   */\n      0x20\n        /* \"#utility.yul\":5890:5893   */\n      dup3\n        /* \"#utility.yul\":5886:5900   */\n      add\n        /* \"#utility.yul\":5871:5900   */\n      swap1\n      pop\n        /* \"#utility.yul\":5737:5906   */\n      swap3\n      swap2\n      pop\n      pop\n      jump\t// out\n        /* \"#utility.yul\":5912:6084   */\n    tag_289:\n        /* \"#utility.yul\":6052:6076   */\n      0x4e6f2062616c616e636520746f20776974686472617700000000000000000000\n        /* \"#utility.yul\":6048:6049   */\n      0x00\n        /* \"#utility.yul\":6040:6046   */\n      dup3\n        /* \"#utility.yul\":6036:6050   */\n      add\n        /* \"#utility.yul\":6029:6077   */\n      mstore\n        /* \"#utility.yul\":5912:6084   */\n      pop\n      jump\t// out\n        /* \"#utility.yul\":6090:6456   */\n    tag_290:\n        /* \"#utility.yul\":6232:6235   */\n      0x00\n        /* \"#utility.yul\":6253:6320   */\n      tag_400\n        /* \"#utility.yul\":6317:6319   */\n      0x16\n        /* \"#utility.yul\":6312:6315   */\n      dup4\n        /* \"#utility.yul\":6253:6320   */\n      tag_288\n      jump\t// in\n    tag_400:\n        /* \"#utility.yul\":6246:6320   */\n      swap2\n      pop\n        /* \"#utility.yul\":6329:6422   */\n      tag_401\n        /* \"#utility.yul\":6418:6421   */\n      dup3\n        /* \"#utility.yul\":6329:6422   */\n      tag_289\n      jump\t// in\n    tag_401:\n        /* \"#utility.yul\":6447:6449   */\n      0x20\n        /* \"#utility.yul\":6442:6445   */\n      dup3\n        /* \"#utility.yul\":6438:6450   */\n      add\n        /* \"#utility.yul\":6431:6450   */\n      swap1\n      pop\n        /* \"#utility.yul\":6090:6456   */\n      swap2\n      swap1\n      pop\n      jump\t// out\n        /* \"#utility.yul\":6462:6881   */\n    tag_115:\n        /* \"#utility.yul\":6628:6632   */\n      0x00\n        /* \"#utility.yul\":6666:6668   */\n      0x20\n        /* \"#utility.yul\":6655:6664   */\n      dup3\n        /* \"#utility.yul\":6651:6669   */\n      add\n        /* \"#utility.yul\":6643:6669   */\n      swap1\n      pop\n        /* \"#utility.yul\":6715:6724   */\n      dup2\n        /* \"#utility.yul\":6709:6713   */\n      dup2\n        /* \"#utility.yul\":6705:6725   */\n      sub\n        /* \"#utility.yul\":6701:6702   */\n      0x00\n        /* \"#utility.yul\":6690:6699   */\n      dup4\n        /* \"#utility.yul\":6686:6703   */\n      add\n        /* \"#utility.yul\":6679:6726   */\n      mstore\n        /* \"#utility.yul\":6743:6874   */\n      tag_403\n        /* \"#utility.yul\":6869:6873   */\n      dup2\n        /* \"#utility.yul\":6743:6874   */\n      tag_290\n      jump\t// in\n    tag_403:\n        /* \"#utility.yul\":6735:6874   */\n      swap1\n      pop\n        /* \"#utility.yul\":6462:6881   */\n      swap2\n      swap1\n      pop\n      jump\t// out\n        /* \"#utility.yul\":6887:7034   */\n    tag_291:\n        /* \"#utility.yul\":6988:6999   */\n      0x00\n        /* \"#utility.yul\":7025:7028   */\n      dup2\n        /* \"#utility.yul\":7010:7028   */\n      swap1\n      pop\n        /* \"#utility.yul\":6887:7034   */\n      swap3\n      swap2\n      pop\n      pop\n      jump\t// out\n        /* \"#utility.yul\":7040:7154   */\n    tag_292:\n      pop\n      jump\t// out\n        /* \"#utility.yul\":7160:7558   */\n    tag_293:\n        /* \"#utility.yul\":7319:7322   */\n      0x00\n        /* \"#utility.yul\":7340:7423   */\n      tag_407\n        /* \"#utility.yul\":7421:7422   */\n      0x00\n        /* \"#utility.yul\":7416:7419   */\n      dup4\n        /* \"#utility.yul\":7340:7423   */\n      tag_291\n      jump\t// in\n    tag_407:\n        /* \"#utility.yul\":7333:7423   */\n      swap2\n      pop\n        /* \"#utility.yul\":7432:7525   */\n      tag_408\n        /* \"#utility.yul\":7521:7524   */\n      dup3\n        /* \"#utility.yul\":7432:7525   */\n      tag_292\n      jump\t// in\n    tag_408:\n        /* \"#utility.yul\":7550:7551   */\n      0x00\n        /* \"#utility.yul\":7545:7548   */\n      dup3\n        /* \"#utility.yul\":7541:7552   */\n      add\n        /* \"#utility.yul\":7534:7552   */\n      swap1\n      pop\n        /* \"#utility.yul\":7160:7558   */\n      swap2\n      swap1\n      pop\n      jump\t// out\n        /* \"#utility.yul\":7564:7943   */\n    tag_117:\n        /* \"#utility.yul\":7748:7751   */\n      0x00\n        /* \"#utility.yul\":7770:7917   */\n      tag_410\n        /* \"#utility.yul\":7913:7916   */\n      dup3\n        /* \"#utility.yul\":7770:7917   */\n      tag_293\n      jump\t// in\n    tag_410:\n        /* \"#utility.yul\":7763:7917   */\n      swap2\n      pop\n        /* \"#utility.yul\":7934:7937   */\n      dup2\n        /* \"#utility.yul\":7927:7937   */\n      swap1\n      pop\n        /* \"#utility.yul\":7564:7943   */\n      swap2\n      swap1\n      pop\n      jump\t// out\n        /* \"#utility.yul\":7949:8116   */\n    tag_294:\n        /* \"#utility.yul\":8089:8108   */\n      0x5769746864726177616c206661696c6564000000000000000000000000000000\n        /* \"#utility.yul\":8085:8086   */\n      0x00\n        /* \"#utility.yul\":8077:8083   */\n      dup3\n        /* \"#utility.yul\":8073:8087   */\n      add\n        /* \"#utility.yul\":8066:8109   */\n      mstore\n        /* \"#utility.yul\":7949:8116   */\n      pop\n      jump\t// out\n        /* \"#utility.yul\":8122:8488   */\n    tag_295:\n        /* \"#utility.yul\":8264:8267   */\n      0x00\n        /* \"#utility.yul\":8285:8352   */\n      tag_413\n        /* \"#utility.yul\":8349:8351   */\n      0x11\n        /* \"#utility.yul\":8344:8347   */\n      dup4\n        /* \"#utility.yul\":8285:8352   */\n      tag_288\n      jump\t// in\n    tag_413:\n        /* \"#utility.yul\":8278:8352   */\n      swap2\n      pop\n        /* \"#utility.yul\":8361:8454   */\n      tag_414\n        /* \"#utility.yul\":8450:8453   */\n      dup3\n        /* \"#utility.yul\":8361:8454   */\n      tag_294\n      jump\t// in\n    tag_414:\n        /* \"#utility.yul\":8479:8481   */\n      0x20\n        /* \"#utility.yul\":8474:8477   */\n      dup3\n        /* \"#utility.yul\":8470:8482   */\n      add\n        /* \"#utility.yul\":8463:8482   */\n      swap1\n      pop\n        /* \"#utility.yul\":8122:8488   */\n      swap2\n      swap1\n      pop\n      jump\t// out\n        /* \"#utility.yul\":8494:8913   */\n    tag_123:\n        /* \"#utility.yul\":8660:8664   */\n      0x00\n        /* \"#utility.yul\":8698:8700   */\n      0x20\n        /* \"#utility.yul\":8687:8696   */\n      dup3\n        /* \"#utility.yul\":8683:8701   */\n      add\n        /* \"#utility.yul\":8675:8701   */\n      swap1\n      pop\n        /* \"#utility.yul\":8747:8756   */\n      dup2\n        /* \"#utility.yul\":8741:8745   */\n      dup2\n        /* \"#utility.yul\":8737:8757   */\n      sub\n        /* \"#utility.yul\":8733:8734   */\n      0x00\n        /* \"#utility.yul\":8722:8731   */\n      dup4\n        /* \"#utility.yul\":8718:8735   */\n      add\n        /* \"#utility.yul\":8711:8758   */\n      mstore\n        /* \"#utility.yul\":8775:8906   */\n      tag_416\n        /* \"#utility.yul\":8901:8905   */\n      dup2\n        /* \"#utility.yul\":8775:8906   */\n      tag_295\n      jump\t// in\n    tag_416:\n        /* \"#utility.yul\":8767:8906   */\n      swap1\n      pop\n        /* \"#utility.yul\":8494:8913   */\n      swap2\n      swap1\n      pop\n      jump\t// out\n        /* \"#utility.yul\":8919:9092   */\n    tag_296:\n        /* \"#utility.yul\":9059:9084   */\n      0x46656520746f6f206c6172676520286d61782031302529000000000000000000\n        /* \"#utility.yul\":9055:9056   */\n      0x00\n        /* \"#utility.yul\":9047:9053   */\n      dup3\n        /* \"#utility.yul\":9043:9057   */\n      add\n        /* \"#utility.yul\":9036:9085   */\n      mstore\n        /* \"#utility.yul\":8919:9092   */\n      pop\n      jump\t// out\n        /* \"#utility.yul\":9098:9464   */\n    tag_297:\n        /* \"#utility.yul\":9240:9243   */\n      0x00\n        /* \"#utility.yul\":9261:9328   */\n      tag_419\n        /* \"#utility.yul\":9325:9327   */\n      0x17\n        /* \"#utility.yul\":9320:9323   */\n      dup4\n        /* \"#utility.yul\":9261:9328   */\n      tag_288\n      jump\t// in\n    tag_419:\n        /* \"#utility.yul\":9254:9328   */\n      swap2\n      pop\n        /* \"#utility.yul\":9337:9430   */\n      tag_420\n        /* \"#utility.yul\":9426:9429   */\n      dup3\n        /* \"#utility.yul\":9337:9430   */\n      tag_296\n      jump\t// in\n    tag_420:\n        /* \"#utility.yul\":9455:9457   */\n      0x20\n        /* \"#utility.yul\":9450:9453   */\n      dup3\n        /* \"#utility.yul\":9446:9458   */\n      add\n        /* \"#utility.yul\":9439:9458   */\n      swap1\n      pop\n        /* \"#utility.yul\":9098:9464   */\n      swap2\n      swap1\n      pop\n      jump\t// out\n        /* \"#utility.yul\":9470:9889   */\n    tag_143:\n        /* \"#utility.yul\":9636:9640   */\n      0x00\n        /* \"#utility.yul\":9674:9676   */\n      0x20\n        /* \"#utility.yul\":9663:9672   */\n      dup3\n        /* \"#utility.yul\":9659:9677   */\n      add\n        /* \"#utility.yul\":9651:9677   */\n      swap1\n      pop\n        /* \"#utility.yul\":9723:9732   */\n      dup2\n        /* \"#utility.yul\":9717:9721   */\n      dup2\n        /* \"#utility.yul\":9713:9733   */\n      sub\n        /* \"#utility.yul\":9709:9710   */\n      0x00\n        /* \"#utility.yul\":9698:9707   */\n      dup4\n        /* \"#utility.yul\":9694:9711   */\n      add\n        /* \"#utility.yul\":9687:9734   */\n      mstore\n        /* \"#utility.yul\":9751:9882   */\n      tag_422\n        /* \"#utility.yul\":9877:9881   */\n      dup2\n        /* \"#utility.yul\":9751:9882   */\n      tag_297\n      jump\t// in\n    tag_422:\n        /* \"#utility.yul\":9743:9882   */\n      swap1\n      pop\n        /* \"#utility.yul\":9470:9889   */\n      swap2\n      swap1\n      pop\n      jump\t// out\n        /* \"#utility.yul\":9895:10060   */\n    tag_298:\n        /* \"#utility.yul\":10035:10052   */\n      0x4e6f207374616b65206578697374730000000000000000000000000000000000\n        /* \"#utility.yul\":10031:10032   */\n      0x00\n        /* \"#utility.yul\":10023:10029   */\n      dup3\n        /* \"#utility.yul\":10019:10033   */\n      add\n        /* \"#utility.yul\":10012:10053   */\n      mstore\n        /* \"#utility.yul\":9895:10060   */\n      pop\n      jump\t// out\n        /* \"#utility.yul\":10066:10432   */\n    tag_299:\n        /* \"#utility.yul\":10208:10211   */\n      0x00\n        /* \"#utility.yul\":10229:10296   */\n      tag_425\n        /* \"#utility.yul\":10293:10295   */\n      0x0f\n        /* \"#utility.yul\":10288:10291   */\n      dup4\n        /* \"#utility.yul\":10229:10296   */\n      tag_288\n      jump\t// in\n    tag_425:\n        /* \"#utility.yul\":10222:10296   */\n      swap2\n      pop\n        /* \"#utility.yul\":10305:10398   */\n      tag_426\n        /* \"#utility.yul\":10394:10397   */\n      dup3\n        /* \"#utility.yul\":10305:10398   */\n      tag_298\n      jump\t// in\n    tag_426:\n        /* \"#utility.yul\":10423:10425   */\n      0x20\n        /* \"#utility.yul\":10418:10421   */\n      dup3\n        /* \"#utility.yul\":10414:10426   */\n      add\n        /* \"#utility.yul\":10407:10426   */\n      swap1\n      pop\n        /* \"#utility.yul\":10066:10432   */\n      swap2\n      swap1\n      pop\n      jump\t// out\n        /* \"#utility.yul\":10438:10857   */\n    tag_150:\n        /* \"#utility.yul\":10604:10608   */\n      0x00\n        /* \"#utility.yul\":10642:10644   */\n      0x20\n        /* \"#utility.yul\":10631:10640   */\n      dup3\n        /* \"#utility.yul\":10627:10645   */\n      add\n        /* \"#utility.yul\":10619:10645   */\n      swap1\n      pop\n        /* \"#utility.yul\":10691:10700   */\n      dup2\n        /* \"#utility.yul\":10685:10689   */\n      dup2\n        /* \"#utility.yul\":10681:10701   */\n      sub\n        /* \"#utility.yul\":10677:10678   */\n      0x00\n        /* \"#utility.yul\":10666:10675   */\n      dup4\n        /* \"#utility.yul\":10662:10679   */\n      add\n        /* \"#utility.yul\":10655:10702   */\n      mstore\n        /* \"#utility.yul\":10719:10850   */\n      tag_428\n        /* \"#utility.yul\":10845:10849   */\n      dup2\n        /* \"#utility.yul\":10719:10850   */\n      tag_299\n      jump\t// in\n    tag_428:\n        /* \"#utility.yul\":10711:10850   */\n      swap1\n      pop\n        /* \"#utility.yul\":10438:10857   */\n      swap2\n      swap1\n      pop\n      jump\t// out\n        /* \"#utility.yul\":10863:11034   */\n    tag_300:\n        /* \"#utility.yul\":11003:11026   */\n      0x5374616b6520616c726561647920636c61696d65640000000000000000000000\n        /* \"#utility.yul\":10999:11000   */\n      0x00\n        /* \"#utility.yul\":10991:10997   */\n      dup3\n        /* \"#utility.yul\":10987:11001   */\n      add\n        /* \"#utility.yul\":10980:11027   */\n      mstore\n        /* \"#utility.yul\":10863:11034   */\n      pop\n      jump\t// out\n        /* \"#utility.yul\":11040:11406   */\n    tag_301:\n        /* \"#utility.yul\":11182:11185   */\n      0x00\n        /* \"#utility.yul\":11203:11270   */\n      tag_431\n        /* \"#utility.yul\":11267:11269   */\n      0x15\n        /* \"#utility.yul\":11262:11265   */\n      dup4\n        /* \"#utility.yul\":11203:11270   */\n      tag_288\n      jump\t// in\n    tag_431:\n        /* \"#utility.yul\":11196:11270   */\n      swap2\n      pop\n        /* \"#utility.yul\":11279:11372   */\n      tag_432\n        /* \"#utility.yul\":11368:11371   */\n      dup3\n        /* \"#utility.yul\":11279:11372   */\n      tag_300\n      jump\t// in\n    tag_432:\n        /* \"#utility.yul\":11397:11399   */\n      0x20\n        /* \"#utility.yul\":11392:11395   */\n      dup3\n        /* \"#utility.yul\":11388:11400   */\n      add\n        /* \"#utility.yul\":11381:11400   */\n      swap1\n      pop\n        /* \"#utility.yul\":11040:11406   */\n      swap2\n      swap1\n      pop\n      jump\t// out\n        /* \"#utility.yul\":11412:11831   */\n    tag_153:\n        /* \"#utility.yul\":11578:11582   */\n      0x00\n        /* \"#utility.yul\":11616:11618   */\n      0x20\n        /* \"#utility.yul\":11605:11614   */\n      dup3\n        /* \"#utility.yul\":11601:11619   */\n      add\n        /* \"#utility.yul\":11593:11619   */\n      swap1\n      pop\n        /* \"#utility.yul\":11665:11674   */\n      dup2\n        /* \"#utility.yul\":11659:11663   */\n      dup2\n        /* \"#utility.yul\":11655:11675   */\n      sub\n        /* \"#utility.yul\":11651:11652   */\n      0x00\n        /* \"#utility.yul\":11640:11649   */\n      dup4\n        /* \"#utility.yul\":11636:11653   */\n      add\n        /* \"#utility.yul\":11629:11676   */\n      mstore\n        /* \"#utility.yul\":11693:11824   */\n      tag_434\n        /* \"#utility.yul\":11819:11823   */\n      dup2\n        /* \"#utility.yul\":11693:11824   */\n      tag_301\n      jump\t// in\n    tag_434:\n        /* \"#utility.yul\":11685:11824   */\n      swap1\n      pop\n        /* \"#utility.yul\":11412:11831   */\n      swap2\n      swap1\n      pop\n      jump\t// out\n        /* \"#utility.yul\":11837:12001   */\n    tag_302:\n        /* \"#utility.yul\":11977:11993   */\n      0x4e6f7420746865207374616b6572000000000000000000000000000000000000\n        /* \"#utility.yul\":11973:11974   */\n      0x00\n        /* \"#utility.yul\":11965:11971   */\n      dup3\n        /* \"#utility.yul\":11961:11975   */\n      add\n        /* \"#utility.yul\":11954:11994   */\n      mstore\n        /* \"#utility.yul\":11837:12001   */\n      pop\n      jump\t// out\n        /* \"#utility.yul\":12007:12373   */\n    tag_303:\n        /* \"#utility.yul\":12149:12152   */\n      0x00\n        /* \"#utility.yul\":12170:12237   */\n      tag_437\n        /* \"#utility.yul\":12234:12236   */\n      0x0e\n        /* \"#utility.yul\":12229:12232   */\n      dup4\n        /* \"#utility.yul\":12170:12237   */\n      tag_288\n      jump\t// in\n    tag_437:\n        /* \"#utility.yul\":12163:12237   */\n      swap2\n      pop\n        /* \"#utility.yul\":12246:12339   */\n      tag_438\n        /* \"#utility.yul\":12335:12338   */\n      dup3\n        /* \"#utility.yul\":12246:12339   */\n      tag_302\n      jump\t// in\n    tag_438:\n        /* \"#utility.yul\":12364:12366   */\n      0x20\n        /* \"#utility.yul\":12359:12362   */\n      dup3\n        /* \"#utility.yul\":12355:12367   */\n      add\n        /* \"#utility.yul\":12348:12367   */\n      swap1\n      pop\n        /* \"#utility.yul\":12007:12373   */\n      swap2\n      swap1\n      pop\n      jump\t// out\n        /* \"#utility.yul\":12379:12798   */\n    tag_156:\n        /* \"#utility.yul\":12545:12549   */\n      0x00\n        /* \"#utility.yul\":12583:12585   */\n      0x20\n        /* \"#utility.yul\":12572:12581   */\n      dup3\n        /* \"#utility.yul\":12568:12586   */\n      add\n        /* \"#utility.yul\":12560:12586   */\n      swap1\n      pop\n        /* \"#utility.yul\":12632:12641   */\n      dup2\n        /* \"#utility.yul\":12626:12630   */\n      dup2\n        /* \"#utility.yul\":12622:12642   */\n      sub\n        /* \"#utility.yul\":12618:12619   */\n      0x00\n        /* \"#utility.yul\":12607:12616   */\n      dup4\n        /* \"#utility.yul\":12603:12620   */\n      add\n        /* \"#utility.yul\":12596:12643   */\n      mstore\n        /* \"#utility.yul\":12660:12791   */\n      tag_440\n        /* \"#utility.yul\":12786:12790   */\n      dup2\n        /* \"#utility.yul\":12660:12791   */\n      tag_303\n      jump\t// in\n    tag_440:\n        /* \"#utility.yul\":12652:12791   */\n      swap1\n      pop\n        /* \"#utility.yul\":12379:12798   */\n      swap2\n      swap1\n      pop\n      jump\t// out\n        /* \"#utility.yul\":12804:12984   */\n    tag_304:\n        /* \"#utility.yul\":12852:12929   */\n      0x4e487b7100000000000000000000000000000000000000000000000000000000\n        /* \"#utility.yul\":12849:12850   */\n      0x00\n        /* \"#utility.yul\":12842:12930   */\n      mstore\n        /* \"#utility.yul\":12949:12953   */\n      0x11\n        /* \"#utility.yul\":12946:12947   */\n      0x04\n        /* \"#utility.yul\":12939:12954   */\n      mstore\n        /* \"#utility.yul\":12973:12977   */\n      0x24\n        /* \"#utility.yul\":12970:12971   */\n      0x00\n        /* \"#utility.yul\":12963:12978   */\n      revert\n        /* \"#utility.yul\":12990:13181   */\n    tag_158:\n        /* \"#utility.yul\":13030:13033   */\n      0x00\n        /* \"#utility.yul\":13049:13069   */\n      tag_443\n        /* \"#utility.yul\":13067:13068   */\n      dup3\n        /* \"#utility.yul\":13049:13069   */\n      tag_273\n      jump\t// in\n    tag_443:\n        /* \"#utility.yul\":13044:13069   */\n      swap2\n      pop\n        /* \"#utility.yul\":13083:13103   */\n      tag_444\n        /* \"#utility.yul\":13101:13102   */\n      dup4\n        /* \"#utility.yul\":13083:13103   */\n      tag_273\n      jump\t// in\n    tag_444:\n        /* \"#utility.yul\":13078:13103   */\n      swap3\n      pop\n        /* \"#utility.yul\":13126:13127   */\n      dup3\n        /* \"#utility.yul\":13123:13124   */\n      dup3\n        /* \"#utility.yul\":13119:13128   */\n      add\n        /* \"#utility.yul\":13112:13128   */\n      swap1\n      pop\n        /* \"#utility.yul\":13147:13150   */\n      dup1\n        /* \"#utility.yul\":13144:13145   */\n      dup3\n        /* \"#utility.yul\":13141:13151   */\n      gt\n        /* \"#utility.yul\":13138:13174   */\n      iszero\n      tag_445\n      jumpi\n        /* \"#utility.yul\":13154:13172   */\n      tag_446\n      tag_304\n      jump\t// in\n    tag_446:\n        /* \"#utility.yul\":13138:13174   */\n    tag_445:\n        /* \"#utility.yul\":12990:13181   */\n      swap3\n      swap2\n      pop\n      pop\n      jump\t// out\n        /* \"#utility.yul\":13187:13353   */\n    tag_305:\n        /* \"#utility.yul\":13327:13345   */\n      0x526566756e6420746f6f206561726c7900000000000000000000000000000000\n        /* \"#utility.yul\":13323:13324   */\n      0x00\n        /* \"#utility.yul\":13315:13321   */\n      dup3\n        /* \"#utility.yul\":13311:13325   */\n      add\n        /* \"#utility.yul\":13304:13346   */\n      mstore\n        /* \"#utility.yul\":13187:13353   */\n      pop\n      jump\t// out\n        /* \"#utility.yul\":13359:13725   */\n    tag_306:\n        /* \"#utility.yul\":13501:13504   */\n      0x00\n        /* \"#utility.yul\":13522:13589   */\n      tag_449\n        /* \"#utility.yul\":13586:13588   */\n      0x10\n        /* \"#utility.yul\":13581:13584   */\n      dup4\n        /* \"#utility.yul\":13522:13589   */\n      tag_288\n      jump\t// in\n    tag_449:\n        /* \"#utility.yul\":13515:13589   */\n      swap2\n      pop\n        /* \"#utility.yul\":13598:13691   */\n      tag_450\n        /* \"#utility.yul\":13687:13690   */\n      dup3\n        /* \"#utility.yul\":13598:13691   */\n      tag_305\n      jump\t// in\n    tag_450:\n        /* \"#utility.yul\":13716:13718   */\n      0x20\n        /* \"#utility.yul\":13711:13714   */\n      dup3\n        /* \"#utility.yul\":13707:13719   */\n      add\n        /* \"#utility.yul\":13700:13719   */\n      swap1\n      pop\n        /* \"#utility.yul\":13359:13725   */\n      swap2\n      swap1\n      pop\n      jump\t// out\n        /* \"#utility.yul\":13731:14150   */\n    tag_161:\n        /* \"#utility.yul\":13897:13901   */\n      0x00\n        /* \"#utility.yul\":13935:13937   */\n      0x20\n        /* \"#utility.yul\":13924:13933   */\n      dup3\n        /* \"#utility.yul\":13920:13938   */\n      add\n        /* \"#utility.yul\":13912:13938   */\n      swap1\n      pop\n        /* \"#utility.yul\":13984:13993   */\n      dup2\n        /* \"#utility.yul\":13978:13982   */\n      dup2\n        /* \"#utility.yul\":13974:13994   */\n      sub\n        /* \"#utility.yul\":13970:13971   */\n      0x00\n        /* \"#utility.yul\":13959:13968   */\n      dup4\n        /* \"#utility.yul\":13955:13972   */\n      add\n        /* \"#utility.yul\":13948:13995   */\n      mstore\n        /* \"#utility.yul\":14012:14143   */\n      tag_452\n        /* \"#utility.yul\":14138:14142   */\n      dup2\n        /* \"#utility.yul\":14012:14143   */\n      tag_306\n      jump\t// in\n    tag_452:\n        /* \"#utility.yul\":14004:14143   */\n      swap1\n      pop\n        /* \"#utility.yul\":13731:14150   */\n      swap2\n      swap1\n      pop\n      jump\t// out\n        /* \"#utility.yul\":14156:14328   */\n    tag_307:\n        /* \"#utility.yul\":14296:14320   */\n      0x526566756e64207472616e73666572206661696c656400000000000000000000\n        /* \"#utility.yul\":14292:14293   */\n      0x00\n        /* \"#utility.yul\":14284:14290   */\n      dup3\n        /* \"#utility.yul\":14280:14294   */\n      add\n        /* \"#utility.yul\":14273:14321   */\n      mstore\n        /* \"#utility.yul\":14156:14328   */\n      pop\n      jump\t// out\n        /* \"#utility.yul\":14334:14700   */\n    tag_308:\n        /* \"#utility.yul\":14476:14479   */\n      0x00\n        /* \"#utility.yul\":14497:14564   */\n      tag_455\n        /* \"#utility.yul\":14561:14563   */\n      0x16\n        /* \"#utility.yul\":14556:14559   */\n      dup4\n        /* \"#utility.yul\":14497:14564   */\n      tag_288\n      jump\t// in\n    tag_455:\n        /* \"#utility.yul\":14490:14564   */\n      swap2\n      pop\n        /* \"#utility.yul\":14573:14666   */\n      tag_456\n        /* \"#utility.yul\":14662:14665   */\n      dup3\n        /* \"#utility.yul\":14573:14666   */\n      tag_307\n      jump\t// in\n    tag_456:\n        /* \"#utility.yul\":14691:14693   */\n      0x20\n        /* \"#utility.yul\":14686:14689   */\n      dup3\n        /* \"#utility.yul\":14682:14694   */\n      add\n        /* \"#utility.yul\":14675:14694   */\n      swap1\n      pop\n        /* \"#utility.yul\":14334:14700   */\n      swap2\n      swap1\n      pop\n      jump\t// out\n        /* \"#utility.yul\":14706:15125   */\n    tag_168:\n        /* \"#utility.yul\":14872:14876   */\n      0x00\n        /* \"#utility.yul\":14910:14912   */\n      0x20\n        /* \"#utility.yul\":14899:14908   */\n      dup3\n        /* \"#utility.yul\":14895:14913   */\n      add\n        /* \"#utility.yul\":14887:14913   */\n      swap1\n      pop\n        /* \"#utility.yul\":14959:14968   */\n      dup2\n        /* \"#utility.yul\":14953:14957   */\n      dup2\n        /* \"#utility.yul\":14949:14969   */\n      sub\n        /* \"#utility.yul\":14945:14946   */\n      0x00\n        /* \"#utility.yul\":14934:14943   */\n      dup4\n        /* \"#utility.yul\":14930:14947   */\n      add\n        /* \"#utility.yul\":14923:14970   */\n      mstore\n        /* \"#utility.yul\":14987:15118   */\n      tag_458\n        /* \"#utility.yul\":15113:15117   */\n      dup2\n        /* \"#utility.yul\":14987:15118   */\n      tag_308\n      jump\t// in\n    tag_458:\n        /* \"#utility.yul\":14979:15118   */\n      swap1\n      pop\n        /* \"#utility.yul\":14706:15125   */\n      swap2\n      swap1\n      pop\n      jump\t// out\n        /* \"#utility.yul\":15131:15300   */\n    tag_309:\n        /* \"#utility.yul\":15271:15292   */\n      0x47616d6520616c7265616479207374616b656400000000000000000000000000\n        /* \"#utility.yul\":15267:15268   */\n      0x00\n        /* \"#utility.yul\":15259:15265   */\n      dup3\n        /* \"#utility.yul\":15255:15269   */\n      add\n        /* \"#utility.yul\":15248:15293   */\n      mstore\n        /* \"#utility.yul\":15131:15300   */\n      pop\n      jump\t// out\n        /* \"#utility.yul\":15306:15672   */\n    tag_310:\n        /* \"#utility.yul\":15448:15451   */\n      0x00\n        /* \"#utility.yul\":15469:15536   */\n      tag_461\n        /* \"#utility.yul\":15533:15535   */\n      0x13\n        /* \"#utility.yul\":15528:15531   */\n      dup4\n        /* \"#utility.yul\":15469:15536   */\n      tag_288\n      jump\t// in\n    tag_461:\n        /* \"#utility.yul\":15462:15536   */\n      swap2\n      pop\n        /* \"#utility.yul\":15545:15638   */\n      tag_462\n        /* \"#utility.yul\":15634:15637   */\n      dup3\n        /* \"#utility.yul\":15545:15638   */\n      tag_309\n      jump\t// in\n    tag_462:\n        /* \"#utility.yul\":15663:15665   */\n      0x20\n        /* \"#utility.yul\":15658:15661   */\n      dup3\n        /* \"#utility.yul\":15654:15666   */\n      add\n        /* \"#utility.yul\":15647:15666   */\n      swap1\n      pop\n        /* \"#utility.yul\":15306:15672   */\n      swap2\n      swap1\n      pop\n      jump\t// out\n        /* \"#utility.yul\":15678:16097   */\n    tag_189:\n        /* \"#utility.yul\":15844:15848   */\n      0x00\n        /* \"#utility.yul\":15882:15884   */\n      0x20\n        /* \"#utility.yul\":15871:15880   */\n      dup3\n        /* \"#utility.yul\":15867:15885   */\n      add\n        /* \"#utility.yul\":15859:15885   */\n      swap1\n      pop\n        /* \"#utility.yul\":15931:15940   */\n      dup2\n        /* \"#utility.yul\":15925:15929   */\n      dup2\n        /* \"#utility.yul\":15921:15941   */\n      sub\n        /* \"#utility.yul\":15917:15918   */\n      0x00\n        /* \"#utility.yul\":15906:15915   */\n      dup4\n        /* \"#utility.yul\":15902:15919   */\n      add\n        /* \"#utility.yul\":15895:15942   */\n      mstore\n        /* \"#utility.yul\":15959:16090   */\n      tag_464\n        /* \"#utility.yul\":16085:16089   */\n      dup2\n        /* \"#utility.yul\":15959:16090   */\n      tag_310\n      jump\t// in\n    tag_464:\n        /* \"#utility.yul\":15951:16090   */\n      swap1\n      pop\n        /* \"#utility.yul\":15678:16097   */\n      swap2\n      swap1\n      pop\n      jump\t// out\n        /* \"#utility.yul\":16103:16273   */\n    tag_311:\n        /* \"#utility.yul\":16243:16265   */\n      0x496e76616c6964207374616b6520616d6f756e74000000000000000000000000\n        /* \"#utility.yul\":16239:16240   */\n      0x00\n        /* \"#utility.yul\":16231:16237   */\n      dup3\n        /* \"#utility.yul\":16227:16241   */\n      add\n        /* \"#utility.yul\":16220:16266   */\n      mstore\n        /* \"#utility.yul\":16103:16273   */\n      pop\n      jump\t// out\n        /* \"#utility.yul\":16279:16645   */\n    tag_312:\n        /* \"#utility.yul\":16421:16424   */\n      0x00\n        /* \"#utility.yul\":16442:16509   */\n      tag_467\n        /* \"#utility.yul\":16506:16508   */\n      0x14\n        /* \"#utility.yul\":16501:16504   */\n      dup4\n        /* \"#utility.yul\":16442:16509   */\n      tag_288\n      jump\t// in\n    tag_467:\n        /* \"#utility.yul\":16435:16509   */\n      swap2\n      pop\n        /* \"#utility.yul\":16518:16611   */\n      tag_468\n        /* \"#utility.yul\":16607:16610   */\n      dup3\n        /* \"#utility.yul\":16518:16611   */\n      tag_311\n      jump\t// in\n    tag_468:\n        /* \"#utility.yul\":16636:16638   */\n      0x20\n        /* \"#utility.yul\":16631:16634   */\n      dup3\n        /* \"#utility.yul\":16627:16639   */\n      add\n        /* \"#utility.yul\":16620:16639   */\n      swap1\n      pop\n        /* \"#utility.yul\":16279:16645   */\n      swap2\n      swap1\n      pop\n      jump\t// out\n        /* \"#utility.yul\":16651:17070   */\n    tag_193:\n        /* \"#utility.yul\":16817:16821   */\n      0x00\n        /* \"#utility.yul\":16855:16857   */\n      0x20\n        /* \"#utility.yul\":16844:16853   */\n      dup3\n        /* \"#utility.yul\":16840:16858   */\n      add\n        /* \"#utility.yul\":16832:16858   */\n      swap1\n      pop\n        /* \"#utility.yul\":16904:16913   */\n      dup2\n        /* \"#utility.yul\":16898:16902   */\n      dup2\n        /* \"#utility.yul\":16894:16914   */\n      sub\n        /* \"#utility.yul\":16890:16891   */\n      0x00\n        /* \"#utility.yul\":16879:16888   */\n      dup4\n        /* \"#utility.yul\":16875:16892   */\n      add\n        /* \"#utility.yul\":16868:16915   */\n      mstore\n        /* \"#utility.yul\":16932:17063   */\n      tag_470\n        /* \"#utility.yul\":17058:17062   */\n      dup2\n        /* \"#utility.yul\":16932:17063   */\n      tag_312\n      jump\t// in\n    tag_470:\n        /* \"#utility.yul\":16924:17063   */\n      swap1\n      pop\n        /* \"#utility.yul\":16651:17070   */\n      swap2\n      swap1\n      pop\n      jump\t// out\n        /* \"#utility.yul\":17076:17486   */\n    tag_212:\n        /* \"#utility.yul\":17116:17123   */\n      0x00\n        /* \"#utility.yul\":17139:17159   */\n      tag_472\n        /* \"#utility.yul\":17157:17158   */\n      dup3\n        /* \"#utility.yul\":17139:17159   */\n      tag_273\n      jump\t// in\n    tag_472:\n        /* \"#utility.yul\":17134:17159   */\n      swap2\n      pop\n        /* \"#utility.yul\":17173:17193   */\n      tag_473\n        /* \"#utility.yul\":17191:17192   */\n      dup4\n        /* \"#utility.yul\":17173:17193   */\n      tag_273\n      jump\t// in\n    tag_473:\n        /* \"#utility.yul\":17168:17193   */\n      swap3\n      pop\n        /* \"#utility.yul\":17228:17229   */\n      dup3\n        /* \"#utility.yul\":17225:17226   */\n      dup3\n        /* \"#utility.yul\":17221:17230   */\n      mul\n        /* \"#utility.yul\":17250:17280   */\n      tag_474\n        /* \"#utility.yul\":17268:17279   */\n      dup2\n        /* \"#utility.yul\":17250:17280   */\n      tag_273\n      jump\t// in\n    tag_474:\n        /* \"#utility.yul\":17239:17280   */\n      swap2\n      pop\n        /* \"#utility.yul\":17429:17430   */\n      dup3\n        /* \"#utility.yul\":17420:17427   */\n      dup3\n        /* \"#utility.yul\":17416:17431   */\n      div\n        /* \"#utility.yul\":17413:17414   */\n      dup5\n        /* \"#utility.yul\":17410:17432   */\n      eq\n        /* \"#utility.yul\":17390:17391   */\n      dup4\n        /* \"#utility.yul\":17383:17392   */\n      iszero\n        /* \"#utility.yul\":17363:17446   */\n      or\n        /* \"#utility.yul\":17340:17479   */\n      tag_475\n      jumpi\n        /* \"#utility.yul\":17459:17477   */\n      tag_476\n      tag_304\n      jump\t// in\n    tag_476:\n        /* \"#utility.yul\":17340:17479   */\n    tag_475:\n        /* \"#utility.yul\":17124:17486   */\n      pop\n        /* \"#utility.yul\":17076:17486   */\n      swap3\n      swap2\n      pop\n      pop\n      jump\t// out\n        /* \"#utility.yul\":17492:17672   */\n    tag_313:\n        /* \"#utility.yul\":17540:17617   */\n      0x4e487b7100000000000000000000000000000000000000000000000000000000\n        /* \"#utility.yul\":17537:17538   */\n      0x00\n        /* \"#utility.yul\":17530:17618   */\n      mstore\n        /* \"#utility.yul\":17637:17641   */\n      0x12\n        /* \"#utility.yul\":17634:17635   */\n      0x04\n        /* \"#utility.yul\":17627:17642   */\n      mstore\n        /* \"#utility.yul\":17661:17665   */\n      0x24\n        /* \"#utility.yul\":17658:17659   */\n      0x00\n        /* \"#utility.yul\":17651:17666   */\n      revert\n        /* \"#utility.yul\":17678:17863   */\n    tag_214:\n        /* \"#utility.yul\":17718:17719   */\n      0x00\n        /* \"#utility.yul\":17735:17755   */\n      tag_479\n        /* \"#utility.yul\":17753:17754   */\n      dup3\n        /* \"#utility.yul\":17735:17755   */\n      tag_273\n      jump\t// in\n    tag_479:\n        /* \"#utility.yul\":17730:17755   */\n      swap2\n      pop\n        /* \"#utility.yul\":17769:17789   */\n      tag_480\n        /* \"#utility.yul\":17787:17788   */\n      dup4\n        /* \"#utility.yul\":17769:17789   */\n      tag_273\n      jump\t// in\n    tag_480:\n        /* \"#utility.yul\":17764:17789   */\n      swap3\n      pop\n        /* \"#utility.yul\":17808:17809   */\n      dup3\n        /* \"#utility.yul\":17798:17833   */\n      tag_481\n      jumpi\n        /* \"#utility.yul\":17813:17831   */\n      tag_482\n      tag_313\n      jump\t// in\n    tag_482:\n        /* \"#utility.yul\":17798:17833   */\n    tag_481:\n        /* \"#utility.yul\":17855:17856   */\n      dup3\n        /* \"#utility.yul\":17852:17853   */\n      dup3\n        /* \"#utility.yul\":17848:17857   */\n      div\n        /* \"#utility.yul\":17843:17857   */\n      swap1\n      pop\n        /* \"#utility.yul\":17678:17863   */\n      swap3\n      swap2\n      pop\n      pop\n      jump\t// out\n        /* \"#utility.yul\":17869:18063   */\n    tag_218:\n        /* \"#utility.yul\":17909:17913   */\n      0x00\n        /* \"#utility.yul\":17929:17949   */\n      tag_484\n        /* \"#utility.yul\":17947:17948   */\n      dup3\n        /* \"#utility.yul\":17929:17949   */\n      tag_273\n      jump\t// in\n    tag_484:\n        /* \"#utility.yul\":17924:17949   */\n      swap2\n      pop\n        /* \"#utility.yul\":17963:17983   */\n      tag_485\n        /* \"#utility.yul\":17981:17982   */\n      dup4\n        /* \"#utility.yul\":17963:17983   */\n      tag_273\n      jump\t// in\n    tag_485:\n        /* \"#utility.yul\":17958:17983   */\n      swap3\n      pop\n        /* \"#utility.yul\":18007:18008   */\n      dup3\n        /* \"#utility.yul\":18004:18005   */\n      dup3\n        /* \"#utility.yul\":18000:18009   */\n      sub\n        /* \"#utility.yul\":17992:18009   */\n      swap1\n      pop\n        /* \"#utility.yul\":18031:18032   */\n      dup2\n        /* \"#utility.yul\":18025:18029   */\n      dup2\n        /* \"#utility.yul\":18022:18033   */\n      gt\n        /* \"#utility.yul\":18019:18056   */\n      iszero\n      tag_486\n      jumpi\n        /* \"#utility.yul\":18036:18054   */\n      tag_487\n      tag_304\n      jump\t// in\n    tag_487:\n        /* \"#utility.yul\":18019:18056   */\n    tag_486:\n        /* \"#utility.yul\":17869:18063   */\n      swap3\n      swap2\n      pop\n      pop\n      jump\t// out\n        /* \"#utility.yul\":18069:18241   */\n    tag_314:\n        /* \"#utility.yul\":18209:18233   */\n      0x5061796f7574207472616e73666572206661696c656400000000000000000000\n        /* \"#utility.yul\":18205:18206   */\n      0x00\n        /* \"#utility.yul\":18197:18203   */\n      dup3\n        /* \"#utility.yul\":18193:18207   */\n      add\n        /* \"#utility.yul\":18186:18234   */\n      mstore\n        /* \"#utility.yul\":18069:18241   */\n      pop\n      jump\t// out\n        /* \"#utility.yul\":18247:18613   */\n    tag_315:\n        /* \"#utility.yul\":18389:18392   */\n      0x00\n        /* \"#utility.yul\":18410:18477   */\n      tag_490\n        /* \"#utility.yul\":18474:18476   */\n      0x16\n        /* \"#utility.yul\":18469:18472   */\n      dup4\n        /* \"#utility.yul\":18410:18477   */\n      tag_288\n      jump\t// in\n    tag_490:\n        /* \"#utility.yul\":18403:18477   */\n      swap2\n      pop\n        /* \"#utility.yul\":18486:18579   */\n      tag_491\n        /* \"#utility.yul\":18575:18578   */\n      dup3\n        /* \"#utility.yul\":18486:18579   */\n      tag_314\n      jump\t// in\n    tag_491:\n        /* \"#utility.yul\":18604:18606   */\n      0x20\n        /* \"#utility.yul\":18599:18602   */\n      dup3\n        /* \"#utility.yul\":18595:18607   */\n      add\n        /* \"#utility.yul\":18588:18607   */\n      swap1\n      pop\n        /* \"#utility.yul\":18247:18613   */\n      swap2\n      swap1\n      pop\n      jump\t// out\n        /* \"#utility.yul\":18619:19038   */\n    tag_226:\n        /* \"#utility.yul\":18785:18789   */\n      0x00\n        /* \"#utility.yul\":18823:18825   */\n      0x20\n        /* \"#utility.yul\":18812:18821   */\n      dup3\n        /* \"#utility.yul\":18808:18826   */\n      add\n        /* \"#utility.yul\":18800:18826   */\n      swap1\n      pop\n        /* \"#utility.yul\":18872:18881   */\n      dup2\n        /* \"#utility.yul\":18866:18870   */\n      dup2\n        /* \"#utility.yul\":18862:18882   */\n      sub\n        /* \"#utility.yul\":18858:18859   */\n      0x00\n        /* \"#utility.yul\":18847:18856   */\n      dup4\n        /* \"#utility.yul\":18843:18860   */\n      add\n        /* \"#utility.yul\":18836:18883   */\n      mstore\n        /* \"#utility.yul\":18900:19031   */\n      tag_493\n        /* \"#utility.yul\":19026:19030   */\n      dup2\n        /* \"#utility.yul\":18900:19031   */\n      tag_315\n      jump\t// in\n    tag_493:\n        /* \"#utility.yul\":18892:19031   */\n      swap1\n      pop\n        /* \"#utility.yul\":18619:19038   */\n      swap2\n      swap1\n      pop\n      jump\t// out\n        /* \"#utility.yul\":19044:19474   */\n    tag_229:\n        /* \"#utility.yul\":19187:19191   */\n      0x00\n        /* \"#utility.yul\":19225:19227   */\n      0x60\n        /* \"#utility.yul\":19214:19223   */\n      dup3\n        /* \"#utility.yul\":19210:19228   */\n      add\n        /* \"#utility.yul\":19202:19228   */\n      swap1\n      pop\n        /* \"#utility.yul\":19238:19303   */\n      tag_495\n        /* \"#utility.yul\":19300:19301   */\n      0x00\n        /* \"#utility.yul\":19289:19298   */\n      dup4\n        /* \"#utility.yul\":19285:19302   */\n      add\n        /* \"#utility.yul\":19276:19282   */\n      dup7\n        /* \"#utility.yul\":19238:19303   */\n      tag_276\n      jump\t// in\n    tag_495:\n        /* \"#utility.yul\":19313:19385   */\n      tag_496\n        /* \"#utility.yul\":19381:19383   */\n      0x20\n        /* \"#utility.yul\":19370:19379   */\n      dup4\n        /* \"#utility.yul\":19366:19384   */\n      add\n        /* \"#utility.yul\":19357:19363   */\n      dup6\n        /* \"#utility.yul\":19313:19385   */\n      tag_274\n      jump\t// in\n    tag_496:\n        /* \"#utility.yul\":19395:19467   */\n      tag_497\n        /* \"#utility.yul\":19463:19465   */\n      0x40\n        /* \"#utility.yul\":19452:19461   */\n      dup4\n        /* \"#utility.yul\":19448:19466   */\n      add\n        /* \"#utility.yul\":19439:19445   */\n      dup5\n        /* \"#utility.yul\":19395:19467   */\n      tag_274\n      jump\t// in\n    tag_497:\n        /* \"#utility.yul\":19044:19474   */\n      swap5\n      swap4\n      pop\n      pop\n      pop\n      pop\n      jump\t// out\n        /* \"#utility.yul\":19480:19661   */\n    tag_316:\n        /* \"#utility.yul\":19620:19653   */\n      0x5265656e7472616e637947756172643a207265656e7472616e742063616c6c00\n        /* \"#utility.yul\":19616:19617   */\n      0x00\n        /* \"#utility.yul\":19608:19614   */\n      dup3\n        /* \"#utility.yul\":19604:19618   */\n      add\n        /* \"#utility.yul\":19597:19654   */\n      mstore\n        /* \"#utility.yul\":19480:19661   */\n      pop\n      jump\t// out\n        /* \"#utility.yul\":19667:20033   */\n    tag_317:\n        /* \"#utility.yul\":19809:19812   */\n      0x00\n        /* \"#utility.yul\":19830:19897   */\n      tag_500\n        /* \"#utility.yul\":19894:19896   */\n      0x1f\n        /* \"#utility.yul\":19889:19892   */\n      dup4\n        /* \"#utility.yul\":19830:19897   */\n      tag_288\n      jump\t// in\n    tag_500:\n        /* \"#utility.yul\":19823:19897   */\n      swap2\n      pop\n        /* \"#utility.yul\":19906:19999   */\n      tag_501\n        /* \"#utility.yul\":19995:19998   */\n      dup3\n        /* \"#utility.yul\":19906:19999   */\n      tag_316\n      jump\t// in\n    tag_501:\n        /* \"#utility.yul\":20024:20026   */\n      0x20\n        /* \"#utility.yul\":20019:20022   */\n      dup3\n        /* \"#utility.yul\":20015:20027   */\n      add\n        /* \"#utility.yul\":20008:20027   */\n      swap1\n      pop\n        /* \"#utility.yul\":19667:20033   */\n      swap2\n      swap1\n      pop\n      jump\t// out\n        /* \"#utility.yul\":20039:20458   */\n    tag_241:\n        /* \"#utility.yul\":20205:20209   */\n      0x00\n        /* \"#utility.yul\":20243:20245   */\n      0x20\n        /* \"#utility.yul\":20232:20241   */\n      dup3\n        /* \"#utility.yul\":20228:20246   */\n      add\n        /* \"#utility.yul\":20220:20246   */\n      swap1\n      pop\n        /* \"#utility.yul\":20292:20301   */\n      dup2\n        /* \"#utility.yul\":20286:20290   */\n      dup2\n        /* \"#utility.yul\":20282:20302   */\n      sub\n        /* \"#utility.yul\":20278:20279   */\n      0x00\n        /* \"#utility.yul\":20267:20276   */\n      dup4\n        /* \"#utility.yul\":20263:20280   */\n      add\n        /* \"#utility.yul\":20256:20303   */\n      mstore\n        /* \"#utility.yul\":20320:20451   */\n      tag_503\n        /* \"#utility.yul\":20446:20450   */\n      dup2\n        /* \"#utility.yul\":20320:20451   */\n      tag_317\n      jump\t// in\n    tag_503:\n        /* \"#utility.yul\":20312:20451   */\n      swap1\n      pop\n        /* \"#utility.yul\":20039:20458   */\n      swap2\n      swap1\n      pop\n      jump\t// out\n        /* \"#utility.yul\":20464:20630   */\n    tag_318:\n        /* \"#utility.yul\":20604:20622   */\n      0x5061757361626c653a2070617573656400000000000000000000000000000000\n        /* \"#utility.yul\":20600:20601   */\n      0x00\n        /* \"#utility.yul\":20592:20598   */\n      dup3\n        /* \"#utility.yul\":20588:20602   */\n      add\n        /* \"#utility.yul\":20581:20623   */\n      mstore\n        /* \"#utility.yul\":20464:20630   */\n      pop\n      jump\t// out\n        /* \"#utility.yul\":20636:21002   */\n    tag_319:\n        /* \"#utility.yul\":20778:20781   */\n      0x00\n        /* \"#utility.yul\":20799:20866   */\n      tag_506\n        /* \"#utility.yul\":20863:20865   */\n      0x10\n        /* \"#utility.yul\":20858:20861   */\n      dup4\n        /* \"#utility.yul\":20799:20866   */\n      tag_288\n      jump\t// in\n    tag_506:\n        /* \"#utility.yul\":20792:20866   */\n      swap2\n      pop\n        /* \"#utility.yul\":20875:20968   */\n      tag_507\n        /* \"#utility.yul\":20964:20967   */\n      dup3\n        /* \"#utility.yul\":20875:20968   */\n      tag_318\n      jump\t// in\n    tag_507:\n        /* \"#utility.yul\":20993:20995   */\n      0x20\n        /* \"#utility.yul\":20988:20991   */\n      dup3\n        /* \"#utility.yul\":20984:20996   */\n      add\n        /* \"#utility.yul\":20977:20996   */\n      swap1\n      pop\n        /* \"#utility.yul\":20636:21002   */\n      swap2\n      swap1\n      pop\n      jump\t// out\n        /* \"#utility.yul\":21008:21427   */\n    tag_259:\n        /* \"#utility.yul\":21174:21178   */\n      0x00\n        /* \"#utility.yul\":21212:21214   */\n      0x20\n        /* \"#utility.yul\":21201:21210   */\n      dup3\n        /* \"#utility.yul\":21197:21215   */\n      add\n        /* \"#utility.yul\":21189:21215   */\n      swap1\n      pop\n        /* \"#utility.yul\":21261:21270   */\n      dup2\n        /* \"#utility.yul\":21255:21259   */\n      dup2\n        /* \"#utility.yul\":21251:21271   */\n      sub\n        /* \"#utility.yul\":21247:21248   */\n      0x00\n        /* \"#utility.yul\":21236:21245   */\n      dup4\n        /* \"#utility.yul\":21232:21249   */\n      add\n        /* \"#utility.yul\":21225:21272   */\n      mstore\n        /* \"#utility.yul\":21289:21420   */\n      tag_509\n        /* \"#utility.yul\":21415:21419   */\n      dup2\n        /* \"#utility.yul\":21289:21420   */\n      tag_319\n      jump\t// in\n    tag_509:\n        /* \"#utility.yul\":21281:21420   */\n      swap1\n      pop\n        /* \"#utility.yul\":21008:21427   */\n      swap2\n      swap1\n      pop\n      jump\t// out\n        /* \"#utility.yul\":21433:21603   */\n    tag_320:\n        /* \"#utility.yul\":21573:21595   */\n      0x5061757361626c653a206e6f7420706175736564000000000000000000000000\n        /* \"#utility.yul\":21569:21570   */\n      0x00\n        /* \"#utility.yul\":21561:21567   */\n      dup3\n        /* \"#utility.yul\":21557:21571   */\n      add\n        /* \"#utility.yul\":21550:21596   */\n      mstore\n        /* \"#utility.yul\":21433:21603   */\n      pop\n      jump\t// out\n        /* \"#utility.yul\":21609:21975   */\n    tag_321:\n        /* \"#utility.yul\":21751:21754   */\n      0x00\n        /* \"#utility.yul\":21772:21839   */\n      tag_512\n        /* \"#utility.yul\":21836:21838   */\n      0x14\n        /* \"#utility.yul\":21831:21834   */\n      dup4\n        /* \"#utility.yul\":21772:21839   */\n      tag_288\n      jump\t// in\n    tag_512:\n        /* \"#utility.yul\":21765:21839   */\n      swap2\n      pop\n        /* \"#utility.yul\":21848:21941   */\n      tag_513\n        /* \"#utility.yul\":21937:21940   */\n      dup3\n        /* \"#utility.yul\":21848:21941   */\n      tag_320\n      jump\t// in\n    tag_513:\n        /* \"#utility.yul\":21966:21968   */\n      0x20\n        /* \"#utility.yul\":21961:21964   */\n      dup3\n        /* \"#utility.yul\":21957:21969   */\n      add\n        /* \"#utility.yul\":21950:21969   */\n      swap1\n      pop\n        /* \"#utility.yul\":21609:21975   */\n      swap2\n      swap1\n      pop\n      jump\t// out\n        /* \"#utility.yul\":21981:22400   */\n    tag_265:\n        /* \"#utility.yul\":22147:22151   */\n      0x00\n        /* \"#utility.yul\":22185:22187   */\n      0x20\n        /* \"#utility.yul\":22174:22183   */\n      dup3\n        /* \"#utility.yul\":22170:22188   */\n      add\n        /* \"#utility.yul\":22162:22188   */\n      swap1\n      pop\n        /* \"#utility.yul\":22234:22243   */\n      dup2\n        /* \"#utility.yul\":22228:22232   */\n      dup2\n        /* \"#utility.yul\":22224:22244   */\n      sub\n        /* \"#utility.yul\":22220:22221   */\n      0x00\n        /* \"#utility.yul\":22209:22218   */\n      dup4\n        /* \"#utility.yul\":22205:22222   */\n      add\n        /* \"#utility.yul\":22198:22245   */\n      mstore\n        /* \"#utility.yul\":22262:22393   */\n      tag_515\n        /* \"#utility.yul\":22388:22392   */\n      dup2\n        /* \"#utility.yul\":22262:22393   */\n      tag_321\n      jump\t// in\n    tag_515:\n        /* \"#utility.yul\":22254:22393   */\n      swap1\n      pop\n        /* \"#utility.yul\":21981:22400   */\n      swap2\n      swap1\n      pop\n      jump\t// out\n\n    auxdata: 0xa26469706673582212207c219f177d3cd74a3147442bc76f33225acb73b8ccce1a646b15a2519b020c5a64736f6c63430008140033\n}\n",
				"bytecode": {
					"linkReferences": {},
					"object": "60806040526064600355620151806004553480156200001c575f80fd5b50335f73ffffffffffffffffffffffffffffffffffffffff168173ffffffffffffffffffffffffffffffffffffffff160362000091575f6040517f1e4fbdf7000000000000000000000000000000000000000000000000000000008152600401620000889190620001cd565b60405180910390fd5b620000a281620000c960201b60201c565b50600180819055505f60025f6101000a81548160ff021916908315150217905550620001e8565b5f805f9054906101000a900473ffffffffffffffffffffffffffffffffffffffff169050815f806101000a81548173ffffffffffffffffffffffffffffffffffffffff021916908373ffffffffffffffffffffffffffffffffffffffff1602179055508173ffffffffffffffffffffffffffffffffffffffff168173ffffffffffffffffffffffffffffffffffffffff167f8be0079c531659141344cd1fd0a4f28419497f9722a3daafe3b4186f6b6457e060405160405180910390a35050565b5f73ffffffffffffffffffffffffffffffffffffffff82169050919050565b5f620001b5826200018a565b9050919050565b620001c781620001a9565b82525050565b5f602082019050620001e25f830184620001bc565b92915050565b611d1680620001f65f395ff3fe60806040526004361061010c575f3560e01c80638da5cb5b11610094578063d996206911610063578063d996206914610308578063e3e594ae14610332578063f2fde38b1461034e578063f55d3d0c14610376578063fd967f471461039e57610113565b80638da5cb5b1461024d5780638fee640714610277578063abaebbe3146102b6578063c58a34cc146102e057610113565b806370dea79a116100db57806370dea79a146101a7578063715018a6146101d157806372c27b62146101e7578063748926f31461020f5780638456cb591461023757610113565b8063164e68de1461011557806324a9d8531461013d5780633f4ba83a146101675780635c975abb1461017d57610113565b3661011357005b005b348015610120575f80fd5b5061013b600480360381019061013691906112fe565b6103c8565b005b348015610148575f80fd5b50610151610521565b60405161015e9190611341565b60405180910390f35b348015610172575f80fd5b5061017b610527565b005b348015610188575f80fd5b50610191610539565b60405161019e9190611374565b60405180910390f35b3480156101b2575f80fd5b506101bb61054e565b6040516101c89190611341565b60405180910390f35b3480156101dc575f80fd5b506101e5610554565b005b3480156101f2575f80fd5b5061020d600480360381019061020891906113b7565b610567565b005b34801561021a575f80fd5b5061023560048036038101906102309190611415565b6105f5565b005b348015610242575f80fd5b5061024b610942565b005b348015610258575f80fd5b50610261610954565b60405161026e9190611460565b60405180910390f35b348015610282575f80fd5b5061029d60048036038101906102989190611415565b61097b565b6040516102ad9493929190611479565b60405180910390f35b3480156102c1575f80fd5b506102ca6109d2565b6040516102d79190611341565b60405180910390f35b3480156102eb575f80fd5b50610306600480360381019061030191906113b7565b6109de565b005b348015610313575f80fd5b5061031c610a27565b6040516103299190611341565b60405180910390f35b61034c60048036038101906103479190611415565b610a2f565b005b348015610359575f80fd5b50610374600480360381019061036f91906114e6565b610c55565b005b348015610381575f80fd5b5061039c6004803603810190610397919061153b565b610cd9565b005b3480156103a9575f80fd5b506103b2610f9d565b6040516103bf9190611341565b60405180910390f35b6103d0610fa3565b6103d861102a565b5f4790505f811161041e576040517f08c379a0000000000000000000000000000000000000000000000000000000008152600401610415906115d3565b60405180910390fd5b5f8273ffffffffffffffffffffffffffffffffffffffff16826040516104439061161e565b5f6040518083038185875af1925050503d805f811461047d576040519150601f19603f3d011682016040523d82523d5f602084013e610482565b606091505b50509050806104c6576040517f08c379a00000000000000000000000000000000000000000000000000000000081526004016104bd9061167c565b60405180910390fd5b8273ffffffffffffffffffffffffffffffffffffffff167f78473f3f373f7673597f4f0fa5873cb4d375fea6d4339ad6b56dbd411513cb3f8360405161050c9190611341565b60405180910390a2505061051e611079565b50565b60035481565b61052f610fa3565b610537611082565b565b5f60025f9054906101000a900460ff16905090565b60045481565b61055c610fa3565b6105655f6110e3565b565b61056f610fa3565b6103e88111156105b4576040517f08c379a00000000000000000000000000000000000000000000000000000000081526004016105ab906116e4565b60405180910390fd5b806003819055507f8c4d35e54a3f2ef1134138fd8ea3daee6a3c89e10d2665996babdf70261e2c76816040516105ea9190611341565b60405180910390a150565b6105fd61102a565b5f60055f8381526020019081526020015f2090505f73ffffffffffffffffffffffffffffffffffffffff16815f015f9054906101000a900473ffffffffffffffffffffffffffffffffffffffff1673ffffffffffffffffffffffffffffffffffffffff16036106a1576040517f08c379a00000000000000000000000000000000000000000000000000000000081526004016106989061174c565b60405180910390fd5b806003015f9054906101000a900460ff16156106f2576040517f08c379a00000000000000000000000000000000000000000000000000000000081526004016106e9906117b4565b60405180910390fd5b805f015f9054906101000a900473ffffffffffffffffffffffffffffffffffffffff1673ffffffffffffffffffffffffffffffffffffffff163373ffffffffffffffffffffffffffffffffffffffff1614610782576040517f08c379a00000000000000000000000000000000000000000000000000000000081526004016107799061181c565b60405180910390fd5b60045481600201546107949190611867565b4210156107d6576040517f08c379a00000000000000000000000000000000000000000000000000000000081526004016107cd906118e4565b60405180910390fd5b6001816003015f6101000a81548160ff0219169083151502179055505f815f015f9054906101000a900473ffffffffffffffffffffffffffffffffffffffff1673ffffffffffffffffffffffffffffffffffffffff16826001015460405161083d9061161e565b5f6040518083038185875af1925050503d805f8114610877576040519150601f19603f3d011682016040523d82523d5f602084013e61087c565b606091505b50509050806108c0576040517f08c379a00000000000000000000000000000000000000000000000000000000081526004016108b79061194c565b60405180910390fd5b815f015f9054906101000a900473ffffffffffffffffffffffffffffffffffffffff1673ffffffffffffffffffffffffffffffffffffffff16837ff552ca82e113ac3c539c3d617f29fcd19c172a0c75dad017555c9e109f7fe183846001015460405161092d9190611341565b60405180910390a3505061093f611079565b50565b61094a610fa3565b6109526111a4565b565b5f805f9054906101000a900473ffffffffffffffffffffffffffffffffffffffff16905090565b6005602052805f5260405f205f91509050805f015f9054906101000a900473ffffffffffffffffffffffffffffffffffffffff1690806001015490806002015490806003015f9054906101000a900460ff16905084565b670de0b6b3a764000081565b6109e6610fa3565b806004819055507f1a1cd30e223035d872019b55a16a88e0fad18aac07397d463628bf771cc10b9481604051610a1c9190611341565b60405180910390a150565b633b9aca0081565b610a37611206565b610a3f61102a565b5f73ffffffffffffffffffffffffffffffffffffffff1660055f8381526020019081526020015f205f015f9054906101000a900473ffffffffffffffffffffffffffffffffffffffff1673ffffffffffffffffffffffffffffffffffffffff1614610adf576040517f08c379a0000000000000000000000000000000000000000000000000000000008152600401610ad6906119b4565b60405180910390fd5b633b9aca00341480610af85750670de0b6b3a764000034145b610b37576040517f08c379a0000000000000000000000000000000000000000000000000000000008152600401610b2e90611a1c565b60405180910390fd5b60405180608001604052803373ffffffffffffffffffffffffffffffffffffffff1681526020013481526020014281526020015f151581525060055f8381526020019081526020015f205f820151815f015f6101000a81548173ffffffffffffffffffffffffffffffffffffffff021916908373ffffffffffffffffffffffffffffffffffffffff16021790555060208201518160010155604082015181600201556060820151816003015f6101000a81548160ff0219169083151502179055509050503373ffffffffffffffffffffffffffffffffffffffff16817f4807bf3675dd96fef3e347de4b9e59f83bcd89cfce47c61b4951deb6096e517934604051610c429190611341565b60405180910390a3610c52611079565b50565b610c5d610fa3565b5f73ffffffffffffffffffffffffffffffffffffffff168173ffffffffffffffffffffffffffffffffffffffff1603610ccd575f6040517f1e4fbdf7000000000000000000000000000000000000000000000000000000008152600401610cc49190611460565b60405180910390fd5b610cd6816110e3565b50565b610ce1610fa3565b610ce961102a565b5f60055f8481526020019081526020015f2090505f73ffffffffffffffffffffffffffffffffffffffff16815f015f9054906101000a900473ffffffffffffffffffffffffffffffffffffffff1673ffffffffffffffffffffffffffffffffffffffff1603610d8d576040517f08c379a0000000000000000000000000000000000000000000000000000000008152600401610d849061174c565b60405180910390fd5b806003015f9054906101000a900460ff1615610dde576040517f08c379a0000000000000000000000000000000000000000000000000000000008152600401610dd5906117b4565b60405180910390fd5b6001816003015f6101000a81548160ff0219169083151502179055505f6127106003548360010154610e109190611a3a565b610e1a9190611aa8565b90505f83610e28575f610e39565b818360010154610e389190611ad8565b5b90508315610f11575f835f015f9054906101000a900473ffffffffffffffffffffffffffffffffffffffff1673ffffffffffffffffffffffffffffffffffffffff1682604051610e889061161e565b5f6040518083038185875af1925050503d805f8114610ec2576040519150601f19603f3d011682016040523d82523d5f602084013e610ec7565b606091505b5050905080610f0b576040517f08c379a0000000000000000000000000000000000000000000000000000000008152600401610f0290611b55565b60405180910390fd5b50610f19565b826001015491505b825f015f9054906101000a900473ffffffffffffffffffffffffffffffffffffffff1673ffffffffffffffffffffffffffffffffffffffff16857ff22284b09ae65daf7c31e5e5c8c54582ac8f0971f7bc3d89c3ed4ad4b89df411868486604051610f8693929190611b73565b60405180910390a3505050610f99611079565b5050565b61271081565b610fab611250565b73ffffffffffffffffffffffffffffffffffffffff16610fc9610954565b73ffffffffffffffffffffffffffffffffffffffff161461102857610fec611250565b6040517f118cdaa700000000000000000000000000000000000000000000000000000000815260040161101f9190611460565b60405180910390fd5b565b60026001540361106f576040517f08c379a000000000000000000000000000000000000000000000000000000000815260040161106690611bf2565b60405180910390fd5b6002600181905550565b60018081905550565b61108a611257565b5f60025f6101000a81548160ff0219169083151502179055507f5db9ee0a495bf2e6ff9c91a7834c1ba4fdd244a5e8aa4e537bd38aeae4b073aa6110cc611250565b6040516110d99190611460565b60405180910390a1565b5f805f9054906101000a900473ffffffffffffffffffffffffffffffffffffffff169050815f806101000a81548173ffffffffffffffffffffffffffffffffffffffff021916908373ffffffffffffffffffffffffffffffffffffffff1602179055508173ffffffffffffffffffffffffffffffffffffffff168173ffffffffffffffffffffffffffffffffffffffff167f8be0079c531659141344cd1fd0a4f28419497f9722a3daafe3b4186f6b6457e060405160405180910390a35050565b6111ac611206565b600160025f6101000a81548160ff0219169083151502179055507f62e78cea01bee320cd4e420270b5ea74000d11b0c9f74754ebdbfc544b05a2586111ef611250565b6040516111fc9190611460565b60405180910390a1565b61120e610539565b1561124e576040517f08c379a000000000000000000000000000000000000000000000000000000000815260040161124590611c5a565b60405180910390fd5b565b5f33905090565b61125f610539565b61129e576040517f08c379a000000000000000000000000000000000000000000000000000000000815260040161129590611cc2565b60405180910390fd5b565b5f80fd5b5f73ffffffffffffffffffffffffffffffffffffffff82169050919050565b5f6112cd826112a4565b9050919050565b6112dd816112c3565b81146112e7575f80fd5b50565b5f813590506112f8816112d4565b92915050565b5f60208284031215611313576113126112a0565b5b5f611320848285016112ea565b91505092915050565b5f819050919050565b61133b81611329565b82525050565b5f6020820190506113545f830184611332565b92915050565b5f8115159050919050565b61136e8161135a565b82525050565b5f6020820190506113875f830184611365565b92915050565b61139681611329565b81146113a0575f80fd5b50565b5f813590506113b18161138d565b92915050565b5f602082840312156113cc576113cb6112a0565b5b5f6113d9848285016113a3565b91505092915050565b5f819050919050565b6113f4816113e2565b81146113fe575f80fd5b50565b5f8135905061140f816113eb565b92915050565b5f6020828403121561142a576114296112a0565b5b5f61143784828501611401565b91505092915050565b5f61144a826112a4565b9050919050565b61145a81611440565b82525050565b5f6020820190506114735f830184611451565b92915050565b5f60808201905061148c5f830187611451565b6114996020830186611332565b6114a66040830185611332565b6114b36060830184611365565b95945050505050565b6114c581611440565b81146114cf575f80fd5b50565b5f813590506114e0816114bc565b92915050565b5f602082840312156114fb576114fa6112a0565b5b5f611508848285016114d2565b91505092915050565b61151a8161135a565b8114611524575f80fd5b50565b5f8135905061153581611511565b92915050565b5f8060408385031215611551576115506112a0565b5b5f61155e85828601611401565b925050602061156f85828601611527565b9150509250929050565b5f82825260208201905092915050565b7f4e6f2062616c616e636520746f207769746864726177000000000000000000005f82015250565b5f6115bd601683611579565b91506115c882611589565b602082019050919050565b5f6020820190508181035f8301526115ea816115b1565b9050919050565b5f81905092915050565b50565b5f6116095f836115f1565b9150611614826115fb565b5f82019050919050565b5f611628826115fe565b9150819050919050565b7f5769746864726177616c206661696c65640000000000000000000000000000005f82015250565b5f611666601183611579565b915061167182611632565b602082019050919050565b5f6020820190508181035f8301526116938161165a565b9050919050565b7f46656520746f6f206c6172676520286d617820313025290000000000000000005f82015250565b5f6116ce601783611579565b91506116d98261169a565b602082019050919050565b5f6020820190508181035f8301526116fb816116c2565b9050919050565b7f4e6f207374616b652065786973747300000000000000000000000000000000005f82015250565b5f611736600f83611579565b915061174182611702565b602082019050919050565b5f6020820190508181035f8301526117638161172a565b9050919050565b7f5374616b6520616c726561647920636c61696d656400000000000000000000005f82015250565b5f61179e601583611579565b91506117a98261176a565b602082019050919050565b5f6020820190508181035f8301526117cb81611792565b9050919050565b7f4e6f7420746865207374616b65720000000000000000000000000000000000005f82015250565b5f611806600e83611579565b9150611811826117d2565b602082019050919050565b5f6020820190508181035f830152611833816117fa565b9050919050565b7f4e487b71000000000000000000000000000000000000000000000000000000005f52601160045260245ffd5b5f61187182611329565b915061187c83611329565b92508282019050808211156118945761189361183a565b5b92915050565b7f526566756e6420746f6f206561726c79000000000000000000000000000000005f82015250565b5f6118ce601083611579565b91506118d98261189a565b602082019050919050565b5f6020820190508181035f8301526118fb816118c2565b9050919050565b7f526566756e64207472616e73666572206661696c6564000000000000000000005f82015250565b5f611936601683611579565b915061194182611902565b602082019050919050565b5f6020820190508181035f8301526119638161192a565b9050919050565b7f47616d6520616c7265616479207374616b6564000000000000000000000000005f82015250565b5f61199e601383611579565b91506119a98261196a565b602082019050919050565b5f6020820190508181035f8301526119cb81611992565b9050919050565b7f496e76616c6964207374616b6520616d6f756e740000000000000000000000005f82015250565b5f611a06601483611579565b9150611a11826119d2565b602082019050919050565b5f6020820190508181035f830152611a33816119fa565b9050919050565b5f611a4482611329565b9150611a4f83611329565b9250828202611a5d81611329565b91508282048414831517611a7457611a7361183a565b5b5092915050565b7f4e487b71000000000000000000000000000000000000000000000000000000005f52601260045260245ffd5b5f611ab282611329565b9150611abd83611329565b925082611acd57611acc611a7b565b5b828204905092915050565b5f611ae282611329565b9150611aed83611329565b9250828203905081811115611b0557611b0461183a565b5b92915050565b7f5061796f7574207472616e73666572206661696c6564000000000000000000005f82015250565b5f611b3f601683611579565b9150611b4a82611b0b565b602082019050919050565b5f6020820190508181035f830152611b6c81611b33565b9050919050565b5f606082019050611b865f830186611365565b611b936020830185611332565b611ba06040830184611332565b949350505050565b7f5265656e7472616e637947756172643a207265656e7472616e742063616c6c005f82015250565b5f611bdc601f83611579565b9150611be782611ba8565b602082019050919050565b5f6020820190508181035f830152611c0981611bd0565b9050919050565b7f5061757361626c653a20706175736564000000000000000000000000000000005f82015250565b5f611c44601083611579565b9150611c4f82611c10565b602082019050919050565b5f6020820190508181035f830152611c7181611c38565b9050919050565b7f5061757361626c653a206e6f74207061757365640000000000000000000000005f82015250565b5f611cac601483611579565b9150611cb782611c78565b602082019050919050565b5f6020820190508181035f830152611cd981611ca0565b905091905056fea26469706673582212207c219f177d3cd74a3147442bc76f33225acb73b8ccce1a646b15a2519b020c5a64736f6c63430008140033",
					"opcodes": "PUSH1 0x80 PUSH1 0x40 MSTORE PUSH1 0x64 PUSH1 0x3 SSTORE PUSH3 0x15180 PUSH1 0x4 SSTORE CALLVALUE DUP1 ISZERO PUSH3 0x1C JUMPI PUSH0 DUP1 REVERT JUMPDEST POP CALLER PUSH0 PUSH20 0xFFFFFFFFFFFFFFFFFFFFFFFFFFFFFFFFFFFFFFFF AND DUP2 PUSH20 0xFFFFFFFFFFFFFFFFFFFFFFFFFFFFFFFFFFFFFFFF AND SUB PUSH3 0x91 JUMPI PUSH0 PUSH1 0x40 MLOAD PUSH32 0x1E4FBDF700000000000000000000000000000000000000000000000000000000 DUP2 MSTORE PUSH1 0x4 ADD PUSH3 0x88 SWAP2 SWAP1 PUSH3 0x1CD JUMP JUMPDEST PUSH1 0x40 MLOAD DUP1 SWAP2 SUB SWAP1 REVERT JUMPDEST PUSH3 0xA2 DUP2 PUSH3 0xC9 PUSH1 0x20 SHL PUSH1 0x20 SHR JUMP JUMPDEST POP PUSH1 0x1 DUP1 DUP2 SWAP1 SSTORE POP PUSH0 PUSH1 0x2 PUSH0 PUSH2 0x100 EXP DUP2 SLOAD DUP2 PUSH1 0xFF MUL NOT AND SWAP1 DUP4 ISZERO ISZERO MUL OR SWAP1 SSTORE POP PUSH3 0x1E8 JUMP JUMPDEST PUSH0 DUP1 PUSH0 SWAP1 SLOAD SWAP1 PUSH2 0x100 EXP SWAP1 DIV PUSH20 0xFFFFFFFFFFFFFFFFFFFFFFFFFFFFFFFFFFFFFFFF AND SWAP1 POP DUP2 PUSH0 DUP1 PUSH2 0x100 EXP DUP2 SLOAD DUP2 PUSH20 0xFFFFFFFFFFFFFFFFFFFFFFFFFFFFFFFFFFFFFFFF MUL NOT AND SWAP1 DUP4 PUSH20 0xFFFFFFFFFFFFFFFFFFFFFFFFFFFFFFFFFFFFFFFF AND MUL OR SWAP1 SSTORE POP DUP2 PUSH20 0xFFFFFFFFFFFFFFFFFFFFFFFFFFFFFFFFFFFFFFFF AND DUP2 PUSH20 0xFFFFFFFFFFFFFFFFFFFFFFFFFFFFFFFFFFFFFFFF AND PUSH32 0x8BE0079C531659141344CD1FD0A4F28419497F9722A3DAAFE3B4186F6B6457E0 PUSH1 0x40 MLOAD PUSH1 0x40 MLOAD DUP1 SWAP2 SUB SWAP1 LOG3 POP POP JUMP JUMPDEST PUSH0 PUSH20 0xFFFFFFFFFFFFFFFFFFFFFFFFFFFFFFFFFFFFFFFF DUP3 AND SWAP1 POP SWAP2 SWAP1 POP JUMP JUMPDEST PUSH0 PUSH3 0x1B5 DUP3 PUSH3 0x18A JUMP JUMPDEST SWAP1 POP SWAP2 SWAP1 POP JUMP JUMPDEST PUSH3 0x1C7 DUP2 PUSH3 0x1A9 JUMP JUMPDEST DUP3 MSTORE POP POP JUMP JUMPDEST PUSH0 PUSH1 0x20 DUP3 ADD SWAP1 POP PUSH3 0x1E2 PUSH0 DUP4 ADD DUP5 PUSH3 0x1BC JUMP JUMPDEST SWAP3 SWAP2 POP POP JUMP JUMPDEST PUSH2 0x1D16 DUP1 PUSH3 0x1F6 PUSH0 CODECOPY PUSH0 RETURN INVALID PUSH1 0x80 PUSH1 0x40 MSTORE PUSH1 0x4 CALLDATASIZE LT PUSH2 0x10C JUMPI PUSH0 CALLDATALOAD PUSH1 0xE0 SHR DUP1 PUSH4 0x8DA5CB5B GT PUSH2 0x94 JUMPI DUP1 PUSH4 0xD9962069 GT PUSH2 0x63 JUMPI DUP1 PUSH4 0xD9962069 EQ PUSH2 0x308 JUMPI DUP1 PUSH4 0xE3E594AE EQ PUSH2 0x332 JUMPI DUP1 PUSH4 0xF2FDE38B EQ PUSH2 0x34E JUMPI DUP1 PUSH4 0xF55D3D0C EQ PUSH2 0x376 JUMPI DUP1 PUSH4 0xFD967F47 EQ PUSH2 0x39E JUMPI PUSH2 0x113 JUMP JUMPDEST DUP1 PUSH4 0x8DA5CB5B EQ PUSH2 0x24D JUMPI DUP1 PUSH4 0x8FEE6407 EQ PUSH2 0x277 JUMPI DUP1 PUSH4 0xABAEBBE3 EQ PUSH2 0x2B6 JUMPI DUP1 PUSH4 0xC58A34CC EQ PUSH2 0x2E0 JUMPI PUSH2 0x113 JUMP JUMPDEST DUP1 PUSH4 0x70DEA79A GT PUSH2 0xDB JUMPI DUP1 PUSH4 0x70DEA79A EQ PUSH2 0x1A7 JUMPI DUP1 PUSH4 0x715018A6 EQ PUSH2 0x1D1 JUMPI DUP1 PUSH4 0x72C27B62 EQ PUSH2 0x1E7 JUMPI DUP1 PUSH4 0x748926F3 EQ PUSH2 0x20F JUMPI DUP1 PUSH4 0x8456CB59 EQ PUSH2 0x237 JUMPI PUSH2 0x113 JUMP JUMPDEST DUP1 PUSH4 0x164E68DE EQ PUSH2 0x115 JUMPI DUP1 PUSH4 0x24A9D853 EQ PUSH2 0x13D JUMPI DUP1 PUSH4 0x3F4BA83A EQ PUSH2 0x167 JUMPI DUP1 PUSH4 0x5C975ABB EQ PUSH2 0x17D JUMPI PUSH2 0x113 JUMP JUMPDEST CALLDATASIZE PUSH2 0x113 JUMPI STOP JUMPDEST STOP JUMPDEST CALLVALUE DUP1 ISZERO PUSH2 0x120 JUMPI PUSH0 DUP1 REVERT JUMPDEST POP PUSH2 0x13B PUSH1 0x4 DUP1 CALLDATASIZE SUB DUP2 ADD SWAP1 PUSH2 0x136 SWAP2 SWAP1 PUSH2 0x12FE JUMP JUMPDEST PUSH2 0x3C8 JUMP JUMPDEST STOP JUMPDEST CALLVALUE DUP1 ISZERO PUSH2 0x148 JUMPI PUSH0 DUP1 REVERT JUMPDEST POP PUSH2 0x151 PUSH2 0x521 JUMP JUMPDEST PUSH1 0x40 MLOAD PUSH2 0x15E SWAP2 SWAP1 PUSH2 0x1341 JUMP JUMPDEST PUSH1 0x40 MLOAD DUP1 SWAP2 SUB SWAP1 RETURN JUMPDEST CALLVALUE DUP1 ISZERO PUSH2 0x172 JUMPI PUSH0 DUP1 REVERT JUMPDEST POP PUSH2 0x17B PUSH2 0x527 JUMP JUMPDEST STOP JUMPDEST CALLVALUE DUP1 ISZERO PUSH2 0x188 JUMPI PUSH0 DUP1 REVERT JUMPDEST POP PUSH2 0x191 PUSH2 0x539 JUMP JUMPDEST PUSH1 0x40 MLOAD PUSH2 0x19E SWAP2 SWAP1 PUSH2 0x1374 JUMP JUMPDEST PUSH1 0x40 MLOAD DUP1 SWAP2 SUB SWAP1 RETURN JUMPDEST CALLVALUE DUP1 ISZERO PUSH2 0x1B2 JUMPI PUSH0 DUP1 REVERT JUMPDEST POP PUSH2 0x1BB PUSH2 0x54E JUMP JUMPDEST PUSH1 0x40 MLOAD PUSH2 0x1C8 SWAP2 SWAP1 PUSH2 0x1341 JUMP JUMPDEST PUSH1 0x40 MLOAD DUP1 SWAP2 SUB SWAP1 RETURN JUMPDEST CALLVALUE DUP1 ISZERO PUSH2 0x1DC JUMPI PUSH0 DUP1 REVERT JUMPDEST POP PUSH2 0x1E5 PUSH2 0x554 JUMP JUMPDEST STOP JUMPDEST CALLVALUE DUP1 ISZERO PUSH2 0x1F2 JUMPI PUSH0 DUP1 REVERT JUMPDEST POP PUSH2 0x20D PUSH1 0x4 DUP1 CALLDATASIZE SUB DUP2 ADD SWAP1 PUSH2 0x208 SWAP2 SWAP1 PUSH2 0x13B7 JUMP JUMPDEST PUSH2 0x567 JUMP JUMPDEST STOP JUMPDEST CALLVALUE DUP1 ISZERO PUSH2 0x21A JUMPI PUSH0 DUP1 REVERT JUMPDEST POP PUSH2 0x235 PUSH1 0x4 DUP1 CALLDATASIZE SUB DUP2 ADD SWAP1 PUSH2 0x230 SWAP2 SWAP1 PUSH2 0x1415 JUMP JUMPDEST PUSH2 0x5F5 JUMP JUMPDEST STOP JUMPDEST CALLVALUE DUP1 ISZERO PUSH2 0x242 JUMPI PUSH0 DUP1 REVERT JUMPDEST POP PUSH2 0x24B PUSH2 0x942 JUMP JUMPDEST STOP JUMPDEST CALLVALUE DUP1 ISZERO PUSH2 0x258 JUMPI PUSH0 DUP1 REVERT JUMPDEST POP PUSH2 0x261 PUSH2 0x954 JUMP JUMPDEST PUSH1 0x40 MLOAD PUSH2 0x26E SWAP2 SWAP1 PUSH2 0x1460 JUMP JUMPDEST PUSH1 0x40 MLOAD DUP1 SWAP2 SUB SWAP1 RETURN JUMPDEST CALLVALUE DUP1 ISZERO PUSH2 0x282 JUMPI PUSH0 DUP1 REVERT JUMPDEST POP PUSH2 0x29D PUSH1 0x4 DUP1 CALLDATASIZE SUB DUP2 ADD SWAP1 PUSH2 0x298 SWAP2 SWAP1 PUSH2 0x1415 JUMP JUMPDEST PUSH2 0x97B JUMP JUMPDEST PUSH1 0x40 MLOAD PUSH2 0x2AD SWAP5 SWAP4 SWAP3 SWAP2 SWAP1 PUSH2 0x1479 JUMP JUMPDEST PUSH1 0x40 MLOAD DUP1 SWAP2 SUB SWAP1 RETURN JUMPDEST CALLVALUE DUP1 ISZERO PUSH2 0x2C1 JUMPI PUSH0 DUP1 REVERT JUMPDEST POP PUSH2 0x2CA PUSH2 0x9D2 JUMP JUMPDEST PUSH1 0x40 MLOAD PUSH2 0x2D7 SWAP2 SWAP1 PUSH2 0x1341 JUMP JUMPDEST PUSH1 0x40 MLOAD DUP1 SWAP2 SUB SWAP1 RETURN JUMPDEST CALLVALUE DUP1 ISZERO PUSH2 0x2EB JUMPI PUSH0 DUP1 REVERT JUMPDEST POP PUSH2 0x306 PUSH1 0x4 DUP1 CALLDATASIZE SUB DUP2 ADD SWAP1 PUSH2 0x301 SWAP2 SWAP1 PUSH2 0x13B7 JUMP JUMPDEST PUSH2 0x9DE JUMP JUMPDEST STOP JUMPDEST CALLVALUE DUP1 ISZERO PUSH2 0x313 JUMPI PUSH0 DUP1 REVERT JUMPDEST POP PUSH2 0x31C PUSH2 0xA27 JUMP JUMPDEST PUSH1 0x40 MLOAD PUSH2 0x329 SWAP2 SWAP1 PUSH2 0x1341 JUMP JUMPDEST PUSH1 0x40 MLOAD DUP1 SWAP2 SUB SWAP1 RETURN JUMPDEST PUSH2 0x34C PUSH1 0x4 DUP1 CALLDATASIZE SUB DUP2 ADD SWAP1 PUSH2 0x347 SWAP2 SWAP1 PUSH2 0x1415 JUMP JUMPDEST PUSH2 0xA2F JUMP JUMPDEST STOP JUMPDEST CALLVALUE DUP1 ISZERO PUSH2 0x359 JUMPI PUSH0 DUP1 REVERT JUMPDEST POP PUSH2 0x374 PUSH1 0x4 DUP1 CALLDATASIZE SUB DUP2 ADD SWAP1 PUSH2 0x36F SWAP2 SWAP1 PUSH2 0x14E6 JUMP JUMPDEST PUSH2 0xC55 JUMP JUMPDEST STOP JUMPDEST CALLVALUE DUP1 ISZERO PUSH2 0x381 JUMPI PUSH0 DUP1 REVERT JUMPDEST POP PUSH2 0x39C PUSH1 0x4 DUP1 CALLDATASIZE SUB DUP2 ADD SWAP1 PUSH2 0x397 SWAP2 SWAP1 PUSH2 0x153B JUMP JUMPDEST PUSH2 0xCD9 JUMP JUMPDEST STOP JUMPDEST CALLVALUE DUP1 ISZERO PUSH2 0x3A9 JUMPI PUSH0 DUP1 REVERT JUMPDEST POP PUSH2 0x3B2 PUSH2 0xF9D JUMP JUMPDEST PUSH1 0x40 MLOAD PUSH2 0x3BF SWAP2 SWAP1 PUSH2 0x1341 JUMP JUMPDEST PUSH1 0x40 MLOAD DUP1 SWAP2 SUB SWAP1 RETURN JUMPDEST PUSH2 0x3D0 PUSH2 0xFA3 JUMP JUMPDEST PUSH2 0x3D8 PUSH2 0x102A JUMP JUMPDEST PUSH0 SELFBALANCE SWAP1 POP PUSH0 DUP2 GT PUSH2 0x41E JUMPI PUSH1 0x40 MLOAD PUSH32 0x8C379A000000000000000000000000000000000000000000000000000000000 DUP2 MSTORE PUSH1 0x4 ADD PUSH2 0x415 SWAP1 PUSH2 0x15D3 JUMP JUMPDEST PUSH1 0x40 MLOAD DUP1 SWAP2 SUB SWAP1 REVERT JUMPDEST PUSH0 DUP3 PUSH20 0xFFFFFFFFFFFFFFFFFFFFFFFFFFFFFFFFFFFFFFFF AND DUP3 PUSH1 0x40 MLOAD PUSH2 0x443 SWAP1 PUSH2 0x161E JUMP JUMPDEST PUSH0 PUSH1 0x40 MLOAD DUP1 DUP4 SUB DUP2 DUP6 DUP8 GAS CALL SWAP3 POP POP POP RETURNDATASIZE DUP1 PUSH0 DUP2 EQ PUSH2 0x47D JUMPI PUSH1 0x40 MLOAD SWAP2 POP PUSH1 0x1F NOT PUSH1 0x3F RETURNDATASIZE ADD AND DUP3 ADD PUSH1 0x40 MSTORE RETURNDATASIZE DUP3 MSTORE RETURNDATASIZE PUSH0 PUSH1 0x20 DUP5 ADD RETURNDATACOPY PUSH2 0x482 JUMP JUMPDEST PUSH1 0x60 SWAP2 POP JUMPDEST POP POP SWAP1 POP DUP1 PUSH2 0x4C6 JUMPI PUSH1 0x40 MLOAD PUSH32 0x8C379A000000000000000000000000000000000000000000000000000000000 DUP2 MSTORE PUSH1 0x4 ADD PUSH2 0x4BD SWAP1 PUSH2 0x167C JUMP JUMPDEST PUSH1 0x40 MLOAD DUP1 SWAP2 SUB SWAP1 REVERT JUMPDEST DUP3 PUSH20 0xFFFFFFFFFFFFFFFFFFFFFFFFFFFFFFFFFFFFFFFF AND PUSH32 0x78473F3F373F7673597F4F0FA5873CB4D375FEA6D4339AD6B56DBD411513CB3F DUP4 PUSH1 0x40 MLOAD PUSH2 0x50C SWAP2 SWAP1 PUSH2 0x1341 JUMP JUMPDEST PUSH1 0x40 MLOAD DUP1 SWAP2 SUB SWAP1 LOG2 POP POP PUSH2 0x51E PUSH2 0x1079 JUMP JUMPDEST POP JUMP JUMPDEST PUSH1 0x3 SLOAD DUP2 JUMP JUMPDEST PUSH2 0x52F PUSH2 0xFA3 JUMP JUMPDEST PUSH2 0x537 PUSH2 0x1082 JUMP JUMPDEST JUMP JUMPDEST PUSH0 PUSH1 0x2 PUSH0 SWAP1 SLOAD SWAP1 PUSH2 0x100 EXP SWAP1 DIV PUSH1 0xFF AND SWAP1 POP SWAP1 JUMP JUMPDEST PUSH1 0x4 SLOAD DUP2 JUMP JUMPDEST PUSH2 0x55C PUSH2 0xFA3 JUMP JUMPDEST PUSH2 0x565 PUSH0 PUSH2 0x10E3 JUMP JUMPDEST JUMP JUMPDEST PUSH2 0x56F PUSH2 0xFA3 JUMP JUMPDEST PUSH2 0x3E8 DUP2 GT ISZERO PUSH2 0x5B4 JUMPI PUSH1 0x40 MLOAD PUSH32 0x8C379A000000000000000000000000000000000000000000000000000000000 DUP2 MSTORE PUSH1 0x4 ADD PUSH2 0x5AB SWAP1 PUSH2 0x16E4 JUMP JUMPDEST PUSH1 0x40 MLOAD DUP1 SWAP2 SUB SWAP1 REVERT JUMPDEST DUP1 PUSH1 0x3 DUP2 SWAP1 SSTORE POP PUSH32 0x8C4D35E54A3F2EF1134138FD8EA3DAEE6A3C89E10D2665996BABDF70261E2C76 DUP2 PUSH1 0x40 MLOAD PUSH2 0x5EA SWAP2 SWAP1 PUSH2 0x1341 JUMP JUMPDEST PUSH1 0x40 MLOAD DUP1 SWAP2 SUB SWAP1 LOG1 POP JUMP JUMPDEST PUSH2 0x5FD PUSH2 0x102A JUMP JUMPDEST PUSH0 PUSH1 0x5 PUSH0 DUP4 DUP2 MSTORE PUSH1 0x20 ADD SWAP1 DUP2 MSTORE PUSH1 0x20 ADD PUSH0 KECCAK256 SWAP1 POP PUSH0 PUSH20 0xFFFFFFFFFFFFFFFFFFFFFFFFFFFFFFFFFFFFFFFF AND DUP2 PUSH0 ADD PUSH0 SWAP1 SLOAD SWAP1 PUSH2 0x100 EXP SWAP1 DIV PUSH20 0xFFFFFFFFFFFFFFFFFFFFFFFFFFFFFFFFFFFFFFFF AND PUSH20 0xFFFFFFFFFFFFFFFFFFFFFFFFFFFFFFFFFFFFFFFF AND SUB PUSH2 0x6A1 JUMPI PUSH1 0x40 MLOAD PUSH32 0x8C379A000000000000000000000000000000000000000000000000000000000 DUP2 MSTORE PUSH1 0x4 ADD PUSH2 0x698 SWAP1 PUSH2 0x174C JUMP JUMPDEST PUSH1 0x40 MLOAD DUP1 SWAP2 SUB SWAP1 REVERT JUMPDEST DUP1 PUSH1 0x3 ADD PUSH0 SWAP1 SLOAD SWAP1 PUSH2 0x100 EXP SWAP1 DIV PUSH1 0xFF AND ISZERO PUSH2 0x6F2 JUMPI PUSH1 0x40 MLOAD PUSH32 0x8C379A000000000000000000000000000000000000000000000000000000000 DUP2 MSTORE PUSH1 0x4 ADD PUSH2 0x6E9 SWAP1 PUSH2 0x17B4 JUMP JUMPDEST PUSH1 0x40 MLOAD DUP1 SWAP2 SUB SWAP1 REVERT JUMPDEST DUP1 PUSH0 ADD PUSH0 SWAP1 SLOAD SWAP1 PUSH2 0x100 EXP SWAP1 DIV PUSH20 0xFFFFFFFFFFFFFFFFFFFFFFFFFFFFFFFFFFFFFFFF AND PUSH20 0xFFFFFFFFFFFFFFFFFFFFFFFFFFFFFFFFFFFFFFFF AND CALLER PUSH20 0xFFFFFFFFFFFFFFFFFFFFFFFFFFFFFFFFFFFFFFFF AND EQ PUSH2 0x782 JUMPI PUSH1 0x40 MLOAD PUSH32 0x8C379A000000000000000000000000000000000000000000000000000000000 DUP2 MSTORE PUSH1 0x4 ADD PUSH2 0x779 SWAP1 PUSH2 0x181C JUMP JUMPDEST PUSH1 0x40 MLOAD DUP1 SWAP2 SUB SWAP1 REVERT JUMPDEST PUSH1 0x4 SLOAD DUP2 PUSH1 0x2 ADD SLOAD PUSH2 0x794 SWAP2 SWAP1 PUSH2 0x1867 JUMP JUMPDEST TIMESTAMP LT ISZERO PUSH2 0x7D6 JUMPI PUSH1 0x40 MLOAD PUSH32 0x8C379A000000000000000000000000000000000000000000000000000000000 DUP2 MSTORE PUSH1 0x4 ADD PUSH2 0x7CD SWAP1 PUSH2 0x18E4 JUMP JUMPDEST PUSH1 0x40 MLOAD DUP1 SWAP2 SUB SWAP1 REVERT JUMPDEST PUSH1 0x1 DUP2 PUSH1 0x3 ADD PUSH0 PUSH2 0x100 EXP DUP2 SLOAD DUP2 PUSH1 0xFF MUL NOT AND SWAP1 DUP4 ISZERO ISZERO MUL OR SWAP1 SSTORE POP PUSH0 DUP2 PUSH0 ADD PUSH0 SWAP1 SLOAD SWAP1 PUSH2 0x100 EXP SWAP1 DIV PUSH20 0xFFFFFFFFFFFFFFFFFFFFFFFFFFFFFFFFFFFFFFFF AND PUSH20 0xFFFFFFFFFFFFFFFFFFFFFFFFFFFFFFFFFFFFFFFF AND DUP3 PUSH1 0x1 ADD SLOAD PUSH1 0x40 MLOAD PUSH2 0x83D SWAP1 PUSH2 0x161E JUMP JUMPDEST PUSH0 PUSH1 0x40 MLOAD DUP1 DUP4 SUB DUP2 DUP6 DUP8 GAS CALL SWAP3 POP POP POP RETURNDATASIZE DUP1 PUSH0 DUP2 EQ PUSH2 0x877 JUMPI PUSH1 0x40 MLOAD SWAP2 POP PUSH1 0x1F NOT PUSH1 0x3F RETURNDATASIZE ADD AND DUP3 ADD PUSH1 0x40 MSTORE RETURNDATASIZE DUP3 MSTORE RETURNDATASIZE PUSH0 PUSH1 0x20 DUP5 ADD RETURNDATACOPY PUSH2 0x87C JUMP JUMPDEST PUSH1 0x60 SWAP2 POP JUMPDEST POP POP SWAP1 POP DUP1 PUSH2 0x8C0 JUMPI PUSH1 0x40 MLOAD PUSH32 0x8C379A000000000000000000000000000000000000000000000000000000000 DUP2 MSTORE PUSH1 0x4 ADD PUSH2 0x8B7 SWAP1 PUSH2 0x194C JUMP JUMPDEST PUSH1 0x40 MLOAD DUP1 SWAP2 SUB SWAP1 REVERT JUMPDEST DUP2 PUSH0 ADD PUSH0 SWAP1 SLOAD SWAP1 PUSH2 0x100 EXP SWAP1 DIV PUSH20 0xFFFFFFFFFFFFFFFFFFFFFFFFFFFFFFFFFFFFFFFF AND PUSH20 0xFFFFFFFFFFFFFFFFFFFFFFFFFFFFFFFFFFFFFFFF AND DUP4 PUSH32 0xF552CA82E113AC3C539C3D617F29FCD19C172A0C75DAD017555C9E109F7FE183 DUP5 PUSH1 0x1 ADD SLOAD PUSH1 0x40 MLOAD PUSH2 0x92D SWAP2 SWAP1 PUSH2 0x1341 JUMP JUMPDEST PUSH1 0x40 MLOAD DUP1 SWAP2 SUB SWAP1 LOG3 POP POP PUSH2 0x93F PUSH2 0x1079 JUMP JUMPDEST POP JUMP JUMPDEST PUSH2 0x94A PUSH2 0xFA3 JUMP JUMPDEST PUSH2 0x952 PUSH2 0x11A4 JUMP JUMPDEST JUMP JUMPDEST PUSH0 DUP1 PUSH0 SWAP1 SLOAD SWAP1 PUSH2 0x100 EXP SWAP1 DIV PUSH20 0xFFFFFFFFFFFFFFFFFFFFFFFFFFFFFFFFFFFFFFFF AND SWAP1 POP SWAP1 JUMP JUMPDEST PUSH1 0x5 PUSH1 0x20 MSTORE DUP1 PUSH0 MSTORE PUSH1 0x40 PUSH0 KECCAK256 PUSH0 SWAP2 POP SWAP1 POP DUP1 PUSH0 ADD PUSH0 SWAP1 SLOAD SWAP1 PUSH2 0x100 EXP SWAP1 DIV PUSH20 0xFFFFFFFFFFFFFFFFFFFFFFFFFFFFFFFFFFFFFFFF AND SWAP1 DUP1 PUSH1 0x1 ADD SLOAD SWAP1 DUP1 PUSH1 0x2 ADD SLOAD SWAP1 DUP1 PUSH1 0x3 ADD PUSH0 SWAP1 SLOAD SWAP1 PUSH2 0x100 EXP SWAP1 DIV PUSH1 0xFF AND SWAP1 POP DUP5 JUMP JUMPDEST PUSH8 0xDE0B6B3A7640000 DUP2 JUMP JUMPDEST PUSH2 0x9E6 PUSH2 0xFA3 JUMP JUMPDEST DUP1 PUSH1 0x4 DUP2 SWAP1 SSTORE POP PUSH32 0x1A1CD30E223035D872019B55A16A88E0FAD18AAC07397D463628BF771CC10B94 DUP2 PUSH1 0x40 MLOAD PUSH2 0xA1C SWAP2 SWAP1 PUSH2 0x1341 JUMP JUMPDEST PUSH1 0x40 MLOAD DUP1 SWAP2 SUB SWAP1 LOG1 POP JUMP JUMPDEST PUSH4 0x3B9ACA00 DUP2 JUMP JUMPDEST PUSH2 0xA37 PUSH2 0x1206 JUMP JUMPDEST PUSH2 0xA3F PUSH2 0x102A JUMP JUMPDEST PUSH0 PUSH20 0xFFFFFFFFFFFFFFFFFFFFFFFFFFFFFFFFFFFFFFFF AND PUSH1 0x5 PUSH0 DUP4 DUP2 MSTORE PUSH1 0x20 ADD SWAP1 DUP2 MSTORE PUSH1 0x20 ADD PUSH0 KECCAK256 PUSH0 ADD PUSH0 SWAP1 SLOAD SWAP1 PUSH2 0x100 EXP SWAP1 DIV PUSH20 0xFFFFFFFFFFFFFFFFFFFFFFFFFFFFFFFFFFFFFFFF AND PUSH20 0xFFFFFFFFFFFFFFFFFFFFFFFFFFFFFFFFFFFFFFFF AND EQ PUSH2 0xADF JUMPI PUSH1 0x40 MLOAD PUSH32 0x8C379A000000000000000000000000000000000000000000000000000000000 DUP2 MSTORE PUSH1 0x4 ADD PUSH2 0xAD6 SWAP1 PUSH2 0x19B4 JUMP JUMPDEST PUSH1 0x40 MLOAD DUP1 SWAP2 SUB SWAP1 REVERT JUMPDEST PUSH4 0x3B9ACA00 CALLVALUE EQ DUP1 PUSH2 0xAF8 JUMPI POP PUSH8 0xDE0B6B3A7640000 CALLVALUE EQ JUMPDEST PUSH2 0xB37 JUMPI PUSH1 0x40 MLOAD PUSH32 0x8C379A000000000000000000000000000000000000000000000000000000000 DUP2 MSTORE PUSH1 0x4 ADD PUSH2 0xB2E SWAP1 PUSH2 0x1A1C JUMP JUMPDEST PUSH1 0x40 MLOAD DUP1 SWAP2 SUB SWAP1 REVERT JUMPDEST PUSH1 0x40 MLOAD DUP1 PUSH1 0x80 ADD PUSH1 0x40 MSTORE DUP1 CALLER PUSH20 0xFFFFFFFFFFFFFFFFFFFFFFFFFFFFFFFFFFFFFFFF AND DUP2 MSTORE PUSH1 0x20 ADD CALLVALUE DUP2 MSTORE PUSH1 0x20 ADD TIMESTAMP DUP2 MSTORE PUSH1 0x20 ADD PUSH0 ISZERO ISZERO DUP2 MSTORE POP PUSH1 0x5 PUSH0 DUP4 DUP2 MSTORE PUSH1 0x20 ADD SWAP1 DUP2 MSTORE PUSH1 0x20 ADD PUSH0 KECCAK256 PUSH0 DUP3 ADD MLOAD DUP2 PUSH0 ADD PUSH0 PUSH2 0x100 EXP DUP2 SLOAD DUP2 PUSH20 0xFFFFFFFFFFFFFFFFFFFFFFFFFFFFFFFFFFFFFFFF MUL NOT AND SWAP1 DUP4 PUSH20 0xFFFFFFFFFFFFFFFFFFFFFFFFFFFFFFFFFFFFFFFF AND MUL OR SWAP1 SSTORE POP PUSH1 0x20 DUP3 ADD MLOAD DUP2 PUSH1 0x1 ADD SSTORE PUSH1 0x40 DUP3 ADD MLOAD DUP2 PUSH1 0x2 ADD SSTORE PUSH1 0x60 DUP3 ADD MLOAD DUP2 PUSH1 0x3 ADD PUSH0 PUSH2 0x100 EXP DUP2 SLOAD DUP2 PUSH1 0xFF MUL NOT AND SWAP1 DUP4 ISZERO ISZERO MUL OR SWAP1 SSTORE POP SWAP1 POP POP CALLER PUSH20 0xFFFFFFFFFFFFFFFFFFFFFFFFFFFFFFFFFFFFFFFF AND DUP2 PUSH32 0x4807BF3675DD96FEF3E347DE4B9E59F83BCD89CFCE47C61B4951DEB6096E5179 CALLVALUE PUSH1 0x40 MLOAD PUSH2 0xC42 SWAP2 SWAP1 PUSH2 0x1341 JUMP JUMPDEST PUSH1 0x40 MLOAD DUP1 SWAP2 SUB SWAP1 LOG3 PUSH2 0xC52 PUSH2 0x1079 JUMP JUMPDEST POP JUMP JUMPDEST PUSH2 0xC5D PUSH2 0xFA3 JUMP JUMPDEST PUSH0 PUSH20 0xFFFFFFFFFFFFFFFFFFFFFFFFFFFFFFFFFFFFFFFF AND DUP2 PUSH20 0xFFFFFFFFFFFFFFFFFFFFFFFFFFFFFFFFFFFFFFFF AND SUB PUSH2 0xCCD JUMPI PUSH0 PUSH1 0x40 MLOAD PUSH32 0x1E4FBDF700000000000000000000000000000000000000000000000000000000 DUP2 MSTORE PUSH1 0x4 ADD PUSH2 0xCC4 SWAP2 SWAP1 PUSH2 0x1460 JUMP JUMPDEST PUSH1 0x40 MLOAD DUP1 SWAP2 SUB SWAP1 REVERT JUMPDEST PUSH2 0xCD6 DUP2 PUSH2 0x10E3 JUMP JUMPDEST POP JUMP JUMPDEST PUSH2 0xCE1 PUSH2 0xFA3 JUMP JUMPDEST PUSH2 0xCE9 PUSH2 0x102A JUMP JUMPDEST PUSH0 PUSH1 0x5 PUSH0 DUP5 DUP2 MSTORE PUSH1 0x20 ADD SWAP1 DUP2 MSTORE PUSH1 0x20 ADD PUSH0 KECCAK256 SWAP1 POP PUSH0 PUSH20 0xFFFFFFFFFFFFFFFFFFFFFFFFFFFFFFFFFFFFFFFF AND DUP2 PUSH0 ADD PUSH0 SWAP1 SLOAD SWAP1 PUSH2 0x100 EXP SWAP1 DIV PUSH20 0xFFFFFFFFFFFFFFFFFFFFFFFFFFFFFFFFFFFFFFFF AND PUSH20 0xFFFFFFFFFFFFFFFFFFFFFFFFFFFFFFFFFFFFFFFF AND SUB PUSH2 0xD8D JUMPI PUSH1 0x40 MLOAD PUSH32 0x8C379A000000000000000000000000000000000000000000000000000000000 DUP2 MSTORE PUSH1 0x4 ADD PUSH2 0xD84 SWAP1 PUSH2 0x174C JUMP JUMPDEST PUSH1 0x40 MLOAD DUP1 SWAP2 SUB SWAP1 REVERT JUMPDEST DUP1 PUSH1 0x3 ADD PUSH0 SWAP1 SLOAD SWAP1 PUSH2 0x100 EXP SWAP1 DIV PUSH1 0xFF AND ISZERO PUSH2 0xDDE JUMPI PUSH1 0x40 MLOAD PUSH32 0x8C379A000000000000000000000000000000000000000000000000000000000 DUP2 MSTORE PUSH1 0x4 ADD PUSH2 0xDD5 SWAP1 PUSH2 0x17B4 JUMP JUMPDEST PUSH1 0x40 MLOAD DUP1 SWAP2 SUB SWAP1 REVERT JUMPDEST PUSH1 0x1 DUP2 PUSH1 0x3 ADD PUSH0 PUSH2 0x100 EXP DUP2 SLOAD DUP2 PUSH1 0xFF MUL NOT AND SWAP1 DUP4 ISZERO ISZERO MUL OR SWAP1 SSTORE POP PUSH0 PUSH2 0x2710 PUSH1 0x3 SLOAD DUP4 PUSH1 0x1 ADD SLOAD PUSH2 0xE10 SWAP2 SWAP1 PUSH2 0x1A3A JUMP JUMPDEST PUSH2 0xE1A SWAP2 SWAP1 PUSH2 0x1AA8 JUMP JUMPDEST SWAP1 POP PUSH0 DUP4 PUSH2 0xE28 JUMPI PUSH0 PUSH2 0xE39 JUMP JUMPDEST DUP2 DUP4 PUSH1 0x1 ADD SLOAD PUSH2 0xE38 SWAP2 SWAP1 PUSH2 0x1AD8 JUMP JUMPDEST JUMPDEST SWAP1 POP DUP4 ISZERO PUSH2 0xF11 JUMPI PUSH0 DUP4 PUSH0 ADD PUSH0 SWAP1 SLOAD SWAP1 PUSH2 0x100 EXP SWAP1 DIV PUSH20 0xFFFFFFFFFFFFFFFFFFFFFFFFFFFFFFFFFFFFFFFF AND PUSH20 0xFFFFFFFFFFFFFFFFFFFFFFFFFFFFFFFFFFFFFFFF AND DUP3 PUSH1 0x40 MLOAD PUSH2 0xE88 SWAP1 PUSH2 0x161E JUMP JUMPDEST PUSH0 PUSH1 0x40 MLOAD DUP1 DUP4 SUB DUP2 DUP6 DUP8 GAS CALL SWAP3 POP POP POP RETURNDATASIZE DUP1 PUSH0 DUP2 EQ PUSH2 0xEC2 JUMPI PUSH1 0x40 MLOAD SWAP2 POP PUSH1 0x1F NOT PUSH1 0x3F RETURNDATASIZE ADD AND DUP3 ADD PUSH1 0x40 MSTORE RETURNDATASIZE DUP3 MSTORE RETURNDATASIZE PUSH0 PUSH1 0x20 DUP5 ADD RETURNDATACOPY PUSH2 0xEC7 JUMP JUMPDEST PUSH1 0x60 SWAP2 POP JUMPDEST POP POP SWAP1 POP DUP1 PUSH2 0xF0B JUMPI PUSH1 0x40 MLOAD PUSH32 0x8C379A000000000000000000000000000000000000000000000000000000000 DUP2 MSTORE PUSH1 0x4 ADD PUSH2 0xF02 SWAP1 PUSH2 0x1B55 JUMP JUMPDEST PUSH1 0x40 MLOAD DUP1 SWAP2 SUB SWAP1 REVERT JUMPDEST POP PUSH2 0xF19 JUMP JUMPDEST DUP3 PUSH1 0x1 ADD SLOAD SWAP2 POP JUMPDEST DUP3 PUSH0 ADD PUSH0 SWAP1 SLOAD SWAP1 PUSH2 0x100 EXP SWAP1 DIV PUSH20 0xFFFFFFFFFFFFFFFFFFFFFFFFFFFFFFFFFFFFFFFF AND PUSH20 0xFFFFFFFFFFFFFFFFFFFFFFFFFFFFFFFFFFFFFFFF AND DUP6 PUSH32 0xF22284B09AE65DAF7C31E5E5C8C54582AC8F0971F7BC3D89C3ED4AD4B89DF411 DUP7 DUP5 DUP7 PUSH1 0x40 MLOAD PUSH2 0xF86 SWAP4 SWAP3 SWAP2 SWAP1 PUSH2 0x1B73 JUMP JUMPDEST PUSH1 0x40 MLOAD DUP1 SWAP2 SUB SWAP1 LOG3 POP POP POP PUSH2 0xF99 PUSH2 0x1079 JUMP JUMPDEST POP POP JUMP JUMPDEST PUSH2 0x2710 DUP2 JUMP JUMPDEST PUSH2 0xFAB PUSH2 0x1250 JUMP JUMPDEST PUSH20 0xFFFFFFFFFFFFFFFFFFFFFFFFFFFFFFFFFFFFFFFF AND PUSH2 0xFC9 PUSH2 0x954 JUMP JUMPDEST PUSH20 0xFFFFFFFFFFFFFFFFFFFFFFFFFFFFFFFFFFFFFFFF AND EQ PUSH2 0x1028 JUMPI PUSH2 0xFEC PUSH2 0x1250 JUMP JUMPDEST PUSH1 0x40 MLOAD PUSH32 0x118CDAA700000000000000000000000000000000000000000000000000000000 DUP2 MSTORE PUSH1 0x4 ADD PUSH2 0x101F SWAP2 SWAP1 PUSH2 0x1460 JUMP JUMPDEST PUSH1 0x40 MLOAD DUP1 SWAP2 SUB SWAP1 REVERT JUMPDEST JUMP JUMPDEST PUSH1 0x2 PUSH1 0x1 SLOAD SUB PUSH2 0x106F JUMPI PUSH1 0x40 MLOAD PUSH32 0x8C379A000000000000000000000000000000000000000000000000000000000 DUP2 MSTORE PUSH1 0x4 ADD PUSH2 0x1066 SWAP1 PUSH2 0x1BF2 JUMP JUMPDEST PUSH1 0x40 MLOAD DUP1 SWAP2 SUB SWAP1 REVERT JUMPDEST PUSH1 0x2 PUSH1 0x1 DUP2 SWAP1 SSTORE POP JUMP JUMPDEST PUSH1 0x1 DUP1 DUP2 SWAP1 SSTORE POP JUMP JUMPDEST PUSH2 0x108A PUSH2 0x1257 JUMP JUMPDEST PUSH0 PUSH1 0x2 PUSH0 PUSH2 0x100 EXP DUP2 SLOAD DUP2 PUSH1 0xFF MUL NOT AND SWAP1 DUP4 ISZERO ISZERO MUL OR SWAP1 SSTORE POP PUSH32 0x5DB9EE0A495BF2E6FF9C91A7834C1BA4FDD244A5E8AA4E537BD38AEAE4B073AA PUSH2 0x10CC PUSH2 0x1250 JUMP JUMPDEST PUSH1 0x40 MLOAD PUSH2 0x10D9 SWAP2 SWAP1 PUSH2 0x1460 JUMP JUMPDEST PUSH1 0x40 MLOAD DUP1 SWAP2 SUB SWAP1 LOG1 JUMP JUMPDEST PUSH0 DUP1 PUSH0 SWAP1 SLOAD SWAP1 PUSH2 0x100 EXP SWAP1 DIV PUSH20 0xFFFFFFFFFFFFFFFFFFFFFFFFFFFFFFFFFFFFFFFF AND SWAP1 POP DUP2 PUSH0 DUP1 PUSH2 0x100 EXP DUP2 SLOAD DUP2 PUSH20 0xFFFFFFFFFFFFFFFFFFFFFFFFFFFFFFFFFFFFFFFF MUL NOT AND SWAP1 DUP4 PUSH20 0xFFFFFFFFFFFFFFFFFFFFFFFFFFFFFFFFFFFFFFFF AND MUL OR SWAP1 SSTORE POP DUP2 PUSH20 0xFFFFFFFFFFFFFFFFFFFFFFFFFFFFFFFFFFFFFFFF AND DUP2 PUSH20 0xFFFFFFFFFFFFFFFFFFFFFFFFFFFFFFFFFFFFFFFF AND PUSH32 0x8BE0079C531659141344CD1FD0A4F28419497F9722A3DAAFE3B4186F6B6457E0 PUSH1 0x40 MLOAD PUSH1 0x40 MLOAD DUP1 SWAP2 SUB SWAP1 LOG3 POP POP JUMP JUMPDEST PUSH2 0x11AC PUSH2 0x1206 JUMP JUMPDEST PUSH1 0x1 PUSH1 0x2 PUSH0 PUSH2 0x100 EXP DUP2 SLOAD DUP2 PUSH1 0xFF MUL NOT AND SWAP1 DUP4 ISZERO ISZERO MUL OR SWAP1 SSTORE POP PUSH32 0x62E78CEA01BEE320CD4E420270B5EA74000D11B0C9F74754EBDBFC544B05A258 PUSH2 0x11EF PUSH2 0x1250 JUMP JUMPDEST PUSH1 0x40 MLOAD PUSH2 0x11FC SWAP2 SWAP1 PUSH2 0x1460 JUMP JUMPDEST PUSH1 0x40 MLOAD DUP1 SWAP2 SUB SWAP1 LOG1 JUMP JUMPDEST PUSH2 0x120E PUSH2 0x539 JUMP JUMPDEST ISZERO PUSH2 0x124E JUMPI PUSH1 0x40 MLOAD PUSH32 0x8C379A000000000000000000000000000000000000000000000000000000000 DUP2 MSTORE PUSH1 0x4 ADD PUSH2 0x1245 SWAP1 PUSH2 0x1C5A JUMP JUMPDEST PUSH1 0x40 MLOAD DUP1 SWAP2 SUB SWAP1 REVERT JUMPDEST JUMP JUMPDEST PUSH0 CALLER SWAP1 POP SWAP1 JUMP JUMPDEST PUSH2 0x125F PUSH2 0x539 JUMP JUMPDEST PUSH2 0x129E JUMPI PUSH1 0x40 MLOAD PUSH32 0x8C379A000000000000000000000000000000000000000000000000000000000 DUP2 MSTORE PUSH1 0x4 ADD PUSH2 0x1295 SWAP1 PUSH2 0x1CC2 JUMP JUMPDEST PUSH1 0x40 MLOAD DUP1 SWAP2 SUB SWAP1 REVERT JUMPDEST JUMP JUMPDEST PUSH0 DUP1 REVERT JUMPDEST PUSH0 PUSH20 0xFFFFFFFFFFFFFFFFFFFFFFFFFFFFFFFFFFFFFFFF DUP3 AND SWAP1 POP SWAP2 SWAP1 POP JUMP JUMPDEST PUSH0 PUSH2 0x12CD DUP3 PUSH2 0x12A4 JUMP JUMPDEST SWAP1 POP SWAP2 SWAP1 POP JUMP JUMPDEST PUSH2 0x12DD DUP2 PUSH2 0x12C3 JUMP JUMPDEST DUP2 EQ PUSH2 0x12E7 JUMPI PUSH0 DUP1 REVERT JUMPDEST POP JUMP JUMPDEST PUSH0 DUP2 CALLDATALOAD SWAP1 POP PUSH2 0x12F8 DUP2 PUSH2 0x12D4 JUMP JUMPDEST SWAP3 SWAP2 POP POP JUMP JUMPDEST PUSH0 PUSH1 0x20 DUP3 DUP5 SUB SLT ISZERO PUSH2 0x1313 JUMPI PUSH2 0x1312 PUSH2 0x12A0 JUMP JUMPDEST JUMPDEST PUSH0 PUSH2 0x1320 DUP5 DUP3 DUP6 ADD PUSH2 0x12EA JUMP JUMPDEST SWAP2 POP POP SWAP3 SWAP2 POP POP JUMP JUMPDEST PUSH0 DUP2 SWAP1 POP SWAP2 SWAP1 POP JUMP JUMPDEST PUSH2 0x133B DUP2 PUSH2 0x1329 JUMP JUMPDEST DUP3 MSTORE POP POP JUMP JUMPDEST PUSH0 PUSH1 0x20 DUP3 ADD SWAP1 POP PUSH2 0x1354 PUSH0 DUP4 ADD DUP5 PUSH2 0x1332 JUMP JUMPDEST SWAP3 SWAP2 POP POP JUMP JUMPDEST PUSH0 DUP2 ISZERO ISZERO SWAP1 POP SWAP2 SWAP1 POP JUMP JUMPDEST PUSH2 0x136E DUP2 PUSH2 0x135A JUMP JUMPDEST DUP3 MSTORE POP POP JUMP JUMPDEST PUSH0 PUSH1 0x20 DUP3 ADD SWAP1 POP PUSH2 0x1387 PUSH0 DUP4 ADD DUP5 PUSH2 0x1365 JUMP JUMPDEST SWAP3 SWAP2 POP POP JUMP JUMPDEST PUSH2 0x1396 DUP2 PUSH2 0x1329 JUMP JUMPDEST DUP2 EQ PUSH2 0x13A0 JUMPI PUSH0 DUP1 REVERT JUMPDEST POP JUMP JUMPDEST PUSH0 DUP2 CALLDATALOAD SWAP1 POP PUSH2 0x13B1 DUP2 PUSH2 0x138D JUMP JUMPDEST SWAP3 SWAP2 POP POP JUMP JUMPDEST PUSH0 PUSH1 0x20 DUP3 DUP5 SUB SLT ISZERO PUSH2 0x13CC JUMPI PUSH2 0x13CB PUSH2 0x12A0 JUMP JUMPDEST JUMPDEST PUSH0 PUSH2 0x13D9 DUP5 DUP3 DUP6 ADD PUSH2 0x13A3 JUMP JUMPDEST SWAP2 POP POP SWAP3 SWAP2 POP POP JUMP JUMPDEST PUSH0 DUP2 SWAP1 POP SWAP2 SWAP1 POP JUMP JUMPDEST PUSH2 0x13F4 DUP2 PUSH2 0x13E2 JUMP JUMPDEST DUP2 EQ PUSH2 0x13FE JUMPI PUSH0 DUP1 REVERT JUMPDEST POP JUMP JUMPDEST PUSH0 DUP2 CALLDATALOAD SWAP1 POP PUSH2 0x140F DUP2 PUSH2 0x13EB JUMP JUMPDEST SWAP3 SWAP2 POP POP JUMP JUMPDEST PUSH0 PUSH1 0x20 DUP3 DUP5 SUB SLT ISZERO PUSH2 0x142A JUMPI PUSH2 0x1429 PUSH2 0x12A0 JUMP JUMPDEST JUMPDEST PUSH0 PUSH2 0x1437 DUP5 DUP3 DUP6 ADD PUSH2 0x1401 JUMP JUMPDEST SWAP2 POP POP SWAP3 SWAP2 POP POP JUMP JUMPDEST PUSH0 PUSH2 0x144A DUP3 PUSH2 0x12A4 JUMP JUMPDEST SWAP1 POP SWAP2 SWAP1 POP JUMP JUMPDEST PUSH2 0x145A DUP2 PUSH2 0x1440 JUMP JUMPDEST DUP3 MSTORE POP POP JUMP JUMPDEST PUSH0 PUSH1 0x20 DUP3 ADD SWAP1 POP PUSH2 0x1473 PUSH0 DUP4 ADD DUP5 PUSH2 0x1451 JUMP JUMPDEST SWAP3 SWAP2 POP POP JUMP JUMPDEST PUSH0 PUSH1 0x80 DUP3 ADD SWAP1 POP PUSH2 0x148C PUSH0 DUP4 ADD DUP8 PUSH2 0x1451 JUMP JUMPDEST PUSH2 0x1499 PUSH1 0x20 DUP4 ADD DUP7 PUSH2 0x1332 JUMP JUMPDEST PUSH2 0x14A6 PUSH1 0x40 DUP4 ADD DUP6 PUSH2 0x1332 JUMP JUMPDEST PUSH2 0x14B3 PUSH1 0x60 DUP4 ADD DUP5 PUSH2 0x1365 JUMP JUMPDEST SWAP6 SWAP5 POP POP POP POP POP JUMP JUMPDEST PUSH2 0x14C5 DUP2 PUSH2 0x1440 JUMP JUMPDEST DUP2 EQ PUSH2 0x14CF JUMPI PUSH0 DUP1 REVERT JUMPDEST POP JUMP JUMPDEST PUSH0 DUP2 CALLDATALOAD SWAP1 POP PUSH2 0x14E0 DUP2 PUSH2 0x14BC JUMP JUMPDEST SWAP3 SWAP2 POP POP JUMP JUMPDEST PUSH0 PUSH1 0x20 DUP3 DUP5 SUB SLT ISZERO PUSH2 0x14FB JUMPI PUSH2 0x14FA PUSH2 0x12A0 JUMP JUMPDEST JUMPDEST PUSH0 PUSH2 0x1508 DUP5 DUP3 DUP6 ADD PUSH2 0x14D2 JUMP JUMPDEST SWAP2 POP POP SWAP3 SWAP2 POP POP JUMP JUMPDEST PUSH2 0x151A DUP2 PUSH2 0x135A JUMP JUMPDEST DUP2 EQ PUSH2 0x1524 JUMPI PUSH0 DUP1 REVERT JUMPDEST POP JUMP JUMPDEST PUSH0 DUP2 CALLDATALOAD SWAP1 POP PUSH2 0x1535 DUP2 PUSH2 0x1511 JUMP JUMPDEST SWAP3 SWAP2 POP POP JUMP JUMPDEST PUSH0 DUP1 PUSH1 0x40 DUP4 DUP6 SUB SLT ISZERO PUSH2 0x1551 JUMPI PUSH2 0x1550 PUSH2 0x12A0 JUMP JUMPDEST JUMPDEST PUSH0 PUSH2 0x155E DUP6 DUP3 DUP7 ADD PUSH2 0x1401 JUMP JUMPDEST SWAP3 POP POP PUSH1 0x20 PUSH2 0x156F DUP6 DUP3 DUP7 ADD PUSH2 0x1527 JUMP JUMPDEST SWAP2 POP POP SWAP3 POP SWAP3 SWAP1 POP JUMP JUMPDEST PUSH0 DUP3 DUP3 MSTORE PUSH1 0x20 DUP3 ADD SWAP1 POP SWAP3 SWAP2 POP POP JUMP JUMPDEST PUSH32 0x4E6F2062616C616E636520746F20776974686472617700000000000000000000 PUSH0 DUP3 ADD MSTORE POP JUMP JUMPDEST PUSH0 PUSH2 0x15BD PUSH1 0x16 DUP4 PUSH2 0x1579 JUMP JUMPDEST SWAP2 POP PUSH2 0x15C8 DUP3 PUSH2 0x1589 JUMP JUMPDEST PUSH1 0x20 DUP3 ADD SWAP1 POP SWAP2 SWAP1 POP JUMP JUMPDEST PUSH0 PUSH1 0x20 DUP3 ADD SWAP1 POP DUP2 DUP2 SUB PUSH0 DUP4 ADD MSTORE PUSH2 0x15EA DUP2 PUSH2 0x15B1 JUMP JUMPDEST SWAP1 POP SWAP2 SWAP1 POP JUMP JUMPDEST PUSH0 DUP2 SWAP1 POP SWAP3 SWAP2 POP POP JUMP JUMPDEST POP JUMP JUMPDEST PUSH0 PUSH2 0x1609 PUSH0 DUP4 PUSH2 0x15F1 JUMP JUMPDEST SWAP2 POP PUSH2 0x1614 DUP3 PUSH2 0x15FB JUMP JUMPDEST PUSH0 DUP3 ADD SWAP1 POP SWAP2 SWAP1 POP JUMP JUMPDEST PUSH0 PUSH2 0x1628 DUP3 PUSH2 0x15FE JUMP JUMPDEST SWAP2 POP DUP2 SWAP1 POP SWAP2 SWAP1 POP JUMP JUMPDEST PUSH32 0x5769746864726177616C206661696C6564000000000000000000000000000000 PUSH0 DUP3 ADD MSTORE POP JUMP JUMPDEST PUSH0 PUSH2 0x1666 PUSH1 0x11 DUP4 PUSH2 0x1579 JUMP JUMPDEST SWAP2 POP PUSH2 0x1671 DUP3 PUSH2 0x1632 JUMP JUMPDEST PUSH1 0x20 DUP3 ADD SWAP1 POP SWAP2 SWAP1 POP JUMP JUMPDEST PUSH0 PUSH1 0x20 DUP3 ADD SWAP1 POP DUP2 DUP2 SUB PUSH0 DUP4 ADD MSTORE PUSH2 0x1693 DUP2 PUSH2 0x165A JUMP JUMPDEST SWAP1 POP SWAP2 SWAP1 POP JUMP JUMPDEST PUSH32 0x46656520746F6F206C6172676520286D61782031302529000000000000000000 PUSH0 DUP3 ADD MSTORE POP JUMP JUMPDEST PUSH0 PUSH2 0x16CE PUSH1 0x17 DUP4 PUSH2 0x1579 JUMP JUMPDEST SWAP2 POP PUSH2 0x16D9 DUP3 PUSH2 0x169A JUMP JUMPDEST PUSH1 0x20 DUP3 ADD SWAP1 POP SWAP2 SWAP1 POP JUMP JUMPDEST PUSH0 PUSH1 0x20 DUP3 ADD SWAP1 POP DUP2 DUP2 SUB PUSH0 DUP4 ADD MSTORE PUSH2 0x16FB DUP2 PUSH2 0x16C2 JUMP JUMPDEST SWAP1 POP SWAP2 SWAP1 POP JUMP JUMPDEST PUSH32 0x4E6F207374616B65206578697374730000000000000000000000000000000000 PUSH0 DUP3 ADD MSTORE POP JUMP JUMPDEST PUSH0 PUSH2 0x1736 PUSH1 0xF DUP4 PUSH2 0x1579 JUMP JUMPDEST SWAP2 POP PUSH2 0x1741 DUP3 PUSH2 0x1702 JUMP JUMPDEST PUSH1 0x20 DUP3 ADD SWAP1 POP SWAP2 SWAP1 POP JUMP JUMPDEST PUSH0 PUSH1 0x20 DUP3 ADD SWAP1 POP DUP2 DUP2 SUB PUSH0 DUP4 ADD MSTORE PUSH2 0x1763 DUP2 PUSH2 0x172A JUMP JUMPDEST SWAP1 POP SWAP2 SWAP1 POP JUMP JUMPDEST PUSH32 0x5374616B6520616C726561647920636C61696D65640000000000000000000000 PUSH0 DUP3 ADD MSTORE POP JUMP JUMPDEST PUSH0 PUSH2 0x179E PUSH1 0x15 DUP4 PUSH2 0x1579 JUMP JUMPDEST SWAP2 POP PUSH2 0x17A9 DUP3 PUSH2 0x176A JUMP JUMPDEST PUSH1 0x20 DUP3 ADD SWAP1 POP SWAP2 SWAP1 POP JUMP JUMPDEST PUSH0 PUSH1 0x20 DUP3 ADD SWAP1 POP DUP2 DUP2 SUB PUSH0 DUP4 ADD MSTORE PUSH2 0x17CB DUP2 PUSH2 0x1792 JUMP JUMPDEST SWAP1 POP SWAP2 SWAP1 POP JUMP JUMPDEST PUSH32 0x4E6F7420746865207374616B6572000000000000000000000000000000000000 PUSH0 DUP3 ADD MSTORE POP JUMP JUMPDEST PUSH0 PUSH2 0x1806 PUSH1 0xE DUP4 PUSH2 0x1579 JUMP JUMPDEST SWAP2 POP PUSH2 0x1811 DUP3 PUSH2 0x17D2 JUMP JUMPDEST PUSH1 0x20 DUP3 ADD SWAP1 POP SWAP2 SWAP1 POP JUMP JUMPDEST PUSH0 PUSH1 0x20 DUP3 ADD SWAP1 POP DUP2 DUP2 SUB PUSH0 DUP4 ADD MSTORE PUSH2 0x1833 DUP2 PUSH2 0x17FA JUMP JUMPDEST SWAP1 POP SWAP2 SWAP1 POP JUMP JUMPDEST PUSH32 0x4E487B7100000000000000000000000000000000000000000000000000000000 PUSH0 MSTORE PUSH1 0x11 PUSH1 0x4 MSTORE PUSH1 0x24 PUSH0 REVERT JUMPDEST PUSH0 PUSH2 0x1871 DUP3 PUSH2 0x1329 JUMP JUMPDEST SWAP2 POP PUSH2 0x187C DUP4 PUSH2 0x1329 JUMP JUMPDEST SWAP3 POP DUP3 DUP3 ADD SWAP1 POP DUP1 DUP3 GT ISZERO PUSH2 0x1894 JUMPI PUSH2 0x1893 PUSH2 0x183A JUMP JUMPDEST JUMPDEST SWAP3 SWAP2 POP POP JUMP JUMPDEST PUSH32 0x526566756E6420746F6F206561726C7900000000000000000000000000000000 PUSH0 DUP3 ADD MSTORE POP JUMP JUMPDEST PUSH0 PUSH2 0x18CE PUSH1 0x10 DUP4 PUSH2 0x1579 JUMP JUMPDEST SWAP2 POP PUSH2 0x18D9 DUP3 PUSH2 0x189A JUMP JUMPDEST PUSH1 0x20 DUP3 ADD SWAP1 POP SWAP2 SWAP1 POP JUMP JUMPDEST PUSH0 PUSH1 0x20 DUP3 ADD SWAP1 POP DUP2 DUP2 SUB PUSH0 DUP4 ADD MSTORE PUSH2 0x18FB DUP2 PUSH2 0x18C2 JUMP JUMPDEST SWAP1 POP SWAP2 SWAP1 POP JUMP JUMPDEST PUSH32 0x526566756E64207472616E73666572206661696C656400000000000000000000 PUSH0 DUP3 ADD MSTORE POP JUMP JUMPDEST PUSH0 PUSH2 0x1936 PUSH1 0x16 DUP4 PUSH2 0x1579 JUMP JUMPDEST SWAP2 POP PUSH2 0x1941 DUP3 PUSH2 0x1902 JUMP JUMPDEST PUSH1 0x20 DUP3 ADD SWAP1 POP SWAP2 SWAP1 POP JUMP JUMPDEST PUSH0 PUSH1 0x20 DUP3 ADD SWAP1 POP DUP2 DUP2 SUB PUSH0 DUP4 ADD MSTORE PUSH2 0x1963 DUP2 PUSH2 0x192A JUMP JUMPDEST SWAP1 POP SWAP2 SWAP1 POP JUMP JUMPDEST PUSH32 0x47616D6520616C7265616479207374616B656400000000000000000000000000 PUSH0 DUP3 ADD MSTORE POP JUMP JUMPDEST PUSH0 PUSH2 0x199E PUSH1 0x13 DUP4 PUSH2 0x1579 JUMP JUMPDEST SWAP2 POP PUSH2 0x19A9 DUP3 PUSH2 0x196A JUMP JUMPDEST PUSH1 0x20 DUP3 ADD SWAP1 POP SWAP2 SWAP1 POP JUMP JUMPDEST PUSH0 PUSH1 0x20 DUP3 ADD SWAP1 POP DUP2 DUP2 SUB PUSH0 DUP4 ADD MSTORE PUSH2 0x19CB DUP2 PUSH2 0x1992 JUMP JUMPDEST SWAP1 POP SWAP2 SWAP1 POP JUMP JUMPDEST PUSH32 0x496E76616C6964207374616B6520616D6F756E74000000000000000000000000 PUSH0 DUP3 ADD MSTORE POP JUMP JUMPDEST PUSH0 PUSH2 0x1A06 PUSH1 0x14 DUP4 PUSH2 0x1579 JUMP JUMPDEST SWAP2 POP PUSH2 0x1A11 DUP3 PUSH2 0x19D2 JUMP JUMPDEST PUSH1 0x20 DUP3 ADD SWAP1 POP SWAP2 SWAP1 POP JUMP JUMPDEST PUSH0 PUSH1 0x20 DUP3 ADD SWAP1 POP DUP2 DUP2 SUB PUSH0 DUP4 ADD MSTORE PUSH2 0x1A33 DUP2 PUSH2 0x19FA JUMP JUMPDEST SWAP1 POP SWAP2 SWAP1 POP JUMP JUMPDEST PUSH0 PUSH2 0x1A44 DUP3 PUSH2 0x1329 JUMP JUMPDEST SWAP2 POP PUSH2 0x1A4F DUP4 PUSH2 0x1329 JUMP JUMPDEST SWAP3 POP DUP3 DUP3 MUL PUSH2 0x1A5D DUP2 PUSH2 0x1329 JUMP JUMPDEST SWAP2 POP DUP3 DUP3 DIV DUP5 EQ DUP4 ISZERO OR PUSH2 0x1A74 JUMPI PUSH2 0x1A73 PUSH2 0x183A JUMP JUMPDEST JUMPDEST POP SWAP3 SWAP2 POP POP JUMP JUMPDEST PUSH32 0x4E487B7100000000000000000000000000000000000000000000000000000000 PUSH0 MSTORE PUSH1 0x12 PUSH1 0x4 MSTORE PUSH1 0x24 PUSH0 REVERT JUMPDEST PUSH0 PUSH2 0x1AB2 DUP3 PUSH2 0x1329 JUMP JUMPDEST SWAP2 POP PUSH2 0x1ABD DUP4 PUSH2 0x1329 JUMP JUMPDEST SWAP3 POP DUP3 PUSH2 0x1ACD JUMPI PUSH2 0x1ACC PUSH2 0x1A7B JUMP JUMPDEST JUMPDEST DUP3 DUP3 DIV SWAP1 POP SWAP3 SWAP2 POP POP JUMP JUMPDEST PUSH0 PUSH2 0x1AE2 DUP3 PUSH2 0x1329 JUMP JUMPDEST SWAP2 POP PUSH2 0x1AED DUP4 PUSH2 0x1329 JUMP JUMPDEST SWAP3 POP DUP3 DUP3 SUB SWAP1 POP DUP2 DUP2 GT ISZERO PUSH2 0x1B05 JUMPI PUSH2 0x1B04 PUSH2 0x183A JUMP JUMPDEST JUMPDEST SWAP3 SWAP2 POP POP JUMP JUMPDEST PUSH32 0x5061796F7574207472616E73666572206661696C656400000000000000000000 PUSH0 DUP3 ADD MSTORE POP JUMP JUMPDEST PUSH0 PUSH2 0x1B3F PUSH1 0x16 DUP4 PUSH2 0x1579 JUMP JUMPDEST SWAP2 POP PUSH2 0x1B4A DUP3 PUSH2 0x1B0B JUMP JUMPDEST PUSH1 0x20 DUP3 ADD SWAP1 POP SWAP2 SWAP1 POP JUMP JUMPDEST PUSH0 PUSH1 0x20 DUP3 ADD SWAP1 POP DUP2 DUP2 SUB PUSH0 DUP4 ADD MSTORE PUSH2 0x1B6C DUP2 PUSH2 0x1B33 JUMP JUMPDEST SWAP1 POP SWAP2 SWAP1 POP JUMP JUMPDEST PUSH0 PUSH1 0x60 DUP3 ADD SWAP1 POP PUSH2 0x1B86 PUSH0 DUP4 ADD DUP7 PUSH2 0x1365 JUMP JUMPDEST PUSH2 0x1B93 PUSH1 0x20 DUP4 ADD DUP6 PUSH2 0x1332 JUMP JUMPDEST PUSH2 0x1BA0 PUSH1 0x40 DUP4 ADD DUP5 PUSH2 0x1332 JUMP JUMPDEST SWAP5 SWAP4 POP POP POP POP JUMP JUMPDEST PUSH32 0x5265656E7472616E637947756172643A207265656E7472616E742063616C6C00 PUSH0 DUP3 ADD MSTORE POP JUMP JUMPDEST PUSH0 PUSH2 0x1BDC PUSH1 0x1F DUP4 PUSH2 0x1579 JUMP JUMPDEST SWAP2 POP PUSH2 0x1BE7 DUP3 PUSH2 0x1BA8 JUMP JUMPDEST PUSH1 0x20 DUP3 ADD SWAP1 POP SWAP2 SWAP1 POP JUMP JUMPDEST PUSH0 PUSH1 0x20 DUP3 ADD SWAP1 POP DUP2 DUP2 SUB PUSH0 DUP4 ADD MSTORE PUSH2 0x1C09 DUP2 PUSH2 0x1BD0 JUMP JUMPDEST SWAP1 POP SWAP2 SWAP1 POP JUMP JUMPDEST PUSH32 0x5061757361626C653A2070617573656400000000000000000000000000000000 PUSH0 DUP3 ADD MSTORE POP JUMP JUMPDEST PUSH0 PUSH2 0x1C44 PUSH1 0x10 DUP4 PUSH2 0x1579 JUMP JUMPDEST SWAP2 POP PUSH2 0x1C4F DUP3 PUSH2 0x1C10 JUMP JUMPDEST PUSH1 0x20 DUP3 ADD SWAP1 POP SWAP2 SWAP1 POP JUMP JUMPDEST PUSH0 PUSH1 0x20 DUP3 ADD SWAP1 POP DUP2 DUP2 SUB PUSH0 DUP4 ADD MSTORE PUSH2 0x1C71 DUP2 PUSH2 0x1C38 JUMP JUMPDEST SWAP1 POP SWAP2 SWAP1 POP JUMP JUMPDEST PUSH32 0x5061757361626C653A206E6F7420706175736564000000000000000000000000 PUSH0 DUP3 ADD MSTORE POP JUMP JUMPDEST PUSH0 PUSH2 0x1CAC PUSH1 0x14 DUP4 PUSH2 0x1579 JUMP JUMPDEST SWAP2 POP PUSH2 0x1CB7 DUP3 PUSH2 0x1C78 JUMP JUMPDEST PUSH1 0x20 DUP3 ADD SWAP1 POP SWAP2 SWAP1 POP JUMP JUMPDEST PUSH0 PUSH1 0x20 DUP3 ADD SWAP1 POP DUP2 DUP2 SUB PUSH0 DUP4 ADD MSTORE PUSH2 0x1CD9 DUP2 PUSH2 0x1CA0 JUMP JUMPDEST SWAP1 POP SWAP2 SWAP1 POP JUMP INVALID LOG2 PUSH5 0x6970667358 0x22 SLT KECCAK256 PUSH29 0x219F177D3CD74A3147442BC76F33225ACB73B8CCCE1A646B15A2519B02 0xC GAS PUSH5 0x736F6C6343 STOP ADDMOD EQ STOP CALLER "
				},
				"gasEstimates": {
					"creation": {
						"codeDepositCost": "1489200",
						"executionCost": "infinite",
						"totalCost": "infinite"
					},
					"external": {
						"": "196",
						"BASE_STAKE_WEI()": "347",
						"CELO_STAKE_WEI()": "392",
						"MAX_BPS()": "435",
						"feeBps()": "2471",
						"owner()": "2538",
						"pause()": "infinite",
						"paused()": "2563",
						"placeStake(bytes32)": "146268",
						"refundStake(bytes32)": "infinite",
						"renounceOwnership()": "infinite",
						"resolveGame(bytes32,bool)": "infinite",
						"setFeeBps(uint256)": "infinite",
						"setTimeout(uint256)": "infinite",
						"stakes(bytes32)": "infinite",
						"timeout()": "2448",
						"transferOwnership(address)": "infinite",
						"unpause()": "infinite",
						"withdrawFees(address)": "infinite"
					}
				},
				"methodIdentifiers": {
					"BASE_STAKE_WEI()": "d9962069",
					"CELO_STAKE_WEI()": "abaebbe3",
					"MAX_BPS()": "fd967f47",
					"feeBps()": "24a9d853",
					"owner()": "8da5cb5b",
					"pause()": "8456cb59",
					"paused()": "5c975abb",
					"placeStake(bytes32)": "e3e594ae",
					"refundStake(bytes32)": "748926f3",
					"renounceOwnership()": "715018a6",
					"resolveGame(bytes32,bool)": "f55d3d0c",
					"setFeeBps(uint256)": "72c27b62",
					"setTimeout(uint256)": "c58a34cc",
					"stakes(bytes32)": "8fee6407",
					"timeout()": "70dea79a",
					"transferOwnership(address)": "f2fde38b",
					"unpause()": "3f4ba83a",
					"withdrawFees(address)": "164e68de"
				}
			},
			"storageLayout": {
				"storage": [
					{
						"astId": 8,
						"contract": "playversestaking.sol:PlayverseStake",
						"label": "_owner",
						"offset": 0,
						"slot": "0",
						"type": "t_address"
					},
					{
						"astId": 266,
						"contract": "playversestaking.sol:PlayverseStake",
						"label": "_status",
						"offset": 0,
						"slot": "1",
						"type": "t_uint256"
					},
					{
						"astId": 165,
						"contract": "playversestaking.sol:PlayverseStake",
						"label": "_paused",
						"offset": 0,
						"slot": "2",
						"type": "t_bool"
					},
					{
						"astId": 370,
						"contract": "playversestaking.sol:PlayverseStake",
						"label": "feeBps",
						"offset": 0,
						"slot": "3",
						"type": "t_uint256"
					},
					{
						"astId": 376,
						"contract": "playversestaking.sol:PlayverseStake",
						"label": "timeout",
						"offset": 0,
						"slot": "4",
						"type": "t_uint256"
					},
					{
						"astId": 390,
						"contract": "playversestaking.sol:PlayverseStake",
						"label": "stakes",
						"offset": 0,
						"slot": "5",
						"type": "t_mapping(t_bytes32,t_struct(Stake)385_storage)"
					}
				],
				"types": {
					"t_address": {
						"encoding": "inplace",
						"label": "address",
						"numberOfBytes": "20"
					},
					"t_bool": {
						"encoding": "inplace",
						"label": "bool",
						"numberOfBytes": "1"
					},
					"t_bytes32": {
						"encoding": "inplace",
						"label": "bytes32",
						"numberOfBytes": "32"
					},
					"t_mapping(t_bytes32,t_struct(Stake)385_storage)": {
						"encoding": "mapping",
						"key": "t_bytes32",
						"label": "mapping(bytes32 => struct PlayverseStake.Stake)",
						"numberOfBytes": "32",
						"value": "t_struct(Stake)385_storage"
					},
					"t_struct(Stake)385_storage": {
						"encoding": "inplace",
						"label": "struct PlayverseStake.Stake",
						"members": [
							{
								"astId": 378,
								"contract": "playversestaking.sol:PlayverseStake",
								"label": "player",
								"offset": 0,
								"slot": "0",
								"type": "t_address"
							},
							{
								"astId": 380,
								"contract": "playversestaking.sol:PlayverseStake",
								"label": "amount",
								"offset": 0,
								"slot": "1",
								"type": "t_uint256"
							},
							{
								"astId": 382,
								"contract": "playversestaking.sol:PlayverseStake",
								"label": "timestamp",
								"offset": 0,
								"slot": "2",
								"type": "t_uint256"
							},
							{
								"astId": 384,
								"contract": "playversestaking.sol:PlayverseStake",
								"label": "claimed",
								"offset": 0,
								"slot": "3",
								"type": "t_bool"
							}
						],
						"numberOfBytes": "128"
					},
					"t_uint256": {
						"encoding": "inplace",
						"label": "uint256",
						"numberOfBytes": "32"
					}
				}
			},
			"userdoc": {
				"kind": "user",
				"methods": {
					"placeStake(bytes32)": {
						"notice": "Place a stake for a game."
					},
					"refundStake(bytes32)": {
						"notice": "Player refunds their stake if unresolved after `timeout`."
					},
					"resolveGame(bytes32,bool)": {
						"notice": "Owner resolves the game outcome."
					},
					"withdrawFees(address)": {
						"notice": "Withdraw accumulated fees to `to` address."
					}
				},
				"version": 1
			}
		}
	}
}